:100000000C9490020C94C1020C94C1020C94C10295
:100010000C94C1020C94C1020C94C1020C94C10254
:100020000C94C1020C94C1020C94C1020C94C10244
:100030000C94C1020C94C1020C94C1020C94C10234
:100040000C94C1020C94C1020C94C1020C94C10224
:100050000C94C1020C94C1020C94C1020C94E70FE1
:100060000C94C1020C94A4110C9494120C94C1022F
:100070000C94C1020C94C1020C94C1020C94C102F4
:100080000C94C1020C94C1020C94C1020C94C102E4
:100090000C94D8110C94D3120C94C1020C949408B3
:1000A0000C94C1020C94C1020C94C1020C94C102C4
:1000B0000C94C1020C94C1020C94C1020C94C102B4
:1000C0000C94C1020C94C1020C94C1020C940C1249
:1000D0000C9412130C94C1020C9440120C94511302
:1000E0000C94C102810584058D059505A005A50523
:1000F000B805BD05C105C605CA05D005DB05ED057A
:10010000FC05000617061A0644064D065206590657
:100110007B069506B606BC06C006C406C806D2060F
:10012000D906E006E706FB06FB06FB06FB06FB0618
:10013000FB06FB06FB06FB06FB06FB06FB06FB06B7
:10014000FB06FB06F206A30BB80BCF0BEB0B0F0C59
:100150002A0C490C4A0D040D840D2E0D880B8B0CB6
:10016000990D460D910BAC0BC30BDF0BFD0B1E0C59
:100170003D0C030E630D780D840D7C0B7F0CA40DDC
:10018000330E360E290E2D0E6D0E3A0E3E0E440E17
:10019000480E4C0E520E560E5A0E6D0E600E640E28
:1001A000680E510F560F5B0F650FDE0F6F0F770F45
:1001B0007F0F890F930F9D0FAC0FB60FDE0FC00F8F
:1001C000CA0FD40F687474703A2F2F6769746875FA
:1001D000622E636F6D2F776865656C65722D6D6932
:1001E00063726F666C7569646963732F64656D6FA4
:1001F0005F7270632E67697400302E340057686533
:10020000656C6572204C61620064656D6F5F727031
:1002100063000000090A02080B0C0D070603040125
:1002200000000000000000000000000000000000CE
:10023000000000000000000000000000000011109D
:100240000F0000000000000000000000000000009F
:10025000000000000000000001021020200808102B
:100260002040102040800201020108040201010226
:1002700004081020408080402010080402018004FF
:10028000020180402010080402010804020101025A
:100290000408102040800102040810204080050559
:1002A0000505070508080808020202020A0A0808EC
:1002B000040404040101010101010101030303031A
:1002C00003030303040707070C0C0C0C0C0C0C0CA9
:1002D0000202020206060606060606060B0B0B0BBA
:1002E0000B0B0B0B000020002300260029002C0024
:1002F0002F00320000010000030106010901000087
:100300002200250028002B002E00310034000201BD
:100310000000050108010B01000021002400270056
:100320002A002D0030003300010100000401070104
:100330000A010C94640E0C949D0F0C9481050C948E
:10034000C30B0C94D40F0C942F0A0C94D9060C9464
:100350004D110C94EB020C94CF0B0C948D050C9466
:100360002A0C0C9400060C94C6050C94330E0C94C5
:10037000680E0C94FB060C94480E0C94BC060C946E
:10038000CA050C94CA0F0C94770F0C94C00F0C94F0
:10039000E1090C94840D0C944A0D0C941E0C0C94E1
:1003A000F3100C945B0F0C9447150C944D060C94B1
:1003B000D0050C94A0050C941A060C9420110C94F2
:1003C00059060C949B040C9484050C94DB050C9446
:1003D000AC0F0C94360E0C94520E0C946D0E0C94C3
:1003E0004C0E0C9444060C94FD0B0C94D6020C9409
:1003F000E7060C94ED050C94C0060C94EB0B0C94E2
:10040000F2060C94A30B0C94630D0C94E9090C9464
:10041000290E0C947F0C0C94A40D0C94B80B0C9426
:100420003D0C0C9495050C94DE020C9495060C94EE
:1004300042110C943E0E0C94560E0C94DF0B0C944F
:10044000460D0C94560F0C94BD050C94FC050C94B1
:1004500052060C94680A0C942D0E0C946F0F0C9499
:100460003B0A0C947F0F0C94910B0C94F40A0C949F
:10047000A5050C94880B0C943A0E0C94440E0C9425
:10048000B6060C942E0D0C94780D0C94F0020C947E
:10049000CF020C94E0060C94B60F0C94650F0C94EC
:1004A000AC0B0C94990D0C9473120C94B8050C942D
:1004B0005A0E0C9411140C94890F0C94C4060C94CD
:1004C000FC090C94490C0C948B0C0C94930F0C9419
:1004D000EA020C94510F0C9405110C94C1050C9474
:1004E000030E0C9467070C94040D0C94600E0C948E
:1004F0000C0A0C94C3020C947C0B0C940B0A0C9405
:100500000F0C0C94C8060C945A030C94DE0F0C9438
:100510007B060C9417060C94D2069B04F40A111463
:1005200011241FBECFEFD1E2DEBFCDBF00E00CBF74
:1005300012E0A0E0B2E0E6E8FBE200E00BBF02C0A0
:1005400007900D92AE33B107D9F718E0AEE3B2E0F1
:1005500001C01D92AC3AB107E1F715E0C0E2D5E069
:1005600000E006C022970109FE010BBF0E9497150B
:10057000CA31D10780E00807A9F70E945A070C94F6
:10058000C1150C940000DC011296ED91FC911397BB
:100590008189882311F085E6089580E00895DC01C3
:1005A0001296ED91FC91139780890895DC011296C3
:1005B000ED91FC911397848995890895DC01149637
:1005C0008D919C911597DC01ED91FC910480F58152
:1005D000E02D19940895FC01828193810C94180BED
:1005E000FC0182819381FC01758B648B0C94180B48
:1005F000EF92FF920F931F93CF93DF931F92CDB78C
:10060000DEB78C01DC01ED91FC910190F081E02DD1
:100610001995811145C0D801ED91FC910280F381BB
:10062000E02DC801199581113BC0E12CF12CF80196
:1006300084819581DC01ED91FC910480F581E02DB0
:1006400019951816190654F5F80184819581DC0175
:10065000ED91FC910680F781E02D19958983BE010B
:100660006F5F7F4FF801828193810E94370BFFEF0C
:10067000EF1AFF0AD801ED91FC910190F081E02D75
:10068000C801199581110AC0D801ED91FC91028031
:10069000F381E02DC8011995882349F2C70102C0F2
:1006A00080E090E00F90DF91CF911F910F91FF902C
:1006B000EF9008950F931F93CF93DF93EC0100E029
:1006C00010E08C819D81DC01ED91FC910480F5812D
:1006D000E02D199518161906B4F5CE010E94F802FE
:1006E000080F191FE881F9810280F381E02DCE0106
:1006F0001995E881F981882351F0AA81BB8154962C
:100700006D917C9155970088F189E02D12C0019080
:10071000F081E02DCE011995882399F2E881F981C5
:10072000AA81BB8154966D917C9155970684F7857B
:10073000E02DCE011995E881F9810480F581E02D45
:10074000CE011995BECFC801DF91CF911F910F91B6
:1007500008950F931F93CF93DF938C01EB01BC019E
:10076000CE010E949B15C8010E94A215AC01BE01DA
:10077000CB01BA01DF91CF911F910F91089580E8CD
:1007800093E00E94A70A8CE08093B80040E052EC0E
:1007900061E070E086E494E00E94901380E091E0D4
:1007A00090938A028093890288E896E090938C0265
:1007B00080938B0284E892E0909377028093760294
:1007C00082E692E00E94180B80E290E0909346024D
:1007D0008093450288E897E090934802809347020F
:1007E00008950F931F93CF93DF93EC018B01E88162
:1007F000F9816F5F7F4F0280F381E02D41E050E08F
:100800001995E881F9810280F381E02D41E050E003
:10081000B801CE01DF91CF911F910F911994EF9202
:10082000FF920F931F93CF93DF93CDB7DEB76297FD
:100830000FB6F894DEBF0FBECDBF8C018BE0FB017D
:10084000DE01119601900D928A95E1F71B861A86BA
:10085000E12CF12C2C813D818A859B85E216F306E3
:1008600068F4E885F985EE0DFF1D60810E94F80AA5
:100870009B878A878FEFE81AF80AECCF0E94100B4B
:100880009B878A874CE75CE76CE770E04C875D8765
:100890006E877F87D801ED91FC910280F381E02D76
:1008A00043E050E0BE01645F7F4FC8011995BE016F
:1008B0006F5F7F4FC8010E94F1038B818A8BD80143
:1008C000ED91FC910280F381E02D41E050E0BE010A
:1008D0006E5E7F4FC80119958B818436F9F48C8147
:1008E0009D81998B888BBE01605F7F4FC8010E94FC
:1008F000F1034C815D814115510551F0D801ED9115
:10090000FC91688579850280F381E02DC8011995F5
:10091000BE01665F7F4FC8010E94F10362960FB669
:10092000F894DEBF0FBECDBFDF91CF911F910F9125
:10093000FF90EF900895CF93DF9360E070E086ED35
:1009400093E00E94110BC1E9D2E08883682F80E810
:1009500093E00E94B10AD0939002C0938F0210924C
:1009600085021092840210928602109288021092E0
:10097000870210928A021092890210928C021092C1
:100980008B028FEF9FEF90938E0280938D02A2E6F1
:10099000B2E01C921092630210926F0210926E02EB
:1009A00010927102109270021092750210927402ED
:1009B00010927702109276021092830210928202B5
:1009C000EEE5F2E026E434E0318320834FE852E0A4
:1009D0005093610240936002B0935902A093580271
:1009E00030935B0220935A022BE032E0309357029F
:1009F00020935602F0935D02E0935C0210923E0257
:100A000010923F0210924102109240021092420254
:100A10001092440210924302109246021092450234
:100A2000109248021092470290934A028093490222
:100A300010924C0210924B0210924D0210924F02F3
:100A400010924E02109251021092500210925302D4
:100A5000109252029093550280935402DF91CF91ED
:100A60000895CF92DF92EF92FF920F931F93CF934F
:100A7000DF93162FEC01219641E080E893E00E947D
:100A8000D10A80E893E00E94E9097C01482F612F98
:100A900080E893E00E94D10AC82ED12C8E01FF2459
:100AA000C8018C1B9D0B8E159F0544F480E893E0D4
:100AB0000E94E909F80181938F01F2CFB601CE01BE
:100AC000DF91CF911F910F91FF90EF90DF90CF902A
:100AD00008959F92AF92BF92CF92DF92EF92FF92D2
:100AE0000F931F93CF93DF93DC01E901488150E01E
:100AF0004133510508F07FC14E585F4FFA010C9405
:100B000091150E943D1002C00E94311068837983C4
:100B10008A839B8344E050E075C189819A81009764
:100B200009F46EC10E9486106BC169817A816115DA
:100B3000710509F465C180E090E00E94601060C119
:100B400089EF90E0A0E0B0E051C12091A808309179
:100B5000A9088DB79EB72115310519F48C5A984014
:100B600002C0821B930BAA2797FDA095BA2F3EC106
:100B70006A8189810E946E0E43C189810E94DD0EC7
:100B80000DC16A8189810E94A70E3AC189810E94A4
:100B9000060F7EC06A8170E089810E942B0F30C1F0
:100BA0008B819C812F5F3F4F820F931F9C838B8390
:100BB00089819A816DC02F5F3F4F8B819C81820F0D
:100BC000931F9C838B8349815A816B817C81EB01CC
:100BD000440F551F440F551F15C12F5F3F4F8B8189
:100BE0009C81820F931F9C838B8389819A81AB8127
:100BF000BC81AC01ED0106C1ED91FC91808113C077
:100C0000F9800D911C91F801F0826F2D80E893E03E
:100C10000E94B10AF801408160E070E086ED93E047
:100C20000E94140B8F2D90E0A0E0B0E0DFC080E2C6
:100C300090E02EC0CD91DC91219688E0D82EE12C59
:100C4000F12C8701F0E8EF16F104E0F46D2D80E857
:100C500093E00E94D40A80E893E00E94F10A811197
:100C60000DC08FEFE81AF80AFE01E00FF11FD082E5
:100C700061E070E080E090E00E946010D394E8E7CB
:100C8000DE12DFCFA701BEC080E893E00E94E10939
:100C90009983888342E050E0B5C080E893E00E94E9
:100CA000E9097CC04A81698180E893E00E94D10A09
:100CB00075C00A816981CD91DC912196402F80E831
:100CC00093E00E94D10ADC2EEC2EFD2E1E2D1D1964
:100CD00080E893E00E94E109892B31F080E893E0FD
:100CE0000E94E909101718F0412F50E08BC0F7015E
:100CF00081937F01EBCF0C811D81C9010196080F03
:100D0000191F1D830C83EA80FB80698180E893E0D2
:100D10000E94D40AA701B80180E893E00E943B0A30
:100D200080E893E00E94F10A6BC0C90101960C8132
:100D30001D81080F191F1D830C839980AD90BC90F5
:100D4000CA80DB80EC80FD80692D80E893E00E9402
:100D5000D40AA601B80180E893E00E943B0A80E82B
:100D600093E00E94F10A692DC50103C069818D914C
:100D70009C910E94310533C089810E94C50940C001
:100D800089810E94D3093CC089810E94CE0938C064
:100D900089818EBD0DB407FEFDCF8EB5888341E0FD
:100DA00050E030C06D917C916F5F7F4F89E092E0A1
:100DB00014C06D917C916F5F7F4F8DEF91E00DC0FE
:100DC0006D917C916F5F7F4F89EF91E006C06D91CF
:100DD0007C916F5F7F4F84EC91E00E94A903AB018F
:100DE000EC0110C08AE290E0A0E0B0E08883998333
:100DF000AA83BB838FCEC0E0D0E04FEF5FEF02C08D
:100E000040E050E0BA01CE01DF91CF911F910F91E8
:100E1000FF90EF90DF90CF90BF90AF909F9008959C
:100E2000FC01CB01638174812281243619F46115A0
:100E3000710539F420E030E04FEF5FEFBA01C901EE
:100E4000089527813085458156810E946905AB014F
:100E50009C01F4CFE0915602F09157020484F5858D
:100E6000E02D86E592E0199580913E02882309F1F4
:100E70006FE872E080E492E00E941007009741F46E
:100E80008EE680934D0210924F0210924E020FC0D8
:100E900070935102609350029093530280935202D8
:100EA00070934F0260934E0284E680934D0210923D
:100EB0003E0208950E9491100E94BF03C3E7D2E151
:100EC0000E942A072097E1F30E947312F9CF0F9333
:100ED0001F93CF93DF93CDB7DEB72B970FB6F89460
:100EE000DEBF0FBECDBF9B01FC0106811781F8015B
:100EF00062817381C9010E9410071A8219821D82C2
:100F00001C821F821E82198618862FEF3FEF3B87B7
:100F10002A87009711F48EE607C07F836E83998736
:100F200088877D836C8384E68B83BE016F5F7F4FF0
:100F3000F801808191810E940F042B960FB6F894DE
:100F4000DEBF0FBECDBFDF91CF911F910F910895EE
:100F500010927F0381E080937D0310927C0361E017
:100F600084E10E94A70E61E085E10E94A70EE9EBF3
:100F7000F0E080818E7F808380818D7F808388E414
:100F80008093B80085E48093BC000895880F809317
:100F9000BA000895413208F03FC090917F0391114B
:100FA000FCCF91E090937F0320937D032FEF20935C
:100FB000120310925703240F2093560390937E033D
:100FC00090917E03880F892B80937E0380917C0310
:100FD000813041F410927C0380917E038093BB00AA
:100FE00085EC01C085EE8093BC0080917F03813049
:100FF000E1F380915703841710F44091570328E5DB
:1010000033E0FB01D9018A2F821B841718F48D91DC
:101010008193F9CF842F089580E008950F93413292
:1010200008F046C090917F039111FCCF92E090931D
:101030007F0300937D039FEF909312031092570359
:1010400040935603FB0168E573E0DB019A2F961B82
:10105000941718F491919D93F9CF10927E0390917B
:101060007E03880F892B80937E0380917C038130DF
:1010700041F410927C0380917E038093BB0085EC49
:1010800001C085EE8093BC00222321F080917F0374
:101090008230E1F3809112038F3F61F0809112035F
:1010A000803251F080911203803341F483E007C015
:1010B00081E005C080E003C082E001C084E00F91C0
:1010C0000895613298F420917F03243089F460936D
:1010D0003403FC0186E393E0DC012A2F281B26174A
:1010E00018F421912D93F9CF80E0089581E00895BF
:1010F00082E0089590937903809378030895909304
:101100007B0380937A03089585ED8093BC008091E2
:10111000BC0084FDFCCF10927F03089585EC809382
:10112000BC0010927F0308951F920F920FB60F928A
:1011300011240BB60F922F933F934F935F936F93AE
:101140007F938F939F93AF93BF93EF93FF93809180
:10115000B900887F803609F49CC068F5883209F4AC
:101160005BC090F4803109F454C038F4882309F44A
:10117000F5C0883009F44DC0F5C0883109F44CC081
:10118000803209F45DC0EEC0803409F468C048F4D0
:10119000803309F455C0883309F0E4C0809312030A
:1011A000A8C0803509F44FC0883509F45DC0883483
:1011B00009F0D8C0D5C0883909F4C6C0A8F488376A
:1011C00009F467C038F4883609F463C0803709F43D
:1011D00060C0C8C0883809F4B7C0803909F45FC05E
:1011E000803809F0BFC05BC0803B09F485C038F48B
:1011F000803A09F466C0883A09F47EC0B3C0803CE6
:1012000009F4A6C0883C09F4A3C0883B09F489C04E
:10121000A9C080917E0310C090915703809156031E
:10122000981770F5E091570381E08E0F8093570374
:10123000F0E0E85AFC4F80818093BB0085EC85C0CC
:10124000809312038DC0E091570381E08E0F80934D
:1012500057038091BB00F0E0E85AFC4F80839091E7
:101260005703809156036DC0E091570381E08E0FC4
:10127000809357038091BB00F0E0E85AFC4F8083D5
:1012800080917D0381116CC081E080937C0384EAAE
:1012900060C083E080937F0310921303CFCF8091CF
:1012A0001303803208F050C0E091130381E08E0FE9
:1012B000809313038091BB00F0E0EC5EFC4F8083D1
:1012C000BDCF80911303803230F4E0911303F0E03E
:1012D000EC5EFC4F10820E9484086091130370E062
:1012E000E0917803F091790384E193E019951092ED
:1012F00013030E948E0836C084E080937F0310920F
:10130000350310923403E0917A03F0917B03199531
:1013100080913403811105C081E0809334031092E1
:101320003603E091350381E08E0F80933503F0E0C2
:10133000EA5CFC4F80818093BB00909135038091E3
:101340003403981708F47ACF85E88093BC000AC06C
:1013500085EC8093BC0010927F0304C010921203AE
:101360000E948408FF91EF91BF91AF919F918F915F
:101370007F916F915F914F913F912F910F900BBE95
:101380000F900FBE0F901F901895811103C08CB560
:10139000806202C08CB58F7D8CBD08959CB5937F13
:1013A000982B9CBD08952CB5982F93702C7F922B71
:1013B0009CBD9DB582FB882780F99E7F982B9DBDA3
:1013C00008958091B40390E02091B503821B9109A8
:1013D00008952091B5038091B403281750F4E22FAB
:1013E000F0E0EA54FC4F808190E02F5F2093B5033A
:1013F00008958FEF9FEF0895E091B5038091B403B6
:10140000E81730F4F0E0EA54FC4F808190E0089552
:101410008FEF9FEF08950895E0918C03F0918D0375
:101420003097E1F03091B5032091B4033217B0F05A
:1014300040E0242F30E02617370754F4DC01A20FD8
:10144000B31F5C91D901AA54BC4F5C934F5FF1CF9D
:101450001092B5036093B403CB0119940895E09101
:101460008E03F0918F03309729F01092920310921F
:10147000910319940895CF92DF92EF92FF920F9308
:101480001F93CF93DF937C01CB018A0120919003BE
:10149000222389F0EB016B01C40ED51ECC15DD05AE
:1014A00069F06991D701ED91FC910190F081E02DF7
:1014B000C7011995F3CF642F0E946108C801DF911D
:1014C000CF911F910F91FF90EF90DF90CF900895F3
:1014D000CF93DF931F92CDB7DEB76983209190033E
:1014E0002223D1F020919103203240F021E030E01E
:1014F000FC013383228380E090E015C08091920349
:10150000E82FF0E0ED56FC4F998190838F5F809338
:1015100092038093910305C061E0CE0101960E9481
:10152000610881E090E00F90DF91CF910895FC0178
:101530001382128248EE53E060E070E044835583EA
:101540006683778381E292E091838083089510928D
:10155000B5031092B40310929203109291030C946D
:10156000A807CF93DF93EC01862F0E94C6078FE276
:101570009AE00E947F088CE09AE00E947A08CE01EF
:10158000DF91CF910C94A70A862F413208F040E2F8
:1015900066EB73E00E94CA071092B5038093B40310
:1015A000089521E00C94C40A81E080939003609335
:1015B000B303109292031092910308950F93062F94
:1015C00021E04091910363E973E08091B3030E94AD
:1015D0000E081092920310929103109290030F91B3
:1015E000089561E00C94DE0A80E893E00C94970A79
:1015F0008627682F62956827062E66956695602572
:10160000062E669560256770082E892F66950794CB
:101610006795902D862706946795902586270895CF
:101620000895CB010C94AB15CB01642F0C94B3152A
:10163000FC01A489B58912961C92129714961C92EB
:101640001E9213978FEF9FEF1A969C938E93199784
:10165000138A128A108A118A1786168611A210A27E
:101660008CE090E093838283178E168E0895AF925C
:10167000BF92CF92DF92EF92FF920F931F93CF937F
:10168000DF931F92CDB7DEB78C016115710581F430
:10169000CE010196D80115969C938E9314971796B8
:1016A0009C938E93169719969C938E93189707C0C8
:1016B000FC01758364836F5F7F4F77836683D801F6
:1016C00014962D913C91159716968D919C91179794
:1016D0002817390709F08AC16BC28E3609F402C295
:1016E000813609F0D3C1D8015496ED91FC915597FC
:1016F000828381E050968C93F801848195810196D4
:1017000095838483268137818217930709F42AC23F
:10171000D8011496ED91FC91159780818C3709F0D2
:10172000B5C1D80114968D919C9115970196159687
:101730009C938E93149716962D913C911797821730
:10174000930709F412C2D8011496ED91FC911597F4
:1017500080818C3709F09AC1F801848195810196C6
:1017600095838483268137818217930709F400C209
:10177000D8011496ED91FC91159780818C3709F072
:1017800085C150961C92F8018481958101969583BC
:101790008483268137818217930709F4F1C1D80128
:1017A0005496ED91FC9155971182108214968D916B
:1017B0009C911597DC018C9190E091838083F801D6
:1017C0008481958101969583848326813781821750
:1017D000930709F4D8C1D8015496ED91FC9155971F
:1017E00014968D919C911597DC018C91B080A12C61
:1017F0009501282BC90191838083D80114968D917E
:101800009C911597019615969C938E931497169616
:101810002D913C9117978217930709F4B7C1D8010E
:101820001496ED91FC9115978081843609F055CF7F
:10183000D8015496ED91FC9155978283F8018481EB
:10184000958101969583848326813781821793073A
:1018500009F49FC1D80191961C921E9290971D96F3
:101860001C921E921C971496ED91FC911597808105
:1018700090E01D969C938E931C97F801848195812E
:10188000019695838483268137818217930709F413
:1018900083C1D8011C96DC901C97C12C1D96DC924C
:1018A000CE921C971496ED91FC9115978081F601CC
:1018B000E80FF11DCF011D96FC93EE931C975496F3
:1018C000ED91FC915597258136812817390718F439
:1018D00081E051968C93D8015E96ED91FC915F97D3
:1018E000CF0101965F969C938E935E973B96EE0F89
:1018F000FF1FE00FF11F88E090E091838083F801E3
:10190000848195810196958384832681378182170E
:10191000930709F447C1D8011F961C921E921E9787
:1019200053961C921E9252971C968D919C911D97D6
:10193000892B09F45DC1D8011496ED91FC9115979E
:10194000608180E090E00E94F80AF801938B828B1E
:101950000488F589E02D0780F085E02DD8011E96DA
:101960008D919C911F979C012F5F3F4F1F963C9339
:101970002E931E9714962D913C911597D9012C9179
:10198000E80FF91F2083F801268537858485958522
:101990002817390709F0D8C0068CF78DE02DCF0144
:1019A0000197D8015F969C938E935E973A96EE0FBF
:1019B000FF1FE00FF11F8081918113969C938E93FE
:1019C0001297D8011296ED91FC911397EF30F10523
:1019D00008F415C1F801848195810196958384836B
:1019E000268137818217930709F4E2C0D801129645
:1019F000ED91FC9113973197EE30F10508F0B2C0EC
:101A0000ED55FF4F0C949115D8015496ED91FC9132
:101A10005597F184E12CF286E18614968D919C9184
:101A20001597DC018C919701280F311DC901328770
:101A30002187D80152962D913C9153978217930795
:101A400049F481E050968C9350971E968D919C910D
:101A50001F9719C081E0F801818B4ECED8011C96EA
:101A60008D919C911D975496ED91FC9155972581F0
:101A700036812817390718F421E051962C9321E07C
:101A8000D80150962C939483838336CEF801138229
:101A90001282C8C0D80152968D919C9153970E9492
:101AA000100BF801938B828B0488F589E02D128648
:101AB0001186D80114968D919C911597DC018C911B
:101AC00090E092878187F8018481958101969583C2
:101AD0008483268137818217930709F095CF89E0A7
:101AE00090E063C0D8015496ED91FC9155978283A4
:101AF000F8018481958101969583848326813781BD
:101B00008217930709F44BC0D80114968D919C91CC
:101B10001597019615969C938E93149716962D9172
:101B20003C9117978217930709F098CF8BE090E0CC
:101B30003CC0D8011496ED91FC91159760815296A6
:101B40008D919C915397FFCEF801848195810196E8
:101B500095838483268137818217930751F78EE01E
:101B600090E023C08CE090E005C081E090E01DC0D3
:101B700082E090E0D80113969C938E93129718C040
:101B800083E090E012C084E090E0F4CF85E090E044
:101B90000CC086E090E0EECF87E090E006C08AE0DF
:101BA00090E0E8CF8DE090E0E5CFF8019383828369
:101BB000D80114962D913C91159718968D919C9172
:101BC00019972817390771F512968D919C911397E3
:101BD0000D9741F51F961C921E921E9753961C92CC
:101BE0001E9252971C968D919C911D97892BD1F432
:101BF0005E96ED91FC915F97CF010197D3CEEF54A4
:101C0000FF4F0C949115F80184819581019695837D
:101C10008483268137818217930709F03BCF88E0C0
:101C200090E0A8CF0F90DF91CF911F910F91FF907F
:101C3000EF90DF90CF90BF90AF90089590E0FC01BF
:101C40003197E131F10508F048C0E054FF4F0C94A2
:101C50009115809180008F7703C0809180008F7DE7
:101C600080938000089584B58F7702C084B58F7DFE
:101C700084BD08958091B0008F7703C08091B0003B
:101C80008F7D8093B0000895809190008F7707C07A
:101C9000809190008F7D03C080919000877F80931A
:101CA000900008958091A0008F7707C08091A000D8
:101CB0008F7D03C08091A000877F8093A00008954E
:101CC000809120018F7707C0809120018F7D03C014
:101CD00080912001877F809320010895CF93DF9327
:101CE00090E0FC01E85AFD4F2491FC01E256FD4FC3
:101CF0008491882349F190E0880F991FFC01E85EE8
:101D0000FC4FA591B49182509D4FFC01C591D49197
:101D10009FB7611108C0F8948C91209582238C9311
:101D2000888182230AC0623051F4F8948C91322F5A
:101D3000309583238C938881822B888304C0F89408
:101D40008C91822B8C939FBFDF91CF9108950F933D
:101D50001F93CF93DF931F92CDB7DEB7282F30E0CC
:101D6000F901EE5EFD4F8491F901E85AFD4F14919F
:101D7000F901E256FD4F04910023C9F0882321F0B8
:101D800069830E941E0E6981E02FF0E0EE0FFF1FB5
:101D9000E250FD4FA591B4919FB7F8948C916111D9
:101DA00003C01095812301C0812B8C939FBF0F909E
:101DB000DF91CF911F910F910895CF93DF93282F3B
:101DC00030E0F901EE5EFD4F8491F901E85AFD4FD4
:101DD000D491F901E256FD4FC491CC2391F08111C9
:101DE0000E941E0EEC2FF0E0EE0FFF1FEC51FD4F96
:101DF000A591B4912C912D2381E090E021F480E015
:101E000002C080E090E0DF91CF910895863308F022
:101E1000865320917B00982F9870277F922B909368
:101E20007B0087702091060290E4299F9001112485
:101E3000822B80937C0080917A00806480937A006A
:101E400080917A0086FDFCCF809178002091790006
:101E500090E0922B08951F93CF93DF93182FEB01FF
:101E600061E00E946E0E209711F460E004C0CF3F45
:101E7000D10539F461E0812FDF91CF911F910C944E
:101E8000A70EE12FF0E0EE5EFD4F449150E0FA0125
:101E90003197E131F10508F091C0EF52FF4F0C94FA
:101EA000911584B5806884BDC7BD8DC084B580623E
:101EB00084BDC8BD88C08091800080688093800008
:101EC000D0938900C09388007EC08091800080629A
:101ED00080938000D0938B00C0938A0074C080915F
:101EE000B00080688093B000C093B3006CC0809154
:101EF000B00080628093B000C093B40064C0809151
:101F00009000806880939000D0939900C0939800CF
:101F10005AC080919000806280939000D0939B0083
:101F2000C0939A0050C08091900088608093900088
:101F3000D0939D00C0939C0046C08091A000806813
:101F40008093A0008091A0008F7B8093A000D0930D
:101F5000A900C093A80037C08091A0008062809340
:101F6000A000D093AB00C093AA002DC08091A00028
:101F700088608093A000D093AD00C093AC0023C0D4
:101F800080912001806880932001D0932901C09323
:101F9000280119C080912001806280932001D09394
:101FA0002B01C0932A010FC080912001886080938B
:101FB0002001D0932D01C0932C0105C0C038D1055C
:101FC0000CF058CF52CFDF91CF911F9108951F92FF
:101FD0000F920FB60F9211242F933F938F939F93DD
:101FE000AF93BF938091D8039091D903A091DA0366
:101FF000B091DB033091D70323E0230F2D3720F47A
:102000000196A11DB11D05C026E8230F0296A11D52
:10201000B11D2093D7038093D8039093D903A09345
:10202000DA03B093DB038091DC039091DD03A09190
:10203000DE03B091DF030196A11DB11D8093DC0387
:102040009093DD03A093DE03B093DF03BF91AF91C4
:102050009F918F913F912F910F900FBE0F901F90E6
:1020600018952FB7F8946091D8037091D903809197
:10207000DA039091DB032FBF08953FB7F894809166
:10208000DC039091DD03A091DE03B091DF0326B560
:10209000A89B05C02F3F19F00196A11DB11D3FBFA0
:1020A0006627782F892F9A2F620F711D811D911D30
:1020B00042E0660F771F881F991F4A95D1F7089550
:1020C000CF92DF92EF92FF92CF93DF936B017C016F
:1020D0000E943D10EB01C114D104E104F10479F038
:1020E0000E943D106C1B7D0B683E7340A0F381E0A5
:1020F000C81AD108E108F108C851DC4FECCFDF91D4
:10210000CF91FF90EF90DF90CF90089501970097C7
:1021100039F0880F991F880F991F02970197F1F7DF
:102120000895789484B5826084BD84B5816084BD4F
:1021300085B5826085BD85B5816085BDEEE6F0E040
:10214000808181608083E1E8F0E01082808182609C
:102150008083808181608083E0E8F0E0808181601D
:102160008083E1EBF0E0808184608083E0EBF0E04D
:10217000808181608083E1E9F0E0808182608083FA
:10218000808181608083E0E9F0E0808181608083EC
:10219000E1EAF0E0808182608083808181608083D9
:1021A000E0EAF0E0808181608083E1E2F1E080811B
:1021B00082608083808181608083E0E2F1E08081C1
:1021C00081608083EAE7F0E08081846080838081A1
:1021D0008260808380818160808380818068808349
:1021E0001092C1000895FC0124853585F901E05C59
:1021F000FF4F80819181F901EE5BFF4F208131819A
:10220000821B930B8F7399270895FC018485958514
:10221000FC01E05CFF4F40815181FC01EE5BFF4F10
:10222000208131814217530741F00190F081E02D68
:10223000E80FF91F808190E008958FEF9FEF0895D8
:10224000FC0184859585FC01E05CFF4F4081518154
:10225000FC01EE5BFF4F208131814217530779F07B
:10226000A081B181A80FB91F8C91208131812F5F8E
:102270003F4F2F7333273183208390E008958FEFF2
:102280009FEF0895FC0181A1882329F0A489B589D5
:102290008C9186FFFBCF11A20895CF93DF93FC01B1
:1022A00026853785D901A05CBF4F8D919C911197F0
:1022B00001968F739927E901CE5BDF4F48815981E1
:1022C00084179507D9F30D90BC91A02DA20FB31FD1
:1022D0006C93A685B785A05CBF4F11969C938E9397
:1022E000A689B7892C9181E090E0078C02C0880F05
:1022F000991F0A94E2F7282B2C9381E081A304888C
:10230000F589E02D80818064808381E090E0DF9119
:10231000CF910895FB01E05CFF4F208131812F5F59
:102320003F4F2F733327DB01AE5BBF4F4D915C9165
:102330002417350739F0A081B181A60FB71F8C9300
:1023400031832083089508951F920F920FB60F9244
:1023500011240BB60F922F933F934F935F936F937C
:102360007F938F939F93AF93BF93EF93FF9380914E
:10237000C00082FD07C08091C60064E476E00E9440
:102380008A1102C08091C600FF91EF91BF91AF9179
:102390009F918F917F916F915F914F913F912F917D
:1023A0000F900BBE0F900FBE0F901F9018950895C1
:1023B0001F920F920FB60F9211240BB60F922F930C
:1023C0003F934F935F936F937F938F939F93AF93BD
:1023D000BF93EF93FF938091C80082FD07C0809167
:1023E000CE006CEB75E00E948A1102C08091CE0095
:1023F000FF91EF91BF91AF919F918F917F916F91DD
:102400005F914F913F912F910F900BBE0F900FBE98
:102410000F901F90189508951F920F920FB60F926C
:1024200011240BB60F922F933F934F935F936F93AB
:102430007F938F939F93AF93BF93EF93FF9380917D
:10244000D00082FD07C08091D60064E375E00E9451
:102450008A1102C08091D600FF91EF91BF91AF9198
:102460009F918F917F916F915F914F913F912F91AC
:102470000F900BBE0F900FBE0F901F9018950895F0
:102480001F920F920FB60F9211240BB60F922F933B
:102490003F934F935F936F937F938F939F93AF93EC
:1024A000BF93EF93FF938091300182FD07C080912D
:1024B00036016CEA74E00E948A1102C080913601F4
:1024C000FF91EF91BF91AF919F918F917F916F910C
:1024D0005F914F913F912F910F900BBE0F900FBEC8
:1024E0000F901F90189586E494E00E94F310892BBA
:1024F00011F00E94A31184E294E00E94F310892B52
:1025000011F00E94D71182E094E00E94F310892B11
:1025100011F00E940B1280EE93E00E94F310892BC1
:1025200011F00C943F1208951F920F920FB60F9264
:1025300011240BB60F922F933F938F939F93EF939A
:10254000FF93209140063091410680914206909180
:1025500043062817390731F48091C1008F7D80939D
:10256000C10014C0E0914206F0914306E050FA4FDA
:102570002081809142069091430601968F7399279E
:1025800090934306809342062093C600FF91EF91FB
:102590009F918F913F912F910F900BBE0F900FBE87
:1025A0000F901F9018951F920F920FB60F92112443
:1025B0000BB60F922F933F938F939F93EF93FF93BD
:1025C0002091B8053091B9058091BA059091BB056D
:1025D0002817390731F48091C9008F7D8093C90095
:1025E00014C0E091BA05F091BB05E858FA4F20817C
:1025F0008091BA059091BB0501968F7399279093AE
:10260000BB058093BA052093CE00FF91EF919F9177
:102610008F913F912F910F900BBE0F900FBE0F9097
:102620001F9018951F920F920FB60F9211240BB6A0
:102630000F922F933F938F939F93EF93FF9320914C
:10264000300530913105809132059091330528177E
:10265000390731F48091D1008F7D8093D10014C06F
:10266000E0913205F0913305E051FB4F20818091DC
:1026700032059091330501968F7399279093330516
:10268000809332052093D600FF91EF919F918F9117
:102690003F912F910F900BBE0F900FBE0F901F9088
:1026A00018951F920F920FB60F9211240BB60F922E
:1026B0002F933F938F939F93EF93FF932091A804C1
:1026C0003091A9048091AA049091AB04281739078E
:1026D00031F4809131018F7D8093310114C0E091FC
:1026E000AA04F091AB04E859FB4F20818091AA0421
:1026F0009091AB0401968F7399279093AB048093CC
:10270000AA0420933601FF91EF919F918F913F9101
:102710002F910F900BBE0F900FBE0F901F9018952A
:10272000CF92DF92EF92FF92CF93DF93EC016A0199
:102730007B01411581EE580761057105F9F0EC89BF
:10274000FD8981E090E008A002C0880F991F0A94DB
:10275000E2F7808360E079E08DE390E0A7019601E5
:102760000E946F152150310941095109569547952D
:1027700037952795211580E1380798F0EC89FD8978
:10278000108260E874E88EE190E0A70196010E9453
:102790006F152150310941095109569547953795D3
:1027A0002795E889F9893083EA89FB89208319A272
:1027B000EE89FF89408181E090E09C010C8C02C091
:1027C000220F331F0A94E2F7422B4083EE89FF89E0
:1027D00040819C010D8C02C0220F331F0A94E2F746
:1027E000422B4083EE89FF8940819C010E8C02C000
:1027F000220F331F0A94E2F7422B4083EE89FF89B0
:1028000020810F8C02C0880F991F0A94E2F78095EF
:1028100082238083DF91CF91FF90EF90DF90CF9064
:102820000895CF93109249041092480488EE93E0E3
:10283000A0E0B0E080934A0490934B04A0934C0432
:10284000B0934D0421E332E03093470420934604D3
:1028500044E456E0509353044093520440E056E061
:10286000509355044093540445EC50E05093570462
:102870004093560444EC50E050935904409358045C
:1028800040EC50E050935B0440935A0441EC50E01C
:1028900050935D0440935C0442EC50E050935F041D
:1028A00040935E0446EC50E0509361044093600412
:1028B000C4E0C0936204F3E0F0936304E7E0E093C4
:1028C000640475E07093650461E06093660410929F
:1028D0002704109226048093280490932904A0933F
:1028E0002A04B0932B0430932504209324044CEB4A
:1028F00055E0509331044093300448E755E050933D
:102900003304409332044DEC50E05093350440932F
:1029100034044CEC50E0509337044093360448ECB8
:1029200050E0509339044093380449EC50E0509300
:102930003B0440933A044AEC50E050933D044093EA
:102940003C044EEC50E050933F0440933E04C0934F
:102950004004F0934104E093420470934304609375
:10296000440410920504109204048093060490938A
:102970000704A0930804B093090430930304209340
:10298000020444E355E050930F0440930E0440EFDB
:1029900054E0509311044093100445ED50E05093DF
:1029A00013044093120444ED50E0509315044093F7
:1029B000140440ED50E0509317044093160441ED89
:1029C00050E0509319044093180442ED50E05093A6
:1029D0001B0440931A0446ED50E050931D044093AD
:1029E0001C04C0931E04F0931F04E0932004709312
:1029F0002104609322041092E3031092E203809377
:102A0000E4039093E503A093E603B093E7033093C8
:102A1000E1032093E0038CEA94E09093ED0380932C
:102A2000EC0388E694E09093EF038093EE0385E354
:102A300091E09093F1038093F00384E391E090930D
:102A4000F3038093F20380E391E09093F503809386
:102A5000F40381E391E09093F7038093F60382E31C
:102A600091E09093F9038093F80386E391E09093CB
:102A7000FB038093FA03C093FC03F093FD03E09300
:102A8000FE037093FF0360930004CF910895CF92EB
:102A9000DF92EF92FF920F931F93CF93DF936C011E
:102AA0007A01EB01E60EF71E00E010E0CE15DF051F
:102AB00061F06991D601ED91FC910190F081E02DDA
:102AC000C6011995080F191FF1CFC801DF91CF91E9
:102AD0001F910F91FF90EF90DF90CF900895A1E2AA
:102AE0001A2EAA1BBB1BFD010DC0AA1FBB1FEE1F88
:102AF000FF1FA217B307E407F50720F0A21BB30BD3
:102B0000E40BF50B661F771F881F991F1A9469F74E
:102B100060957095809590959B01AC01BD01CF01AA
:102B20000895EE0FFF1F0590F491E02D1994079082
:102B3000F691E02D1994FB01DC0105900D92002027
:102B4000E1F70895FC0105900020E9F78095909544
:102B50008E0F9F1F0895F999FECF92BD81BDF89AFF
:102B6000992780B50895262FF999FECF1FBA92BDF7
:102B700081BD20BD0FB6F894FA9AF99A0FBE01965E
:062B80000895F894FFCF58
:102B86000000AC0820000100000000CF02C302EBE9
:102B960002F002D602DE025A036707EA02000000CC
:102BA60000680A3B0AE109E909FC090B0A00000072
:0E2BB600004D114715F31020110511421100BA
:00000001FF
