:100000000C9447020C9478020C9478020C947802B9
:100010000C9478020C9478020C9478020C94780278
:100020000C9478020C9478020C9478020C94780268
:100030000C9478020C9478020C9478020C94780258
:100040000C9478020C9478020C9478020C94780248
:100050000C9478020C9478020C9478020C944F0D56
:100060000C9478020C940C0F0C94FC0F0C947802F6
:100070000C9478020C9478020C9478020C94780218
:100080000C9478020C9478020C9478020C94780208
:100090000C94400F0C943B100C9478020C9448067E
:1000A0000C9478020C9478020C9478020C947802E8
:1000B0000C9478020C9478020C9478020C947802D8
:1000C0000C9478020C9478020C9478020C94740FBF
:1000D0000C947A100C9478020C94A80F0C94B9101C
:1000E0000C947802A603A903B103B903C403C9039E
:1000F000DF03E403EA03EF03F303F90307041F0438
:10010000320437045404540454045404540454046E
:10011000540454045404540454045404540454041F
:10012000540454045404540454045404540454040F
:1001300054045404540454045404540454045404FF
:10014000540454044F040408190830084C0870087B
:100150008B08AA08AB096509E5098F09E907EC08CE
:10016000FA09A709F2070D08240840085E087F086D
:100170009E08640AC409D909E509DD07E008050AF3
:100180009B0B9E0B910B950BD50BA20BA60BAC0BEF
:10019000B00BB40BBA0BBE0BC20BD50BC80BCC0B00
:1001A000D00BB90CBE0CC30CCD0C460DD70CDF0C1C
:1001B000E70CF10CFB0C050D140D1E0D460D280D62
:1001C000320D3C0D0000090A02080B0C0D07060356
:1001D000040100000000000000000000000000001A
:1001E000000000000000000000000000000000000F
:1001F00011100F00000000000000000000000000CF
:100200000000000000000000000001021020200893
:100210000810204010204080020102010804020161
:1002200001020408102040808040201008040201D0
:100230008004020180402010080402010804020129
:1002400001020408102040800102040810204080B0
:1002500005050505070508080808020202020A0A42
:100260000808040404040101010101010101030360
:10027000030303030303040707070C0C0C0C0C0C0B
:100280000C0C0202020206060606060606060B0B08
:100290000B0B0B0B0B0B000020002300260029008A
:1002A0002C002F00320000010000030106010901AB
:1002B00000002200250028002B002E003100340011
:1002C00002010000050108010B01000021002400CB
:1002D00027002A002D003000330001010000040136
:1002E00007010A010C94ED0A0C94B9030C947911DE
:1002F0000C94E4030C94640A0C9454040C94E509E3
:100300000C94460D0C94C80B0C94A7020C94DF0CB3
:100310000C94B50E0C947F080C94AF120C94950BB2
:100320000C9430080C94C30C0C94F2070C94400805
:100330000C941F040C9464050C94EF030C94320D80
:100340000C94E70C0C94B40B0C94AB090C94AA0815
:100350000C94A20B0C943C0D0C941E0D0C94050DEA
:100360000C94C4030C94BE0B0C94A9030C941908B0
:100370000C94B00B0C94FB0C0C946D0E0C94910B24
:100380000C94EA030C9495020C94AC0B0C94820B25
:100390000C94F90A0C94DB0F0C9465090C94BA0BBD
:1003A0000C945E080C94B1030C94880E0C94C20B50
:1003B0000C94F9030C94A7090C94D50B0C94A1028E
:1003C0000C9432040C94A70A0C94C90A0C944F04A0
:1003D0000C94C9030C94D9090C9411030C94A60332
:1003E0000C9424080C9486020C94A60B0C94C4095B
:1003F0000C94260B0C9404080C9407040C94D70C52
:100400000C94AA0E0C94280D0C948D020C944C089C
:100410000C949E0B0C94F10C0C944E050C94BE0C99
:100420000C9437040C94EC080C9470080C94E008BD
:100430000C945B0E0C94FA090C94A2020C949F0A83
:100440000C948F090C94F3030C94DD070C949E0814
:100450000C94D00B0C94140D0C94E9070C94050A21
:100460000C94DF030C948B080C94BA0A0C94CC0BFC
:100470000C94CD0C0C94B90C0C949B0B0C947A023C
:100480000C940D080C94CA0A6405820B791111248E
:100490001FBECFEFD1E2DEBFCDBF00E00CBF12E048
:1004A000A0E0B2E0E8E4F6E200E00BBF02C0079093
:1004B0000D92AE33B107D9F718E0AEE3B2E001C058
:1004C0001D92A43AB107E1F714E0CEE8D4E000E0D1
:1004D00006C022970109FE010BBF0E94FF12C83817
:1004E000D10780E00807A9F70E9497040C94221313
:1004F0000C940000DC011296ED91FC911397818918
:10050000882311F085E6089580E00895DC011296B5
:10051000ED91FC91139780890895DC011296ED917D
:10052000FC911397848995890895DC0114968D9127
:100530009C911597DC01ED91FC910480F581E02DF3
:1005400019940895FC01828193810C947907FC0130
:1005500082819381FC01758B648B0C947907EF92F7
:10056000FF920F931F93CF93DF931F92CDB7DEB708
:100570008C01DC01ED91FC910190F081E02D199549
:10058000811145C0D801ED91FC910280F381E02DED
:10059000C801199581113BC0E12CF12CF80184812F
:1005A0009581DC01ED91FC910480F581E02D199598
:1005B0001816190654F5F80184819581DC01ED9136
:1005C000FC910680F781E02D19958983BE016F5F4C
:1005D0007F4FF801828193810E949807FFEFEF1A05
:1005E000FF0AD801ED91FC910190F081E02DC80146
:1005F000199581110AC0D801ED91FC910280F38117
:10060000E02DC8011995882349F2C70102C080E096
:1006100090E00F90DF91CF911F910F91FF90EF909D
:1006200008950F931F93CF93DF93EC0100E010E048
:100630008C819D81DC01ED91FC910480F581E02DA0
:10064000199518161906B4F5CE010E94AF02080FCD
:10065000191FE881F9810280F381E02DCE011995FF
:10066000E881F981882351F0AA81BB8154966D916C
:100670007C9155970088F189E02D12C00190F0819E
:10068000E02DCE011995882399F2E881F981AA819C
:10069000BB8154966D917C9155970684F785E02D2A
:1006A000CE011995E881F9810480F581E02DCE0114
:1006B0001995BECFC801DF91CF911F910F91089579
:1006C0008AE793E00E94650B8CE08093B80040E0DD
:1006D00052EC61E070E08EE394E00E94F81080E05C
:1006E00091E0909372028093710280E896E090937B
:1006F0007402809373028CE692E090935F02809381
:100700005E028AE492E00E94790780E290E0909392
:1007100005038093040380E897E090930703809398
:1007200006030895CF92DF92EF92FF920F931F93EB
:10073000CF93DF93E901488150E04133510508F040
:10074000B3C0FA01EE58FF4F0C94F9120E94A50DA8
:1007500002C00E94990D688379838A839B8384E019
:10076000A7C089819A81009709F4A1C00E94EE0D6B
:100770009EC069817A816115710509F498C080E095
:1007800090E00E94C80D93C049EF50E060E070E037
:1007900011C08091A0089091A1084DB75EB7009755
:1007A00019F4445A584002C0481B590B662757FD9C
:1007B0006095762F488359836A837B83D0CF6A8183
:1007C00089810E94D60B73C089810E94450C888361
:1007D00081E06EC06A8189810E940F0C68C08981A6
:1007E0000E946E0C10C06A8170E089810E94930C97
:1007F0005EC02F5F3F4F8B819C81820F931F9C8334
:100800008B8389819A819983888382E051C02F5F8D
:100810003F4F8B819C81820F931F9C838B83C98068
:10082000DA80EB80FC808601000F111F000F111F82
:10083000A801B701CE010E940313C8013AC02F5F7F
:100840003F4F8B819C81820F931F9C838B83C98038
:10085000DA80EB80FC80A601B701CE010E94031371
:10086000C60127C0DC01ED91FC91408114C0F980E4
:10087000FC0100811181D801FC926F2D8AE793E081
:100880000E946F0BF801408160E070E089E793E01F
:100890000E949B0A4F2D50E060E070E08BCF4AE24F
:1008A00050E060E070E086CF8FEF9FEF02C080E005
:1008B00090E0DF91CF911F910F91FF90EF90DF902B
:1008C000CF900895CF93DF93EC01CB016B817C81B6
:1008D0002A81243691F46115710579F02F813885CC
:1008E0004D815E810E94920397FF05C08EE68A8348
:1008F0001C821B8202C09C838B83DF91CF91089561
:10090000E0913E02F0913F020484F585E02D8EE3F4
:1009100092E0199580910A03882341F067E772E01D
:100920008FEF92E00E94620410920A0308950E94E1
:10093000F90D0E946003CBEDDFE00E948004209758
:10094000E1F30E94DB0FF9CF0F931F93CF93DF9357
:10095000EC018B01E881F9816F5F7F4F0280F381A9
:10096000E02D41E050E01995E881F9810280F381A2
:10097000E02D41E050E0B801CE01DF91CF911F9111
:100980000F911994EF92FF920F931F93CF93DF93E0
:10099000CDB7DEB762970FB6F894DEBF0FBECDBFFE
:1009A0008C018BE0FB01DE01119601900D928A957E
:1009B000E1F71B861A86E12CF12C2C813D818A857A
:1009C0009B85E216F30668F4E885F985EE0DFF1DB8
:1009D00060810E947F0A9B878A878FEFE81AF80A56
:1009E000ECCF0E94970A9B878A874CE75CE76CE70D
:1009F00070E04C875D876E877F87D801ED91FC9111
:100A00000280F381E02D43E050E0BE01645F7F4F40
:100A1000C8011995BE016F5F7F4FC8010E94A404F1
:100A20008B818A8BD801ED91FC910280F381E02DBE
:100A300041E050E0BE016E5E7F4FC80119958B8189
:100A40008436F9F48C819D81998B888BBE01605F1F
:100A50007F4FC8010E94A4044C815D81411551055E
:100A600051F0D801ED91FC91688579850280F38180
:100A7000E02DC8011995BE01665F7F4FC8010E9435
:100A8000A40462960FB6F894DEBF0FBECDBFDF910F
:100A9000CF911F910F91FF90EF9008950F931F93A7
:100AA000CF93DF938B01FC01C681D7816A817B8163
:100AB000C8010E946204B80188819981DF91CF91B9
:100AC0001F910F910C94C2040F931F93CF93DF9348
:100AD000109200031092FF02109201031092030380
:100AE0001092020310920503109204031092070360
:100AF000109206030FEF1FEF1093090300930803F2
:100B00008AE08093FA02C9E7D2E080E890E090930F
:100B1000FC028093FB028AE792E09093FE028093AE
:100B2000FD0260E070E089E793E00E94980A888304
:100B3000682F8AE793E00E946F0BD0937802C093EE
:100B4000770210926D0210926C0210926E02109257
:100B5000700210926F021092720210927102109243
:100B60007402109273021093760200937502AAE445
:100B7000B2E01C9210924B02109257021092560251
:100B8000109259021092580210925D0210925C026B
:100B900010925F0210925E0210926B0210926A0233
:100BA000E6E4F2E08EE394E09183808327E732E08D
:100BB0003093490220934802B0934102A09340022F
:100BC00090934302809342028BE092E090933F0225
:100BD00080933E02F0934502E0934402DF91CF916F
:100BE0001F910F9108951092780381E0809376030E
:100BF0001092750361E084E10E940F0C61E085E1D1
:100C00000E940F0CE9EBF0E080818E7F8083808171
:100C10008D7F808388E48093B80085E48093BC0056
:100C20000895880F8093BA000895613298F4209156
:100C30007803243089F460932D03FC018FE293E064
:100C4000DC012A2F281B261718F421912D93F9CFA8
:100C500080E0089581E0089582E008959093720302
:100C600080937103089590937403809373030895A0
:100C700085ED8093BC008091BC0084FDFCCF109278
:100C80007803089585EC8093BC0010927803089552
:100C90001F920F920FB60F9211240BB60F922F9343
:100CA0003F934F935F936F937F938F939F93AF93F4
:100CB000BF93EF93FF938091B900887F803609F44A
:100CC0009CC068F5883209F45BC090F4803109F467
:100CD00054C038F4882309F4F5C0883009F44DC0B5
:100CE000F5C0883109F44CC0803209F45DC0EEC013
:100CF000803409F468C048F4803309F455C088335F
:100D000009F0E4C080930B03A8C0803509F44FC0FC
:100D1000883509F45DC0883409F0D8C0D5C0883959
:100D200009F4C6C0A8F4883709F467C038F48836D7
:100D300009F463C0803709F460C0C8C0883809F47A
:100D4000B7C0803909F45FC0803809F0BFC05BC00C
:100D5000803B09F485C038F4803A09F466C0883ACB
:100D600009F47EC0B3C0803C09F4A6C0883C09F4F5
:100D7000A3C0883B09F489C0A9C08091770310C043
:100D80009091500380914F03981770F5E0915003B4
:100D900081E08E0F80935003F0E0EF5AFC4F80818A
:100DA0008093BB0085EC85C080930B038DC0E091E0
:100DB000500381E08E0F809350038091BB00F0E0E0
:100DC000EF5AFC4F80839091500380914F036DC088
:100DD000E091500381E08E0F809350038091BB001F
:100DE000F0E0EF5AFC4F80838091760381116CC054
:100DF00081E08093750384EA60C083E08093780388
:100E000010920C03CFCF80910C03803208F050C0B9
:100E1000E0910C0381E08E0F80930C038091BB0066
:100E2000F0E0E35FFC4F8083BDCF80910C03803204
:100E300030F4E0910C03F0E0E35FFC4F10820E947D
:100E4000380660910C0370E0E0917103F091720339
:100E50008DE093E0199510920C030E94420636C073
:100E600084E08093780310922E0310922D03E0917A
:100E70007303F0917403199580912D03811105C0BE
:100E800081E080932D0310922F03E0912E0381E0E7
:100E90008E0F80932E03F0E0E15DFC4F8081809304
:100EA000BB0090912E0380912D03981708F47ACF00
:100EB00085E88093BC000AC085EC8093BC0010924A
:100EC000780304C010920B030E943806FF91EF9143
:100ED000BF91AF919F918F917F916F915F914F9152
:100EE0003F912F910F900BBE0F900FBE0F901F9050
:100EF0001895FC01A489B58912961C921297149634
:100F00001C921E9213978FEF9FEF1A969C938E93CD
:100F10001997138A128A108A118A1786168611A2C7
:100F200010A28CE090E093838283178E168E089532
:100F3000AF92BF92CF92DF92EF92FF920F931F93E7
:100F4000CF93DF931F92CDB7DEB78C01611571058A
:100F500081F4CE010196D80115969C938E93149737
:100F600017969C938E93169719969C938E93189729
:100F700007C0FC01758364836F5F7F4F778366834F
:100F8000D80114962D913C91159716968D919C91B0
:100F900017972817390709F08AC16BC28E3609F4F2
:100FA00002C2813609F0D3C1D8015496ED91FC916B
:100FB0005597828381E050968C93F80184819581C6
:100FC000019695838483268137818217930709F4DC
:100FD0002AC2D8011496ED91FC91159780818C3727
:100FE00009F0B5C1D80114968D919C911597019681
:100FF00015969C938E93149716962D913C91179766
:101000008217930709F412C2D8011496ED91FC914E
:10101000159780818C3709F09AC1F80184819581F8
:10102000019695838483268137818217930709F47B
:1010300000C2D8011496ED91FC91159780818C37F0
:1010400009F085C150961C92F80184819581019622
:1010500095838483268137818217930709F4F1C130
:10106000D8015496ED91FC915597118210821496F7
:101070008D919C911597DC018C9190E091838083F8
:10108000F801848195810196958384832681378137
:101090008217930709F4D8C1D8015496ED91FC91B9
:1010A000559714968D919C911597DC018C91B08089
:1010B000A12C9501282BC90191838083D801149616
:1010C0008D919C911597019615969C938E931497EC
:1010D00016962D913C9117978217930709F4B7C183
:1010E000D8011496ED91FC9115978081843609F012
:1010F00055CFD8015496ED91FC9155978283F80114
:101100008481958101969583848326813781821716
:10111000930709F49FC1D80191961C921E92909753
:101120001D961C921E921C971496ED91FC9115979A
:10113000808190E01D969C938E931C97F80184818A
:101140009581019695838483268137818217930741
:1011500009F483C1D8011C96DC901C97C12C1D9604
:10116000DC92CE921C971496ED91FC91159780819C
:10117000F601E80FF11DCF011D96FC93EE931C972D
:101180005496ED91FC9155972581368128173907A2
:1011900018F481E051968C93D8015E96ED91FC9104
:1011A0005F97CF0101965F969C938E935E973B96D7
:1011B000EE0FFF1FE00FF11F88E090E09183808326
:1011C000F8018481958101969583848326813781F6
:1011D0008217930709F447C1D8011F961C921E92EB
:1011E0001E9753961C921E9252971C968D919C911D
:1011F0001D97892B09F45DC1D8011496ED91FC91DE
:101200001597608180E090E00E947F0AF801938B3F
:10121000828B0488F589E02D0780F085E02DD801C8
:101220001E968D919C911F979C012F5F3F4F1F969B
:101230003C932E931E9714962D913C911597D901AE
:101240002C91E80FF91F2083F801268537858485C6
:1012500095852817390709F0D8C0068CF78DE02D41
:10126000CF010197D8015F969C938E935E973A9633
:10127000EE0FFF1FE00FF11F8081918113969C9369
:101280008E931297D8011296ED91FC911397EF303F
:10129000F10508F415C1F8018481958101969583C3
:1012A0008483268137818217930709F4E2C0D8012D
:1012B0001296ED91FC9113973197EE30F10508F0FD
:1012C000B2C0ED55FF4F0C94F912D8015496ED9130
:1012D000FC915597F184E12CF286E18614968D916C
:1012E0009C911597DC018C919701280F311DC90144
:1012F00032872187D80152962D913C9153978217BE
:10130000930749F481E050968C9350971E968D91E7
:101310009C911F9719C081E0F801818B4ECED801B6
:101320001C968D919C911D975496ED91FC9155972B
:10133000258136812817390718F421E051962C931E
:1013400021E0D80150962C939483838336CEF80104
:1013500013821282C8C0D80152968D919C915397E6
:101360000E94970AF801938B828B0488F589E02DFF
:1013700012861186D80114968D919C911597DC01E7
:101380008C9190E092878187F80184819581019604
:1013900095838483268137818217930709F095CF3F
:1013A00089E090E063C0D8015496ED91FC91559787
:1013B0008283F801848195810196958384832681B7
:1013C00037818217930709F44BC0D80114968D9189
:1013D0009C911597019615969C938E93149716964B
:1013E0002D913C9117978217930709F098CF8BE0C6
:1013F00090E03CC0D8011496ED91FC911597608166
:1014000052968D919C915397FFCEF80184819581DE
:10141000019695838483268137818217930751F73C
:101420008EE090E023C08CE090E005C081E090E089
:101430001DC082E090E0D80113969C938E93129782
:1014400018C083E090E012C084E090E0F4CF85E023
:1014500090E00CC086E090E0EECF87E090E006C020
:101460008AE090E0E8CF8DE090E0E5CFF80193834B
:101470008283D80114962D913C91159718968D91E1
:101480009C9119972817390771F512968D919C91A7
:1014900013970D9741F51F961C921E921E97539617
:1014A0001C921E9252971C968D919C911D97892B90
:1014B000D1F45E96ED91FC915F97CF010197D3CE69
:1014C000EF54FF4F0C94F912F80184819581019635
:1014D00095838483268137818217930709F03BCF58
:1014E00088E090E0A8CF0F90DF91CF911F910F91EE
:1014F000FF90EF90DF90CF90BF90AF900895862738
:10150000682F62956827062E669566956025062EDB
:10151000669560256770082E892F669507946795F4
:10152000902D86270694679590258627089508951F
:10153000CB010C940C13CB01642F0C9414138091E9
:10154000AD0390E02091AE03821B91090895209194
:10155000AE038091AD03281750F4E22FF0E0E1557F
:10156000FC4F808190E02F5F2093AE0308958FEFB2
:101570009FEF0895E091AE038091AD03E81730F43A
:10158000F0E0E155FC4F808190E008958FEF9FEFF0
:1015900008950895E0918603F09187033097E1F074
:1015A0003091AE032091AD033217B0F040E0242F0C
:1015B00030E02617370754F4DC01A20FB31F5C910B
:1015C000D901A155BC4F5C934F5FF1CF1092AE0390
:1015D0006093AD03CB0119940895E0918803F091D5
:1015E0008903309729F010928C0310928B03199481
:1015F0000895CF92DF92EF92FF920F931F93CF93B4
:10160000DF937C01CB018A0120918A03222389F098
:10161000EB016B01C40ED51ECC15DD0569F0699197
:10162000D701ED91FC910190F081E02DC701199552
:10163000F3CF642F0E941506C801DF91CF911F914F
:101640000F91FF90EF90DF90CF900895CF93DF93AD
:101650001F92CDB7DEB7698320918A032223D1F090
:1016600020918B03203240F021E030E0FC013383F5
:10167000228380E090E015C080918C03E82FF0E099
:10168000E357FC4F998190838F5F80938C03809305
:101690008B0305C061E0CE0101960E94150681E032
:1016A00090E00F90DF91CF910895FC011382128298
:1016B00048EE53E060E070E04483558366837783AF
:1016C00081E292E09183808308951092AE0310929C
:1016D000AD0310928C0310928B030C94F305CF93FF
:1016E000DF93EC01862F0E9411068DEE9AE00E9496
:1016F00033068AEC9AE00E942E06CE01DF91CF914C
:101700000C94650B8AE793E00C94550B90E0FC0178
:101710003197E131F10508F048C0E054FF4F0C94D7
:10172000F912809180008F7703C0809180008F7DB7
:1017300080938000089584B58F7702C084B58F7D33
:1017400084BD08958091B0008F7703C08091B00070
:101750008F7D8093B0000895809190008F7707C0AF
:10176000809190008F7D03C080919000877F80934F
:10177000900008958091A0008F7707C08091A0000D
:101780008F7D03C08091A000877F8093A000089583
:10179000809120018F7707C0809120018F7D03C049
:1017A00080912001877F809320010895CF93DF935C
:1017B00090E0FC01E65FFD4F2491FC01E05BFD4FF2
:1017C0008491882349F190E0880F991FFC01E6532A
:1017D000FD4FA591B49180559D4FFC01C591D491C9
:1017E0009FB7611108C0F8948C91209582238C9347
:1017F000888182230AC0623051F4F8948C91322F90
:10180000309583238C938881822B888304C0F8943D
:101810008C91822B8C939FBFDF91CF9108950F9372
:101820001F93CF93DF931F92CDB7DEB7282F30E001
:10183000F901EC53FE4F8491F901E65FFD4F1491DD
:10184000F901E05BFD4F04910023C9F0882321F0EA
:1018500069830E94860B6981E02FF0E0EE0FFF1F85
:10186000E055FD4FA591B4919FB7F8948C9161110B
:1018700003C01095812301C0812B8C939FBF0F90D3
:10188000DF91CF911F910F910895CF93DF93282F70
:1018900030E0F901EC53FE4F8491F901E65FFD4F12
:1018A000D491F901E05BFD4FC491CC2391F08111FB
:1018B0000E94860BEC2FF0E0EE0FFF1FEA56FD4F63
:1018C000A591B4912C912D2381E090E021F480E04A
:1018D00002C080E090E0DF91CF910895863308F058
:1018E000865320917B00982F9870277F922B90939E
:1018F0007B0087702091060290E4299F90011124BB
:10190000822B80937C0080917A00806480937A009F
:1019100080917A0086FDFCCF80917800209179003B
:1019200090E0922B08951F93CF93DF93182FEB0134
:1019300061E00E94D60B209711F460E004C0CF3F15
:10194000D10539F461E0812FDF91CF911F910C9483
:101950000F0CE12FF0E0EC53FE4F449150E0FA0100
:101960003197E131F10508F091C0EF52FF4F0C942F
:10197000F91284B5806884BDC7BD8DC084B580620E
:1019800084BDC8BD88C0809180008068809380003D
:10199000D0938900C09388007EC0809180008062CF
:1019A00080938000D0938B00C0938A0074C0809194
:1019B000B00080688093B000C093B3006CC0809189
:1019C000B00080628093B000C093B40064C0809186
:1019D0009000806880939000D0939900C093980005
:1019E0005AC080919000806280939000D0939B00B9
:1019F000C0939A0050C080919000886080939000BE
:101A0000D0939D00C0939C0046C08091A000806848
:101A10008093A0008091A0008F7B8093A000D09342
:101A2000A900C093A80037C08091A0008062809375
:101A3000A000D093AB00C093AA002DC08091A0005D
:101A400088608093A000D093AD00C093AC0023C009
:101A500080912001806880932001D0932901C09358
:101A6000280119C080912001806280932001D093C9
:101A70002B01C0932A010FC08091200188608093C0
:101A80002001D0932D01C0932C0105C0C038D10591
:101A90000CF058CF52CFDF91CF911F9108951F9234
:101AA0000F920FB60F9211242F933F938F939F9312
:101AB000AF93BF938091D0039091D103A091D203B3
:101AC000B091D3033091CF0323E0230F2D3720F4BF
:101AD0000196A11DB11D05C026E8230F0296A11D88
:101AE000B11D2093CF038093D0039093D103A09393
:101AF000D203B093D3038091D4039091D503A091E6
:101B0000D603B091D7030196A11DB11D8093D403D4
:101B10009093D503A093D603B093D703BF91AF9111
:101B20009F918F913F912F910F900FBE0F901F901B
:101B300018952FB7F8946091D0037091D1038091DC
:101B4000D2039091D3032FBF08953FB7F8948091AB
:101B5000D4039091D503A091D603B091D70326B5B5
:101B6000A89B05C02F3F19F00196A11DB11D3FBFD5
:101B70006627782F892F9A2F620F711D811D911D65
:101B800042E0660F771F881F991F4A95D1F7089585
:101B9000CF92DF92EF92FF92CF93DF936B017C01A4
:101BA0000E94A50DEB01C114D104E104F10479F008
:101BB0000E94A50D6C1B7D0B683E7340A0F381E075
:101BC000C81AD108E108F108C851DC4FECCFDF9109
:101BD000CF91FF90EF90DF90CF90089501970097FD
:101BE00039F0880F991F880F991F02970197F1F715
:101BF0000895789484B5826084BD84B5816084BD85
:101C000085B5826085BD85B5816085BDEEE6F0E075
:101C1000808181608083E1E8F0E0108280818260D1
:101C20008083808181608083E0E8F0E08081816052
:101C30008083E1EBF0E0808184608083E0EBF0E082
:101C4000808181608083E1E9F0E08081826080832F
:101C5000808181608083E0E9F0E080818160808321
:101C6000E1EAF0E08081826080838081816080830E
:101C7000E0EAF0E0808181608083E1E2F1E0808150
:101C800082608083808181608083E0E2F1E08081F6
:101C900081608083EAE7F0E08081846080838081D6
:101CA000826080838081816080838081806880837E
:101CB0001092C1000895FC0124853585F901E05C8E
:101CC000FF4F80819181F901EE5BFF4F20813181CF
:101CD000821B930B8F7399270895FC01848595854A
:101CE000FC01E05CFF4F40815181FC01EE5BFF4F46
:101CF000208131814217530741F00190F081E02D9E
:101D0000E80FF91F808190E008958FEF9FEF08950D
:101D1000FC0184859585FC01E05CFF4F4081518189
:101D2000FC01EE5BFF4F208131814217530779F0B0
:101D3000A081B181A80FB91F8C91208131812F5FC3
:101D40003F4F2F7333273183208390E008958FEF27
:101D50009FEF0895FC0181A1882329F0A489B5890A
:101D60008C9186FFFBCF11A20895CF93DF93FC01E6
:101D700026853785D901A05CBF4F8D919C91119725
:101D800001968F739927E901CE5BDF4F4881598116
:101D900084179507D9F30D90BC91A02DA20FB31F06
:101DA0006C93A685B785A05CBF4F11969C938E93CC
:101DB000A689B7892C9181E090E0078C02C0880F3A
:101DC000991F0A94E2F7282B2C9381E081A30488C1
:101DD000F589E02D80818064808381E090E0DF914F
:101DE000CF910895FB01E05CFF4F208131812F5F8F
:101DF0003F4F2F733327DB01AE5BBF4F4D915C919B
:101E00002417350739F0A081B181A60FB71F8C9335
:101E100031832083089508951F920F920FB60F9279
:101E200011240BB60F922F933F934F935F936F93B1
:101E30007F938F939F93AF93BF93EF93FF93809183
:101E4000C00082FD07C08091C6006CE376E00E946E
:101E5000F20E02C08091C600FF91EF91BF91AF9149
:101E60009F918F917F916F915F914F913F912F91B2
:101E70000F900BBE0F900FBE0F901F9018950895F6
:101E80001F920F920FB60F9211240BB60F922F9341
:101E90003F934F935F936F937F938F939F93AF93F2
:101EA000BF93EF93FF938091C80082FD07C080919C
:101EB000CE0064EB75E00E94F20E02C08091CE006D
:101EC000FF91EF91BF91AF919F918F917F916F9112
:101ED0005F914F913F912F910F900BBE0F900FBECE
:101EE0000F901F90189508951F920F920FB60F92A2
:101EF00011240BB60F922F933F934F935F936F93E1
:101F00007F938F939F93AF93BF93EF93FF938091B2
:101F1000D00082FD07C08091D6006CE275E00E947F
:101F2000F20E02C08091D600FF91EF91BF91AF9168
:101F30009F918F917F916F915F914F913F912F91E1
:101F40000F900BBE0F900FBE0F901F901895089525
:101F50001F920F920FB60F9211240BB60F922F9370
:101F60003F934F935F936F937F938F939F93AF9321
:101F7000BF93EF93FF938091300182FD07C0809162
:101F8000360164EA74E00E94F20E02C080913601CC
:101F9000FF91EF91BF91AF919F918F917F916F9141
:101FA0005F914F913F912F910F900BBE0F900FBEFD
:101FB0000F901F9018958EE394E00E945B0E892B82
:101FC00011F00E940B0F8CE194E00E945B0E892BB4
:101FD00011F00E943F0F8AEF93E00E945B0E892B65
:101FE00011F00E94730F88ED93E00E945B0E892B25
:101FF00011F00C94A70F08951F920F920FB60F9235
:1020000011240BB60F922F933F938F939F93EF93CF
:10201000FF93209138063091390680913A069091CD
:102020003B062817390731F48091C1008F7D8093DA
:10203000C10014C0E0913A06F0913B06E850FA4F17
:10204000208180913A0690913B0601968F739927E3
:1020500090933B0680933A062093C600FF91EF9140
:102060009F918F913F912F910F900BBE0F900FBEBC
:102070000F901F9018951F920F920FB60F92112478
:102080000BB60F922F933F938F939F93EF93FF93F2
:102090002091B0053091B1058091B2059091B305C2
:1020A0002817390731F48091C9008F7D8093C900CA
:1020B00014C0E091B205F091B305E059FA4F2081C8
:1020C0008091B2059091B30501968F7399279093F3
:1020D000B3058093B2052093CE00FF91EF919F91BD
:1020E0008F913F912F910F900BBE0F900FBE0F90CD
:1020F0001F9018951F920F920FB60F9211240BB6D6
:102100000F922F933F938F939F93EF93FF93209181
:1021100028053091290580912A0590912B052817D3
:10212000390731F48091D1008F7D8093D10014C0A4
:10213000E0912A05F0912B05E851FB4F2081809119
:102140002A0590912B0501968F73992790932B0563
:1021500080932A052093D600FF91EF919F918F9154
:102160003F912F910F900BBE0F900FBE0F901F90BD
:1021700018951F920F920FB60F9211240BB60F9263
:102180002F933F938F939F93EF93FF932091A004FE
:102190003091A1048091A2049091A30428173907DB
:1021A00031F4809131018F7D8093310114C0E09131
:1021B000A204F091A304E05AFB4F20818091A20475
:1021C0009091A30401968F7399279093A304809311
:1021D000A20420933601FF91EF919F918F913F913F
:1021E0002F910F900BBE0F900FBE0F901F90189560
:1021F000CF92DF92EF92FF92CF93DF93EC016A01CF
:102200007B01411581EE580761057105F9F0EC89F4
:10221000FD8981E090E008A002C0880F991F0A9410
:10222000E2F7808360E079E08DE390E0A70196011A
:102230000E94D712215031094109510956954795FD
:1022400037952795211580E1380798F0EC89FD89AD
:10225000108260E874E88EE190E0A70196010E9488
:10226000D7122150310941095109569547953795A3
:102270002795E889F9893083EA89FB89208319A2A7
:10228000EE89FF89408181E090E09C010C8C02C0C6
:10229000220F331F0A94E2F7422B4083EE89FF8915
:1022A00040819C010D8C02C0220F331F0A94E2F77B
:1022B000422B4083EE89FF8940819C010E8C02C035
:1022C000220F331F0A94E2F7422B4083EE89FF89E5
:1022D00020810F8C02C0880F991F0A94E2F7809525
:1022E00082238083DF91CF91FF90EF90DF90CF909A
:1022F0000895CF93109241041092400488EE93E029
:10230000A0E0B0E08093420490934304A09344047F
:10231000B093450421E332E030933F0420933E0420
:102320004CE356E050934B0440934A0448EF55E089
:1023300050934D0440934C0445EC50E050934F04AF
:1023400040934E0444EC50E05093510440935004A9
:1023500040EC50E0509353044093520441EC50E061
:10236000509355044093540442EC50E0509357046A
:102370004093560446EC50E050935904409358045F
:10238000C4E0C0935A04F3E0F0935B04E7E0E09309
:102390005C0475E070935D0461E060935E041092EC
:1023A0001F0410921E048093200490932104A09394
:1023B0002204B093230430931D0420931C0444EBA7
:1023C00055E0509329044093280440E755E050938A
:1023D0002B0440932A044DEC50E050932D0440937D
:1023E0002C044CEC50E050932F0440932E0448EC06
:1023F00050E0509331044093300449EC50E0509346
:102400003304409332044AEC50E050933504409337
:1024100034044EEC50E05093370440933604C0939C
:102420003804F0933904E0933A0470933B046093CA
:102430003C041092FD031092FC038093FE039093E2
:10244000FF03A0930004B09301043093FB03209397
:10245000FA034CE255E0509307044093060448EE1B
:1024600054E0509309044093080445ED50E0509324
:102470000B0440930A0444ED50E050930D04409344
:102480000C0440ED50E050930F0440930E0441EDD6
:1024900050E0509311044093100442ED50E05093EB
:1024A00013044093120446ED50E0509315044093FA
:1024B0001404C0931604F0931704E0931804709367
:1024C000190460931A041092DB031092DA038093CC
:1024D000DC039093DD03A093DE03B093DF0330931E
:1024E000D9032093D80384EA94E09093E503809382
:1024F000E40380E694E09093E7038093E60385E3AA
:1025000091E09093E9038093E80384E391E0909352
:10251000EB038093EA0380E391E09093ED038093D3
:10252000EC0381E391E09093EF038093EE0382E369
:1025300091E09093F1038093F00386E391E0909310
:10254000F3038093F203C093F403F093F503E09355
:10255000F6037093F7036093F803CF910895CF9239
:10256000DF92EF92FF920F931F93CF93DF936C0153
:102570007A01EB01E60EF71E00E010E0CE15DF0554
:1025800061F06991D601ED91FC910190F081E02D0F
:10259000C6011995080F191FF1CFC801DF91CF911E
:1025A0001F910F91FF90EF90DF90CF900895A1E2DF
:1025B0001A2EAA1BBB1BFD010DC0AA1FBB1FEE1FBD
:1025C000FF1FA217B307E407F50720F0A21BB30B08
:1025D000E40BF50B661F771F881F991F1A9469F784
:1025E00060957095809590959B01AC01BD01CF01E0
:1025F0000895EE0FFF1F0590F491E02D19940790B8
:10260000F691E02D1994FB01DC0102C001900D92BE
:1026100041505040D8F70895F999FECF92BD81BD41
:10262000F89A992780B50895262FF999FECF1FBAF9
:1026300092BD81BD20BD0FB6F894FA9AF99A0FBEEB
:0826400001960895F894FFCF04
:102648000000A4082000010000000086027A02A20F
:1026580002A7028D02950211034E05A10200000097
:1026680000260BF90A9F0AA70ABA0AC90A0000003D
:0E26780000B50EAF125B0E880E6D0EAA0E009E
:00000001FF
