:100000000C94AA000C94D2000C94D2000C94D20050
:100010000C94D2000C94D2000C94D2000C94D20018
:100020000C94D2000C94D2000C94D2000C94D20008
:100030000C94D2000C94D2000C94D2000C94D200F8
:100040000C94D1250C94D2000C944D270C9490273D
:100050000C94D2000C94D2000C94D2000C94D200D8
:100060000C94B40E0C94D200132127213D21592168
:100070007D21A721C621FD21A8203722D220F520ED
:1000800058227222FD2001211B2131214D216B219B
:100090009B21BA21E22216222B223722E9204C2270
:1000A0007D22687474703A2F2F6769746875622EA8
:1000B000636F6D2F776865656C65722D6D6963720E
:1000C0006F666C7569646963732F64656D6F5F72C9
:1000D00070632E67697400302E3500576865656C53
:1000E0006572204C61620064656D6F5F72706300C1
:1000F000302E390000000007000201000003040652
:1001000000000000000000000102040810204080F0
:100110000102040810200102040810200404040451
:1001200004040404020202020202030303030303A1
:100130000000000023002600290000000000250028
:1001400028002B0000000000240027002A001F07C1
:10015000A11A4C2811241FBECFEFD8E0DEBFCDBFBF
:1001600013E0A0E0B1E0E4E6F3E502C005900D92F3
:10017000A837B107D9F716E0A8E7B3E001C01D9290
:10018000AC3EB107E1F711E0C4E5D1E004C022972D
:10019000FE010E941729CE34D107C9F70E948F0DA6
:1001A0000C94B0290C94000081E0FB014081518146
:1001B00062817381452B462B472B09F480E008951B
:1001C000FB0180819181A281B3818034F8E39F0794
:1001D000A105B10509F44CC030F5803BE4E09E0771
:1001E000A105B10509F444C060F48C3221E0920706
:1001F000A105B105E9F188359240A105B105D1F518
:1002000037C0803CF2E19F07A105B10589F1803834
:1002100025E29207A105B10559F180369940A10563
:10022000B10541F525C08231FAE79F07A105B10567
:10023000F9F060F48115EBE49E07A105B105C1F06A
:1002400080389047A105B105A9F412C0811521EEAF
:100250009207A105B10561F08115E2EC9E07E1E08E
:10026000AE07B10529F081159649A105B10511F434
:1002700081E0089580E00895CF93C1E023EC35EF4D
:1002800048E450E4FB0160817181828193810E9486
:10029000EF2818160CF0C0E08C2FCF910895FB01C9
:1002A0004081518162817381465051096109710910
:1002B00081E04A3F53406105710508F080E00895F0
:1002C00040E850E060E070E0BC0169587E4FCB012F
:1002D000BA01089502970C94600104970C94600190
:1002E000E091EC04F091ED040280F381E02DBC017B
:1002F0008CEE94E00994FC018789908D892B59F04C
:10030000818D928D892B51F0838D948D892B91F461
:1003100082E090E005C080E090E002C081E090E0E3
:10032000DC01AA0FBB1FAE0FBF1F58967C936E93C4
:10033000579708958FEF0895FC018789908D892B39
:1003400039F0818D928D892B79F481E090E002C0A3
:1003500080E090E0DC01AA0FBB1FAE0FBF1F5896D4
:100360007C936E93579708958FEF08957F928F92A5
:100370009F92AF92BF92CF92DF92EF92FF920F9334
:100380001F93CF93DF937C01EB01942E8C016C01C2
:1003900084E0C80ED11C712C812C5701A2E0AA0E5A
:1003A000B11C0C151D05C9F09920A1F0F801878931
:1003B000908D009779F0DC01ED91FC91D701569674
:1003C0004C9150E00480F581E02D9E01B501099526
:1003D000811111C00E5F1F4FE4CF711023C0EA815D
:1003E000FB8181818F708730E9F08824839491109C
:1003F00019C0812C17C0F8018789908DDC01ED911F
:10040000FC91AA81BB8114962C9130E04C895D89C6
:10041000688579850280F381E02D0995882E7724FF
:100420007394D8CF882DDF91CF911F910F91FF90BA
:10043000EF90DF90CF90BF90AF909F908F907F9084
:1004400008957F928F929F92AF92BF92CF92DF9248
:10045000EF92FF920F931F93CF93DF937C01EB01F9
:10046000942E8C016C0186E0C80ED11C712C812C5D
:100470005701A2E0AA0EB11C0C151D05C9F0992068
:10048000A1F0F8018789908D009779F0DC01ED915A
:10049000FC91D70156964C9150E00480F581E02DF7
:1004A0009E01B5010995811111C00E5F1F4FE4CF68
:1004B000711023C0EA81FB8181818F708730E9F060
:1004C00088248394911019C0812C17C0F801878962
:1004D000908DDC01ED91FC91AA81BB8114962C9149
:1004E00030E04C895D89688579850280F381E02D53
:1004F0000995882E77247394D8CF882DDF91CF91DA
:100500001F910F91FF90EF90DF90CF90BF90AF9031
:100510009F908F907F900895623010F08FEF089534
:10052000FC01E60FF11D42830895623010F08FEF59
:100530000895FC01E60FF11D42830895623010F02A
:100540008FEF0895FC01E60FF11D42830895CF92CD
:10055000DF92EF92FF92FB01608171818281938132
:100560006B017C01A8E0CA1AD108E108F108A0E7F4
:10057000CA16D104E104F10430F48FED95E00E9435
:10058000591A81E005C0208331834283538380E080
:10059000FF90EF90DF90CF900895FC0182819381CE
:1005A0000C94EF1FCF93DF93EC010E94CD021C82CD
:1005B000DF91CF9108952430310561F4DC01ED9194
:1005C000FC91DA012D913D914D915C910680F7816E
:1005D000E02D099480E00895CF93DF93FC01452B33
:1005E00039F4E901AA81BB8181E022819C91291320
:1005F00080E0DF91CF9108952430310561F4DC0172
:10060000ED91FC91DA012D913D914D915C91068027
:10061000F781E02D099480E00895CF93DF93FC01EA
:10062000452B39F4E901AA81BB8181E022819C91AB
:10063000291380E0DF91CF9108952430310561F4D2
:10064000DC01ED91FC91DA012D913D914D915C9190
:100650000680F781E02D099480E00895CF93DF9321
:10066000FC01452B39F4E901AA81BB8181E022819B
:100670009C91291380E0DF91CF9108950F931F93F0
:10068000CF93DF938C01EB01BC01CE010E945E2968
:10069000C8010E946529AC01BE01CB01BA01DF91FE
:1006A000CF911F910F9108950F931F93CF93DF93D5
:1006B000EC011A86198600E010E02B813C818985C7
:1006C0009A850217130760F4EF81F885E00FF11F98
:1006D00060810E94D61F9A8789870F5F1F4FEDCFD9
:1006E0000E94EE1F9A878987DF91CF911F910F910A
:1006F00008958F929F92AF92BF92CF92DF92EF9226
:10070000FF920F931F93CF93DF93EC018BE091E067
:100710009983888381E191E09B838A8387E191E0DB
:100720009D838C838E010B5E1F4F1BA61DA61CA6EE
:100730001FA61EA619AA18AA81E791E09E8B8D8B91
:1007400085E391E09BAB8AABEE24E394ECAA81E4D1
:1007500091E09EAB8DAB32E0F32EFFAA8DE491E0E9
:1007600099AF88AF83E08AAFBE016E5C7F4FC8014E
:100770000E947B01ED89FE89BE016B5C7F4F028088
:10078000F381E02DC8010995ED89FE89BE01685C01
:100790007F4F0280F381E02DC80109951CAE1BAE8E
:1007A0001EAE1DAEFE01FF968BE393E09183808326
:1007B0008E01055B1F4FFE01EF59FF4F1082D801DC
:1007C00058961C921E9257975A961C921E925997B1
:1007D00089E791E08D939C93FE01EA59FF4F89E5EB
:1007E00091E091838083E282FE01E759FF4F85E625
:1007F00091E091838083F282B801655E7F4FC801EA
:100800000E949C01D801ED91FC91B801625E7F4F7E
:100810000280F381E02DC8010995FE01E459FF4FE4
:100820001182108213821282FE01EF5BFF4F83E27E
:1008300093E090AB87A7FE01EE53FF4F1182108229
:1008400012821482138288248A94982C928681863C
:1008500050E5A52EB12CB682A582CE018E589F4FB1
:10086000908787838E0103531F4FD8011C921196E6
:100870001C9211971D961C921E921C971F961C92FB
:100880001E921E9753961C921E92529791961C92FE
:100890001E9290975596FC93EE935497C8010E9430
:1008A000EF1F7E01BFEEEB0EF11C6DE1C62E61E085
:1008B000D62EF701D182C08213830283C7010E9422
:1008C000CD0285E291E0D7018D939C93FE01ED501E
:1008D000FF4F8EE396E091838083FE01EB5BFE4F3A
:1008E0001182108212821482138292868186B682CD
:1008F000A582CE018B509F4F908787838E01005B2E
:100900001E4FD8011C9211961C9211971D961C9295
:100910001E921C971F961C921E921E9753961C9215
:100920001E92529791961C921E9290975596FC9308
:10093000EE935497C8010E94EF1F7E01BEE8EB1AA8
:10094000BEEFFB0AF701D182C08213830283C70185
:100950000E94CD028DE291E0D7018D939C93FE0120
:10096000EA58FE4F1082C7010E94D20281E891E04E
:100970009983888387E891E09B838A838DE891E05F
:100980009D838C83DF91CF911F910F91FF90EF900A
:10099000DF90CF90BF90AF909F908F9008958AE79F
:1009A00093E00E94662460E771E08FED95E00C947F
:1009B0009C1ADC01ED91FC910280F381E02D41E075
:1009C00050E009940F931F93CF93DF93EC018B01B9
:1009D000E881F9816F5F7F4F0280F381E02D41E074
:1009E00050E00995E881F9810280F381E02D41E032
:1009F00050E0B801CE01DF91CF911F910F91099482
:100A00000F931F93CF93DF93EC018B01E881F98162
:100A10006F5F7F4F0280F381E02D41E050E0099548
:100A2000E881F9810280F381E02D41E050E0B801D6
:100A3000CE01DF91CF911F910F910994EF92FF9218
:100A40000F931F93CF93DF93CDB7DEB72A970FB6DF
:100A5000F894DEBF0FBECDBF8C01FC01E7A8F0AC5F
:100A600045A956A9B701CE0101960E94B81AF8010E
:100A700061AD72ADA801CE0101960E94531E88237C
:100A800019F02F81388504C0E12CF12C20E030E0F2
:100A9000B901C7012A960FB6F894DEBF0FBECDBFCD
:100AA000DF91CF911F910F91FF90EF900895CF921A
:100AB000DF92EF92FF920F93CF93DF93CDB7DEB724
:100AC00028970FB6F894DEBF0FBECDBFDC01CB0177
:100AD0006A017901BC01CD010E94231229833A8366
:100AE0004B835C836D837E838F839887F60160815F
:100AF0007181A701CE010196002319F00E947017A1
:100B000002C00E94001628960FB6F894DEBF0FBEF2
:100B1000CDBFDF91CF910F91FF90EF90DF90CF90FD
:100B20000895EF92FF920F93CF93DF93CDB7DEB787
:100B300061970FB6F894DEBF0FBECDBF7C01FC01FC
:100B400081AD92AD998B888B01E09E012F5F3F4F65
:100B5000AE01405F5F4F60E070E0CB010E9457053F
:100B60008FE0FE013196D70101900D928A95E1F751
:100B700061960FB6F894DEBF0FBECDBFDF91CF9167
:100B80000F91FF90EF900895CF92DF92EF92FF9236
:100B90000F931F93CF93DF93CDB7DEB769970FB64F
:100BA000F894DEBF0FBECDBF8C017B016901CE0181
:100BB00001960E94D618882309F4ADC0A601B7019A
:100BC000CE010D960E94D618882309F4A4C0EB81AB
:100BD000FC812181822F807C09F092C0207320311A
:100BE00031F4EB85FC858081882339F00CC02032FC
:100BF00021F4EB85FC85C08008C0CC24C39422235B
:100C000021F0C12C02C0CC24C394D801ED91FC91F9
:100C10000190F081E02D4C2DBE016F5F7F4FC80128
:100C2000298F09958823D9F0EB81FC81448150E01C
:100C300069857A858D899E890E946E29298D20314A
:100C400031F4EB85FC858081EF89F88D07C0203277
:100C500031F4EF89F88DAB85BC858C918083CC20F5
:100C600009F44EC0AB81BC8111968C9111978F70A5
:100C7000873009F045C0EB85FC858081EF89F88DD0
:100C80008083F8012689822F90E0FC013196EE0FD7
:100C9000FF1FEE0FFF1FE00FF11FB183A083FC01C8
:100CA000EE0FFF1FEE0FFF1FE00FF11F89819A81EA
:100CB000938382832F5FD80156962C93E12CF12CDD
:100CC000D12CEC14FD04C4F4EB81FC8184818E9D55
:100CD000802D112490E02D893E89280F391F4985E8
:100CE0005A85480F591F66817781C8010E94C40543
:100CF000BFEFEB1AFB0AE5CFF80186898150868B9E
:100D0000CE0101960E94F618882329F0CE010D9697
:100D10000E94F61859CF69960FB6F894DEBF0FBE41
:100D2000CDBFDF91CF911F910F91FF90EF90DF909A
:100D3000CF9008954F925F926F927F92AF92BF9241
:100D4000CF92DF92EF92FF920F931F93CF93DF9397
:100D5000CDB7DEB761970FB6F894DEBF0FBECDBF3B
:100D60007C016C0189E3C80ED11CF701A5A8B6A8C7
:100D700007A910AD42E050E060E070E0CE010196BE
:100D80000E947E2949815A81A416B50640F062E08E
:100D900070E0C8010E947E2989819A8104C000E028
:100DA00010E080E090E00115110521F4C7010E94D8
:100DB00091050BC02C01380100E09701A601C30189
:100DC000B2010E945705882389F3F701C7A8D0AC68
:100DD00081AD92AD998B888B01E09E012F5F3F4FD3
:100DE000AE01405F5F4F60E070E0CB010E945705AD
:100DF0008FE0FE013196D60101900D928A95E1F7C0
:100E0000F70161AD72AD15A29601A701C7010F965A
:100E10000E94C40561960FB6F894DEBF0FBECDBF29
:100E2000DF91CF911F910F91FF90EF90DF90CF90C6
:100E3000BF90AF907F906F905F904F9008958AE73A
:100E400093E00E9479038AE793E09093790380937B
:100E500078030895CF93DF93E0916904F0916A04D9
:100E6000C281D3818EE396E00E94B626BC0189E65A
:100E700094E0FE01DF91CF910994BF92CF92DF926F
:100E8000EF92FF920F931F93CF93DF931F92CDB7F3
:100E9000DEB78C017B018FED95E00E949119B82E91
:100EA00081E0E81AF108F8018481811101C0B4825F
:100EB000C12CD12CCE14DF04A4F48FED95E00E9458
:100EC00091198983F8018481B81207C0BE016F5F50
:100ED0007F4F828193810E940E20FFEFCF1ADF0A9D
:100EE000E9CF0F90DF91CF911F910F91FF90EF907D
:100EF000DF90CF90BF900895EF92FF920F931F93D2
:100F0000CF93DF93CDB7DEB763970FB6F894DEBF0C
:100F10000FBECDBF8C012B8B1A8219828FEF9FEFF2
:100F20009B878A872B835F834E83798768875D835E
:100F30004C83CE0101960E9454038CE79CE7ACE7FA
:100F4000B0E08C879D87AE87BF878091BA00869579
:100F50008A8BF80160818FED95E00E947C1ABE01BA
:100F60006E5E7F4F8FED95E00E94D90443E050E024
:100F7000BE01645F7F4F8FED95E00E94E319BE01D3
:100F80006F5F7F4F8FED95E00E94E204BE016D5EC2
:100F90007F4F8FED95E00E94D9048C819D81998BC4
:100FA000888BBE01605F7F4F8FED95E00E94E20469
:100FB0008FED95E00E94991AEC80FD80E114F10418
:100FC00061F1F0E2EF16F10418F0BFE1EB2EF12C25
:100FD000F80160818FED95E00E947C1ABE016E5E83
:100FE0007F4F8FED95E00E94D90468857985A70130
:100FF0008FED95E00E94E3198FED95E00E94991A1C
:10100000888599858E0D9F1D998788878C819D8104
:101010008E199F099D838C83CFCFF80160818FED5E
:1010200095E00E947C1ABE016E5E7F4F8FED95E0C9
:101030000E94D904BE01665F7F4F8FED95E00E944C
:10104000E2048FED95E00E94991A63960FB6F8942A
:10105000DEBF0FBECDBFDF91CF911F910F91FF90EB
:10106000EF9008958F929F92AF92BF92CF92DF92AE
:10107000EF92FF920F931F93CF93DF93CDB7DEB71D
:1010800066970FB6F894DEBF0FBECDBFFC01DB0143
:1010900079018C91873409F496C208F092C08D30A2
:1010A00009F4D8C1E8F5863009F497C1C8F4823054
:1010B00009F479C170F4882309F455C1813009F02D
:1010C00026C40E941B26F701608371838283938369
:1010D00067C1833009F471C1853009F44DC117C46B
:1010E000893009F487C170F4873009F47EC18830F3
:1010F00009F00DC412966C91129711968C910E9472
:10110000F6240AC48B3009F47AC108F08AC1129619
:101110006C91129770E011968C910E947225FCC31D
:10112000813209F4E3C1B0F5803109F4B6C198F415
:101130008E3009F4A5C18F3009F0E9C38081918117
:10114000DC01ED91FC910190F081E02D0995BC014D
:1011500087EE90E0C8C1823109F4B9C108F4AAC190
:10116000803209F0D4C39B012F5F3F4F15968D91BC
:101170009C911697820F931F16969C938E931597AA
:1011800011966D917C91129713964D915C911497E5
:10119000F894A0C2833409F4D2C148F4813409F42C
:1011A000C2C1823409F0B3C380E290E0C4C1853487
:1011B00009F4F8C108F0FDC18FED95E00E9489198E
:1011C00056C3823C09F43DC308F08FC0833809F44C
:1011D00085C208F051C0803809F45BC208F040C0F5
:1011E000883409F422C2803609F091C39B012F5F35
:1011F0003F4F14968D919C911597820F931F1596D2
:101200009C938E9314971196FC90119700811181F5
:1012100012964D915D916D917C9115976801FEE854
:10122000CF1AFEEFDF0AC6014B8B5C8B6D8B7E8B7A
:101230000E94D202C8018A589E4FDC01FC9224E62B
:101240004B895C896D897E890E947C070E941B26E0
:101250004B015C017801BCE8EB1ABEEFFB0A0CC243
:10126000813809F41CC2823809F051C38081918110
:1012700006960E94910550C3813A09F469C260F54F
:10128000843809F431C2803A09F041C300811181E8
:101290000F5B1F4FF801C7A4D0A860E070E080E0AA
:1012A00090E00E9423122B873C874D875E876F87D3
:1012B000788B898B9A8BAE014F5F5F4FB601CE0161
:1012C0000B960E9470178AE0FE013196D8010190BA
:1012D0000D928A95E1F720C3803C09F4A3C208F07F
:1012E000ABC2823A09F459C212C3893C09F4F6C26E
:1012F000F0F4853C09F4DAC268F4833C09F4BDC219
:10130000843C09F004C311966C91808191810E9404
:10131000FD2202C3873C09F4D7C208F0DAC201906B
:10132000F081E02D87819085A185B28534C08C3C09
:1013300009F4DEC258F48A3C09F4D5C28B3C09F0AA
:10134000E6C282E290E0A0E0B0E025C08E3C09F465
:10135000D9C208F4D2C28F3C09F0D9C282E890E029
:10136000A0E0B0E018C00E942726D7016D937D93BE
:101370008D939C93139714C02091E8063091E90651
:101380008DB79EB72115310529F58C5E9640AA27A9
:1013900097FDA095BA2FF70180839183A283B38331
:1013A00004E010E0BBC211968D919C9112970097BA
:1013B00009F4B2C20E947026AFC211966D917C9161
:1013C00012976115710509F4A7C280E090E00E94B0
:1013D0004A26A2C2821B930BDACF12966C91129707
:1013E00011968C910E94BD2497C211968C910E94F7
:1013F0002C25DCC011968C910E94552538C29B018A
:101400002F5F3F4F13968D919C911497820F931FDE
:1014100014969C938E93139711968D919C9112978D
:101420008AC09B012F5F3F4F13968D919C9114971B
:10143000820F931F14969C938E93139711960D9180
:101440001D912D913C9114977901000F111F000FF0
:10145000111F64C29B012F5F3F4F13968D919C918A
:101460001497820F931F14969C938E931397119643
:101470008D919D910D90BC91A02D8C017D014EC24E
:1014800080819181DC01ED91FC910190F081E02D52
:101490000995BC0180EF90E026C080819181DC013C
:1014A000ED91FC910190F081E02D0995BC018BED4F
:1014B00090E019C080819181DC01ED91FC91019057
:1014C000F081E02D0995BC0187ED90E00CC0808192
:1014D0009181DC01ED91FC910190F081E02D099565
:1014E000BC0182EA90E00E943E03DDC113960D919B
:1014F0001C9114971196CD90DC9012978081918168
:10150000DC011296ED91FC9113970190F081E02D92
:1015100002960995DC01CB017D01A801B601CD0140
:101520000E947E29FBC18091BA008695F7018083D5
:1015300001E010E0F3C1D7018D939C939BC18081A2
:101540009181DC011496ED91FC9115970190F08149
:10155000E02D049609956B017C0118E0912E00E0C6
:1015600010E058010C151D0508F0D8C1692D8FED4C
:1015700095E00E947C1A8FED95E00E94991A8111E6
:101580000CC00F5F1F4FF701EA0DFB1D908261E059
:1015900070E080E090E00E944A269394B8E79B12A6
:1015A000E0CFBCC18FED95E00E949119D7018C93DB
:1015B000BFCF12964C91129711966C918FED95E0DA
:1015C0000E94791AB3CF12961C9112971196DC9053
:1015D00080819181DC011496ED91FC911597019029
:1015E000F081E02D04960995082FB92EE82EF92EEA
:1015F000412F6D2D8FED95E00E94791AA02EC02EFF
:10160000DB2C0C2D0A198FED95E00E948919892B8E
:1016100031F08FED95E00E949119011710F010E064
:101620007DC1F60181936F01ECCFCB010196149639
:101630000D911C911597080F191F15961C930E9369
:1016400014971296CD90DC90139711966C918FEDB4
:1016500095E00E947C1AA601B8018FED95E00E94EA
:10166000E3198FED95E00E94991A56C1D701ED91CB
:10167000FC918089811167C10E941B266819790934
:101680008A099B09683873418105910508F05BC19F
:10169000EDCF8081918106960E949A063DC180819E
:1016A000918106960E941E05009709F435C16B874B
:1016B0007C878D879E87F89442E050E060E070E080
:1016C000CE010B960E948E294B855C8562E070E00E
:1016D0008D859E850E948E2978941EC1808191817E
:1016E00006960E941E05DFC09B012F5F3F4F139699
:1016F0008D919C911497820F931F14969C938E93B7
:101700001397C080D18011966D917D918D919C91A0
:101710001497F601A5ACB6AC4601FFE38F0E911C01
:1017200001E09501A4010E945705182F882369F054
:10173000D4016D917C91F60113A696012A5F3F4F6B
:10174000A501C60145960E94C405D7011C93F0CEA1
:1017500000811181F801E259FF4FE080F180F8012A
:10176000E459FF4F40815181B701CE0101960E949B
:10177000B81AA8014F5B5F4FF801E059FF4F608135
:101780007181CE0101960E94531E882319F00F81AA
:101790001885C4C0E12CF12CBFC09B012F5F3F4FC7
:1017A00013964D915C911497420F531F14965C93BE
:1017B0004E931397C080D18011966D917D918D913C
:1017C0009C91149786010F5B1F4FD8019D96AD9099
:1017D000BC909E97CA010E94231229833A834B83AF
:1017E0005C836D837E838F839887F601E059FF4F7A
:1017F00060817181A501CE0101960E947017982E1B
:10180000882369F0F80167A570A9F601EF59FF4F29
:1018100010829801A501C8010A960E94C405D7014B
:101820009C9286CE80819181DC01ED91FC910190AA
:10183000F081E02D099537C0808191810E94662456
:101840006BC09B012F5F3F4F13968D919C91149716
:10185000820F931F14969C938E931397D9014D91E9
:101860005D916D917C91808191810E942C23F70183
:101870009183808302E010E051C09B012F5F3F4FB6
:1018800013968D919C911497820F931F14969C939D
:101890008E931397D9014D915D916D917C918081CB
:1018A00091810E9443238B017C0138C011964D9198
:1018B0005D916D917C9114970190F081E02D4783AB
:1018C00050876187728728C081E590E0A0E0B0E092
:1018D00062CD87EF91E0A0E0B0E05DCD8BE390E0DA
:1018E000A0E0B0E058CD81E390E0A0E0B0E053CDBF
:1018F0008BE090E0A0E0B0E04ECD80E590E0A0E08D
:10190000B0E049CD83E890E0A0E0B0E044CDE12C28
:10191000F12C0FEF1FEF02C000E010E0B801C7018B
:1019200066960FB6F894DEBF0FBECDBFDF91CF91A4
:101930001F910F91FF90EF90DF90CF90BF90AF90ED
:101940009F908F900895F801EB5BFE4FE780F08445
:10195000038114810834110510F007E410E0C6017A
:101960000E94D202DBCF0F931F93CF93DF93FC0132
:10197000CB01C381D4812281243611F4209759F4FC
:1019800020E030E04FEF5FEFBA01C901DF91CF9166
:101990001F910F910895A781B0859D010581168142
:1019A000AE01BD010E943208AB019C01EDCFCF9387
:1019B000DF93CDB7DEB762970FB6F894DEBF0FBEE8
:1019C000CDBFE0916B04F0916C048089882309F409
:1019D0007EC068E773E08CE394E00E94B30C9B0147
:1019E000009711F420E030E0E4E6EA8B1A821982D5
:1019F0004FEF5FEF5B874A87EB833F832E839987A7
:101A000088873D832C83CE0101960E9454038CE786
:101A10009CE7ACE7B0E08C879D87AE87BF8780915D
:101A20006D0490916E04DC01ED91FC910280F381D4
:101A3000E02D43E050E0BE01645F7F4F0995BE0199
:101A40006F5F7F4F80916D0490916E040E9400053E
:101A500080916D0490916E04DC01ED91FC91028007
:101A6000F381E02D41E050E0BE016E5E7F4F0995AD
:101A70008B81843641F58C819D81998B888BBE0149
:101A8000605F7F4F80916D0490916E040E9400050D
:101A90004C815D814115510569F080916D049091F3
:101AA0006E04DC01ED91FC91688579850280F381FB
:101AB000E02D0995BE01665F7F4F80916D04909186
:101AC0006E040E94000589E694E00E94CD02E09138
:101AD000EE04F091EF0480898823C1F068E773E099
:101AE0008FEB94E00E94B30CAB01BC01CA016115FD
:101AF000710511F480E090E0AC0124E680EF94E001
:101B00000E947C078CEE94E00E94D20262960FB68F
:101B1000F894DEBF0FBECDBFDF91CF9108950E9434
:101B20007B260E94CF04C7E8D7E20E94D70C2097FB
:101B3000E1F30E948727F9CFCF92DF92EF92FF92D5
:101B40000F931F93CF93DF931F92CDB7DEB77C0126
:101B50006B0100E010E00C151D0584F48EE396E0A7
:101B60000E94E3268983BE016F5F7F4FF701828168
:101B700093810E940E200F5F1F4FEDCF0F90DF91DA
:101B8000CF911F910F91FF90EF90DF90CF9008952C
:101B90001092DE0581E08093DC051092DB0561E0A8
:101BA00082E10E94F62461E083E10E94F624E9EBE1
:101BB000F0E080818E7F808380818D7F808388E4C8
:101BC0008093B80085E48093BC000895880F8093CB
:101BD000BA000895413208F03FC09091DE0591119E
:101BE000FCCF91E09093DE052093DC052FEF20934E
:101BF00071051092B605240F2093B5059093DD056D
:101C00009091DD05880F892B8093DD058091DB05A0
:101C1000813041F41092DB058091DD058093BB009B
:101C200085EC01C085EE8093BC008091DE0581309B
:101C3000E1F38091B605841710F44091B60527EBC7
:101C400035E0FB01D9018A2F821B841718F48D918E
:101C50008193F9CF842F089580E008950F93413246
:101C600008F046C09091DE059111FCCF92E0909370
:101C7000DE050093DC059FEF909371051092B60589
:101C80004093B505FB0167EB75E0DB019A2F961BCE
:101C9000941718F491919D93F9CF1092DD059091CE
:101CA000DD05880F892B8093DD058091DB05813070
:101CB00041F41092DB058091DD058093BB0085EC3B
:101CC00001C085EE8093BC00222321F08091DE05C7
:101CD0008230E1F3809171058F3F61F08091710551
:101CE000803251F080917105803341F483E007C068
:101CF00081E005C080E003C082E001C084E00F9174
:101D00000895613298F42091DE05243089F46093BF
:101D10009305FC0185E995E0DC012A2F281B261795
:101D200018F421912D93F9CF80E0089581E0089572
:101D300082E008959093D8058093D70508959093F5
:101D4000DA058093D905089585ED8093BC008091D4
:101D5000BC0084FDFCCF1092DE05089585EC8093D5
:101D6000BC001092DE0508951F920F920FB60F92DD
:101D700011242F933F934F935F936F937F938F9390
:101D80009F93AF93BF93EF93FF938091B900887FA8
:101D9000803609F49CC068F5883209F45BC090F481
:101DA000803109F454C038F4882309F4F5C0883030
:101DB00009F44DC0F5C0883109F44CC0803209F4F3
:101DC0005DC0EEC0803409F468C048F4803309F483
:101DD00055C0883309F0E4C080937105A8C08035F0
:101DE00009F44FC0883509F45DC0883409F0D8C0C3
:101DF000D5C0883909F4C6C0A8F4883709F467C08B
:101E000038F4883609F463C0803709F460C0C8C06C
:101E1000883809F4B7C0803909F45FC0803809F008
:101E2000BFC05BC0803B09F485C038F4803A09F438
:101E300066C0883A09F47EC0B3C0803C09F4A6C0ED
:101E4000883C09F4A3C0883B09F489C0A9C08091EB
:101E5000DD0510C09091B6058091B505981770F515
:101E6000E091B60581E08E0F8093B605F0E0E9546D
:101E7000FA4F80818093BB0085EC85C0809371050B
:101E80008DC0E091B60581E08E0F8093B6058091FC
:101E9000BB00F0E0E954FA4F80839091B605809141
:101EA000B5056DC0E091B60581E08E0F8093B60553
:101EB0008091BB00F0E0E954FA4F80838091DC050B
:101EC00081116CC081E08093DB0584EA60C083E00F
:101ED0008093DE0510927205CFCF8091720580321B
:101EE00008F050C0E091720581E08E0F809372057A
:101EF0008091BB00F0E0ED58FA4F8083BDCF809118
:101F00007205803230F4E0917205F0E0ED58FA4F3E
:101F100010820E94A40E6091720570E0E091D705D6
:101F2000F091D80583E795E00995109272050E941B
:101F3000AE0E36C084E08093DE05109294051092B8
:101F40009305E091D905F091DA0509958091930503
:101F5000811105C081E08093930510929505E09171
:101F6000940581E08E0F80939405F0E0EB56FA4FD4
:101F700080818093BB009091940580919305981780
:101F800008F47ACF85E88093BC000AC085EC809382
:101F9000BC001092DE0504C0109271050E94A40ED0
:101FA000FF91EF91BF91AF919F918F917F916F9131
:101FB0005F914F913F912F910F900FBE0F901F9007
:101FC0001895DC011296ED91FC9113974E0F5F1F4F
:101FD00013965C934E9312976115710539F0DB01EE
:101FE000E417F50719F081918D93FACF81E00895F8
:101FF000CF93DF93CDB7DEB72C970FB6F894DEBF43
:102000000FBECDBFAB01BC01CE0101960E94D61818
:102010008823D9F1EB81FC818181982F907C21F577
:102020008073803121F4AB85BC851C9202C0803264
:1020300021F141814F7089859A852681378147300A
:1020400029F4BC01C9010E94F80F1AC0448150E074
:102050002115310521F0B9010E946E2911C060E0FF
:1020600070E00E9477290CC0903851F4E985FA8518
:10207000118210828073803219F4EB85FC85108206
:10208000CE0101960E94F618C3CF2C960FB6F89495
:10209000DEBF0FBECDBFDF91CF910895CF93DF9309
:1020A000EC018C819D81892B51F48E819F81892B3C
:1020B00021F48FE891E09F838E8380E017C0E88150
:1020C000F98141E050E0CE010995811109C02E81CE
:1020D0003F81232B91F72DE931E03F832E8306C00A
:1020E0002C813D81215031093D832C83DF91CF919B
:1020F00008957F928F929F92AF92BF92CF92DF927C
:10210000EF92FF920F931F93CF93DF931F92CDB760
:10211000DEB78C014B01BE016F5F7F4F0E944E10F6
:10212000782E8823E1F1898187FD05C0C82ED12C46
:10213000E12CF12C36C08F77C82ED12CE12CF12C5C
:1021400087E0A82EB12CBE016F5F7F4FC8010E94AF
:102150004E10882321F18981482F4F7750E060E0AD
:1021600070E00A2C04C0440F551F661F771F0A94A5
:10217000D2F7C42AD52AE62AF72A87FF12C087E0B9
:10218000A80EB11CE3E2AE16B104E9F6F8018681AF
:102190009781892B21F486EA91E097838683712CBD
:1021A00005C0F401C082D182E282F382872D0F90B4
:1021B000DF91CF911F910F91FF90EF90DF90CF9023
:1021C000BF90AF909F908F907F900895EF92FF9275
:1021D0000F931F93CF93DF93CDB7DEB760970FB602
:1021E000F894DEBF0FBECDBF8C017A016115710579
:1021F00001F5DC018D919C91815E9F40D1F0F1E170
:10220000EF16F10470F040E150E0BE016F5F7F4FC8
:10221000C8010E94E6108823F1F1E0E1EE1AF1080E
:10222000EECFA701BE016F5F7F4FC8010E94E6108D
:1022300032C0D80114968D919C9115978E159F05EB
:1022400068F416968D919C911797892B29F48FE845
:1022500091E0F8019783868380E01DC0D801ED915D
:10226000FC91A701C801099581110AC0F8012681D6
:102270003781232B89F72DE931E0378326830BC083
:10228000D80114962D913C9115972E193F0915965A
:102290003C932E93149760960FB6F894DEBF0FBE52
:1022A000CDBFDF91CF911F910F91FF90EF900895D7
:1022B000CF92DF92EF92FF920F931F93CF93DF9312
:1022C00000D000D0CDB7DEB78C016B017A01BE0122
:1022D0006F5F7F4F0E947910882309F43FC04981C6
:1022E0005A816B817C819A012F5F3F4FC901A0E029
:1022F000B0E084179507A607B70740F4F801868178
:102300009781892B51F586EB91E01AC0F601818106
:10231000807C803841F4F80186819781892BE9F42B
:1023200085EC91E00DC0F601848190E0821793075F
:1023300050F4F80186819781892B79F487ED91E03B
:10234000978386830AC0B701C8010E94E610E9811D
:10235000FA81EE0DFF1D108201C080E00F900F90FA
:102360000F900F90DF91CF911F910F91FF90EF9001
:10237000DF90CF900895CF92DF92EF92FF920F936C
:102380001F93CF93DF9300D000D0CDB7DEB78C0181
:102390007B01D42EC52EBE016F5F7F4F0E94791046
:1023A000882309F443C049815A816B817C814F3F66
:1023B00051056105710549F040F0F801868197816A
:1023C000892B99F587EE91E01FC09A012F5F3F4F4F
:1023D000C901A0E0B0E084179507A607B70740F44D
:1023E000F80186819781892B01F586EB91E00CC07D
:1023F000F7018181807C803851F4F80186819781D2
:10240000892B99F485EC91E0978386830EC0F701C0
:10241000848190E08217930780F2ED2DFC2D41938B
:10242000BF01C8010E94E61001C080E00F900F902C
:102430000F900F90DF91CF911F910F91FF90EF9030
:10244000DF90CF900895CF93DF93CDB7DEB7289775
:102450000FB6F894DEBF0FBECDBF21EE3FE03A834A
:1024600029838B839C836D837E8318861F823A81A8
:10247000AC0180E0988528960FB6F894DEBF0FBEB9
:10248000CDBFDF91CF9108953F924F925F926F92AF
:102490007F928F929F92AF92BF92CF92DF92EF92F4
:1024A000FF920F931F93CF93DF931F92CDB7DEB7A9
:1024B0005C017B01C12CD12C312C412C512C612C85
:1024C000712C812C912C10E0BE016F5F7F4FC501F4
:1024D0000E944E10E82F882309F440C0F9812F2F65
:1024E0002F7730E040E050E060E070E080E090E086
:1024F0000C2D0E941B29322A432A542A652A762A47
:10250000872A982A192BF7FF11C087E0C80ED11C23
:10251000A6E4CA16D104C1F6F50186819781892BFC
:10252000E1F486EA91E09783868317C0D7013C9255
:1025300011964C92119712965C92129713966C9288
:10254000139714967C92149715968C92159716965D
:102550009C92169717961C9301C0E0E08E2F0F9067
:10256000DF91CF911F910F91FF90EF90DF90CF906F
:10257000BF90AF909F908F907F906F905F904F90A3
:102580003F900895CF92DF92EF92FF920F931F93A7
:10259000CF93DF93CDB7DEB728970FB6F894DEBFA1
:1025A0000FBECDBF8C016B017A01BE016F5F7F4F03
:1025B0000E944412882361F1F60194819430A1F0C5
:1025C0009830E1F49981F70190839A8191839B81FE
:1025D00092839C8193839D8194839E8195839F8127
:1025E00096839885978314C009811A812B813C8139
:1025F000F70100831183228333830AC0F8018681A7
:102600009781892B21F486EF91E09783868380E080
:1026100028960FB6F894DEBF0FBECDBFDF91CF91E5
:102620001F910F91FF90EF90DF90CF900895CF9280
:10263000DF92EF92FF920F931F93CF93DF93CDB76B
:10264000DEB728970FB6F894DEBF0FBECDBF8C0162
:102650006B017A01BE016F5F7F4F0E944412882395
:10266000D9F1F60194819230E9F030F4913051F5CE
:102670009981F701908330C09430D1F0983011F5F2
:102680009981F70190839A8191839B8192839C81A8
:1026900093839D8194839E8195839F819683988562
:1026A00097831AC029813A81F7013183208314C0AE
:1026B00009811A812B813C81F701008311832283D8
:1026C00033830AC0F80186819781892B21F486EF34
:1026D00091E09783868380E028960FB6F894DEBF5A
:1026E0000FBECDBFDF91CF911F910F91FF90EF9063
:1026F000DF90CF900895AF92BF92CF92DF92EF928A
:10270000FF920F931F93CF93DF9300D000D0CDB7EC
:10271000DEB78C017B016A015901F9011082FB01CE
:102720001082FA011082118212821382BE016F5F41
:102730007F4F0E94791081110AC0F80124813581F0
:10274000232BF9F481E0F501808380E01AC0098130
:102750001A812B813C81011511052105310591F369
:10276000B901A80193E076956795579547959A9595
:10277000D1F7F60140835183628373830770F701B9
:1027800000830F900F900F900F90DF91CF911F91CA
:102790000F91FF90EF90DF90CF90BF90AF90089592
:1027A0000F931F93CF93DF9300D000D0CDB7DEB748
:1027B0008C016130B1F050F06230B1F0653019F544
:1027C00044E050E01AC0998197FF27C041E050E0F3
:1027D000BE016F5F7F4FC8010E94E6108111F3CFE9
:1027E0001CC048E050E009C0BE016F5F7F4F0E94EF
:1027F0007910882391F049815A8160E070E0C80126
:102800000E94E6100AC0FC0186819781892B21F481
:1028100088E092E09783868380E00F900F900F907E
:102820000F90DF91CF911F910F9108958F929F92FA
:10283000AF92BF92EF92FF920F931F93CF93DF93CC
:1028400000D000D0CDB7DEB78C017B01BE016F5F39
:102850007F4F0E9479108823F1F098E0F801D701AA
:1028600001900D929A95E1F749815A816B817C81A3
:10287000F70184809580A12CB12C84169506A606BC
:10288000B70658F4F80186819781892B21F48AE1F3
:1028900092E09783868380E00AC0F70155834483E2
:1028A000F80124813581241B350B358324830F9057
:1028B0000F900F900F90DF91CF911F910F91FF908C
:1028C000EF90BF90AF909F908F9008954F925F923E
:1028D0006F927F928F929F92AF92BF92CF92DF9230
:1028E000EF92FF920F931F93CF93DF93CDB7DEB795
:1028F00062970FB6F894DEBF0FBECDBF8C017A0190
:10290000FA01A281B38111962C911197822F807CBC
:10291000803409F4B0C0803809F4A4C081114FC1DB
:10292000822F8F7090E0FC01EE0FFF1FEC56FD4FE1
:10293000A080B1802073203129F0203281F0211154
:1029400082C006C0F7012285338581E0F9018083CA
:10295000F70140855185BD01C801F5012EC1F70180
:10296000C284D384623009F049C005970CF046C098
:10297000BE016F5F7F4FC8010E941614882309F4BF
:1029800027C18D819E81892B11F1F6018081D701AC
:1029900012966D917C911397FB0195818917B8F47C
:1029A000DB0114969C91F70140855185989F400D5D
:1029B000511D1124CE010196F5010995882329F0B6
:1029C000D6018C918F5F8C93DCCF80E001C081E0D9
:1029D0002B813C81D80113963C932E9312972F8123
:1029E000388517963C932E9316974D815E81452B23
:1029F00009F4EFC0232B09F0EBC014C0F7014085A8
:102A0000518514969C911497F601808115962C910E
:102A1000821758F0D80116968D919C911797892BA3
:102A200009F0D6C082E392E018C021E0280FF60139
:102A30002083989F400D511D1124D70112966D914E
:102A40007C91139789CFD80116968D919C911797F9
:102A5000892B09F0BDC081E492E017969C938E9378
:102A60001697B6C0F80186819781892B09F0B0C00E
:102A700085EC91E0ABC0408451845201B2E0AB0ED2
:102A8000B11CF20180819181892B21F4C8010E943F
:102A9000D0139FC06230A1F5BE016F5F7F4FC801A8
:102AA0000E941614882309F493C0D70112966D91E1
:102AB0007C911397D201ED91FC91A501CE01019675
:102AC000099581110BC0F80126813781232B09F06C
:102AD0007FC024E532E0378326837BC02D813E8191
:102AE000232B19F72B813C81D80113963C932E930D
:102AF00012972F81388517963C932E93169769C0AD
:102B0000613071F170F06530B9F544E050E0BE011C
:102B10006F5F7F4FC8010E94E61024E0C22ED12CC7
:102B200033C0FE0131963F01C12CD12C4301FFEF90
:102B3000CF1ADF0A8BE0C816D10409F449C041E07E
:102B400050E0B301C8010E94E610882309F440C098
:102B50009FEF691A790AD4018C9187FDE7CF16C0DF
:102B600048E050E0BE016F5F7F4FC8010E94E61051
:102B700038E0C32ED12C08C0F80186819781892BBB
:102B800039F588E092E022C0882319F181EE9FE0B8
:102B90009C878B87CE0101969E878D87D88ACF86AA
:102BA0001A8A198AD70112966D917C911397D201D6
:102BB000ED91FC91A501CE010B9609950AC0F80193
:102BC00086819781892B21F481E492E09783868323
:102BD00080E062960FB6F894DEBF0FBECDBFDF91E6
:102BE000CF911F910F91FF90EF90DF90CF90BF900A
:102BF000AF909F908F907F906F905F904F900895CF
:102C00002F923F924F925F926F927F928F929F92FC
:102C1000AF92BF92CF92DF92EF92FF920F931F93EA
:102C2000CF93DF93CDB7DEB7AA970FB6F894DEBF88
:102C30000FBECDBF7C015E0129E1A20EB11C88E070
:102C4000D5011D928A95E9F7CE010D960E94D618FE
:102C5000412C512C320122242394312CD70114967B
:102C60008D919C911597892B09F4D5C09E012B5D00
:102C70003F4FAE014F5D5F4FBE016A5D7F4FC701A1
:102C80000E947B13811104C08DA18111C4C0C1C0F9
:102C900049A15AA16BA17CA1CE010D960E944819B1
:102CA000811190C089A19AA1ABA1BCA18415950501
:102CB000A605B70508F481C0CF84D888EF85F889C8
:102CC00081818F70883009F4EDC0CE010D960E948D
:102CD000F6188F8598898C159D0581F744244A94B0
:102CE000542C320129A13AA14BA15CA12FA338A7F2
:102CF00049A75AA7241535054605570508F45DC0B0
:102D0000D70114968D909C9015971EA1ED89FE8990
:102D1000C080D180F70184819581C114D10409F468
:102D200048C08816990609F044C0F601A081B18117
:102D3000ED91FC911197309749F0012F2FA138A503
:102D400049A55AA5B601C70109952BC014966D91E6
:102D50007C911597DB018C9190E0A0E0B0E02FA171
:102D600038A549A55AA582179307A407B507D9F432
:102D7000D60112964D915C911397CE0101960E9457
:102D8000D618F601828193819A878987C6010696B3
:102D90009C878B87AE014F5F5F4F612FC7010E94F9
:102DA00066148823B1F1D6011496CD90DC90159766
:102DB000B1CF8816990609F051CF6EA1C7010E94C4
:102DC000D01325C0EF85F88981818073C9F4898982
:102DD0009A8980349105A0F4FC0163E0F695E795AB
:102DE0006A95E1F7EA0DFB1D87709927910102C0F2
:102DF000220F331F8A95E2F7C9019081982B9083A7
:102E0000AE01435F5F4F6EA1C7010E94661481113E
:102E100025CF80E04CC0C988DA88EF85F889118118
:102E2000CE010D960E94F6188111F5CF107341F472
:102E3000EF85F8899081992319F0BFEFCB1ADB0A4F
:102E4000960153E0369527955A95E1F7F501A501CE
:102E5000420F531FE417F50769F091919F3FD1F39B
:102E6000F70126813781232B11F524E632E03783E1
:102E700026831DC0F501E20FF31F608170E0F7E0CB
:102E8000CF22DD2448E050E04C195D092FEF30E0FF
:102E900002C0359527954A95E2F76217730701F747
:102EA00081E005C04080512C612C712C1BCFAA966B
:102EB0000FB6F894DEBF0FBECDBFDF91CF911F914B
:102EC0000F91FF90EF90DF90CF90BF90AF909F90C9
:102ED0008F907F906F905F904F903F902F900895CC
:102EE000EF92FF920F931F93CF93DF9300D0CDB754
:102EF000DEB78C017B01BA01C70149835A830E9466
:102F0000F80F49815A81B701C8010F900F90DF91E6
:102F1000CF911F910F91FF90EF900C940016CF92DC
:102F2000DF92EF92FF920F931F93CF93DF93CDB772
:102F3000DEB72A970FB6F894DEBF0FBECDBF8C0167
:102F40007B01FB01C680D780BE016F5F7F4F498741
:102F50005A870E94161449855A85882349F1F7013A
:102F600086819781892B51F4F80186819781892B7D
:102F7000F1F48BE792E09783868319C0F701818192
:102F80008073B601803229F4CE0101960E94701739
:102F900004C0CE0101960E9400162B813C81F801ED
:102FA000338322832F8138853783268301C080E0D5
:102FB0002A960FB6F894DEBF0FBECDBFDF91CF913A
:102FC0001F910F91FF90EF90DF90CF900895AF92F7
:102FD000BF92CF92DF92EF92FF920F931F93CF9306
:102FE000DF93CDB7DEB728970FB6F894DEBF0FBEDC
:102FF000CDBF7B01BE016F5F7F4F0E944412F82F4F
:10300000882309F45EC0E981AA80BB80CC80DD8082
:103010000E811F81B8852E2F217030E040E050E0F6
:1030200060E070E080E090E0A0E00E94522941F171
:103030002E2F3A2D4B2D5C2D6D2D702F812F9B2F18
:1030400001E00E9436292095D7012C9330951196E6
:103050003C931197409512964C9312975095139666
:103060005C931397609514966C93149770951596CE
:103070007C931597809516968C93169790951FC004
:103080002E2F3A2D4B2D5C2D6D2D702F812F9B2FC8
:1030900001E00E943629D7012C9311963C93119799
:1030A00012964C93129713965C93139714966C9305
:1030B000149715967C93159716968C9316971796DA
:1030C0009C938F2F28960FB6F894DEBF0FBECDBF0E
:1030D000DF91CF911F910F91FF90EF90DF90CF90F4
:1030E000BF90AF900895CF92DF92EF92FF920F932F
:1030F0001F93CF93DF93CDB7DEB728970FB6F89421
:10310000DEBF0FBECDBF8C016B017A01BE016F5FC8
:103110007F4F0E94E717882361F1F6019481943074
:10312000A1F09830E1F49981F70190839A8191831D
:103130009B8192839C8193839D8194839E819583BF
:103140009F8196839885978314C009811A812B816A
:103150003C81F70100831183228333830AC0F80185
:1031600086819781892B21F486EF91E0978386836E
:1031700080E028960FB6F894DEBF0FBECDBFDF917A
:10318000CF911F910F91FF90EF90DF90CF90089516
:1031900044E050E00C94E610BA010C94C81848E0E2
:1031A00050E00C94E610BA010C94CF18FC01DB013E
:1031B000718360837383628315821482578346838D
:1031C00012968C911297480F511D51874087139684
:1031D0008C911397480F511D87FD5A95538742874D
:1031E00081E09C91911101C080E00895FC01A281D1
:1031F000B3818C91882309F449C0CD01089693834B
:10320000828318968C911897811108C04681578146
:1032100060817181CF010E94D61838C014964C91FC
:103220001497842F90E011962C911197322F307CB7
:103230002073311109C0203259F415968C911597DD
:10324000849FC00111240CC0303811F482E090E05A
:10325000211106C0248135812F5F3F4F35832483A0
:103260001A962C911A97AC01420F511D80859185B9
:10327000840F951F918780871B962C91820F911D3B
:1032800027FD9A959387828781E0089580E00895CD
:10329000EF92FF920F931F93CF93DF9300D000D054
:1032A000CDB7DEB77C01DC0112960D911C9113970E
:1032B000D7011296ED91FC911397808190E0A0E0E8
:1032C000B0E084179507A607B70721F481818F70B6
:1032D000883099F4C70149835A836B837C830E94A9
:1032E000F618F7018281938149815A816B817C8133
:1032F00080179107E9F680E001C081E00F900F9000
:103300000F900F90DF91CF911F910F91FF90EF9051
:1033100008958091130690E020911406821B910974
:1033200008952091140680911306281750F4E22F77
:10333000F0E0EB5EF94F808190E02F5F2093140660
:1033400008958FEF9FEF0895E09114068091130682
:10335000E81730F4F0E0EB5EF94F808190E00895DB
:103360008FEF9FEF08950895E091EB05F091EC0544
:103370003097E1F030911406209113063217B0F027
:1033800040E0242F30E02617370754F4DC01A20F69
:10339000B31F5C91D901AB5EB94F5C934F5FF1CF26
:1033A0001092140660931306CB0109940895E091DE
:1033B000ED05F091EE05309729F01092F10510928D
:1033C000F00509940895CF92DF92EF92FF920F9348
:1033D0001F93CF93DF937C01CB018A012091EF05EE
:1033E000222389F0EB016B01C40ED51ECC15DD053F
:1033F00069F06991D701ED91FC910190F081E02D88
:10340000C7010995F3CF642F0E94810EC801DF9197
:10341000CF911F910F91FF90EF90DF90CF90089583
:10342000CF93DF931F92CDB7DEB769832091EF056D
:103430002223D1F02091F005203240F021E030E04D
:10344000FC013383228380E090E015C08091F10578
:10345000E82FF0E0EE50FA4F998190838F5F8093D0
:10346000F1058093F00505C061E0CE0101960E9450
:10347000810E81E090E00F90DF91CF910895FC01E3
:103480001382128248EE53E060E070E0448355837B
:10349000668377838AEA92E091838083089510920D
:1034A0001406109213061092F1051092F0050C9478
:1034B000C80DCF93DF93EC01862F0E94E60D87EDB8
:1034C00099E10E949F0E84EB99E10E949A0ECE0131
:1034D000DF91CF910C944F1A862F413208F040E2D1
:1034E00065E176E00E94EA0D1092140680931306BF
:1034F000089521E00C946C1A81E08093EF056093AD
:1035000012061092F1051092F00508950F93062F00
:1035100021E04091F00562EF75E0809112060E9473
:103520002E0E1092F1051092F0051092EF050F91FA
:10353000089561E00C94861A7093EC056093EB0596
:1035400008958FED95E00C943F1AFC01A281B381A0
:103550009D01240F351F33832283FB01460F571F24
:10356000E417F50719F081918D93FACF81E0089562
:10357000FC0185EA9AE1918380837383628355839A
:1035800044831782168211861086CF0108950F9307
:103590001F93CF93DF93EC018A01E881F981309783
:1035A00001F12E813F81240F351F8C819D8182176F
:1035B000930750F488859985892B21F486EB92E056
:1035C0009987888780E014C0CE010995811109C0D0
:1035D00028853985232BB1F72DE931E039872887F4
:1035E00007C08E819F81800F911F9F838E8381E012
:1035F000DF91CF911F910F9108955F926F927F920B
:103600008F929F92AF92BF92CF92DF92EF92FF92F2
:103610000F931F93CF93DF93CDB7DEB762970FB6AB
:10362000F894DEBF0FBECDBF6C01802F0B87912FAA
:103630001C87522E2D87632E3E87742E4F87852E32
:10364000588B962E698BB72F7A8B8C019801452D5C
:10365000562D672D782D892D9B2FA0E00E94522991
:1036600021F0FE0131967F0106C041E050E0BE012D
:10367000655F7F4F34C05F01AE18BF089801452DCC
:10368000562D672D782D892D9B2FA0E00E94522961
:10369000A9F0802F806881939801452D562D672DC4
:1036A000782D892D9B2F07E00E9436298901542E01
:1036B000652E762E872E982EB92FDDCF1B861C8681
:1036C0001D861E861F86188A198A1A8AF501319767
:1036D000EE0DFF1D80818F778083A501B701C601A4
:1036E0000E94C71A62960FB6F894DEBF0FBECDBF18
:1036F000DF91CF911F910F91FF90EF90DF90CF90CE
:10370000BF90AF909F908F907F906F905F90089543
:103710008F929F92AF92BF92CF92DF92EF92FF92E1
:103720000F931F93FA01DB0114962C91243059F06A
:10373000283089F480809180A280B380C480D580B5
:10374000E680F78012C080809180A280B380C12C77
:10375000D12C76010AC0FC0120853185232B61F430
:1037600026EF31E03187208707C084019501A6014B
:10377000B7010E94FD1A01C080E01F910F91FF90D8
:10378000EF90DF90CF90BF90AF909F908F90089573
:103790000F931F93CF93FA01DB0114962C912230E3
:1037A000D9F068F4213091F50081102F110F110B21
:1037B000212F312FC12FB12FA12F712F31C02430D4
:1037C000B1F0283019F50081118122813381C48143
:1037D000B581A681778124C011810081212F220F1C
:1037E000220B322FC22FB22FA22F722F19C040816D
:1037F0005181628173818A019B01770F440B542FA1
:10380000BA01C42FB42FA42F742F0AC0FC01208545
:103810003185232B59F426EF31E03187208706C00C
:103820004C2F5B2F6A2F0E94FD1A01C080E0CF91C0
:103830001F910F910895DF92EF92FF920F931F93C4
:10384000CF93DF93FC01D22EE32EF42ED52FC62F7B
:10385000B72F98014D2D5E2D6F2D7D2F8C2F9B2F17
:10386000A0E00E94522964F401E00E941B292095E7
:1038700030954095509560957095809590950AC0CB
:1038800098014D2D5E2D6F2D7D2F8C2F9B2F01E0EC
:103890000E941B2989019A01AB01BC01CF010E9442
:1038A000FD1ADF91CF911F910F91FF90EF90DF9064
:1038B00008950F931F93CF93FA01DB0114962C9177
:1038C000243059F02830C1F40081118122813381E4
:1038D000C481B581A681778119C0408151816281FF
:1038E00073818A019B01770F440B542FBA01C42FB7
:1038F000B42FA42F742F0AC0FC0120853185232BFF
:1039000059F426EF31E03187208706C04C2F5B2F1A
:103910006A2F0E941B1C01C080E0CF911F910F9164
:10392000089544E050E00C94C71ABA010C94911C1D
:1039300048E050E00C94C71ABA010C94981C8F927E
:103940009F92AF92BF92CF92DF92EF92FF920F932E
:103950001F93FC01A62F49015A01A50160E070E008
:1039600080E090E003E00E941B29022F242F0A2B05
:10397000132F352FAB01BC01CF010E94FD1A1F91FF
:103980000F91FF90EF90DF90CF90BF90AF909F90FE
:103990008F900895FB0121812F702330A9F090F0C2
:1039A000243021F0283020F462E00FC061E00DC027
:1039B000FC0120853185232B71F421E432E031872D
:1039C000208709C060E001C065E0208130E040E070
:1039D00050E00C949F1C80E008952F923F924F92EC
:1039E0005F926F927F928F929F92AF92BF92CF928F
:1039F000DF92EF92FF920F931F93CF93DF93CDB798
:103A0000DEB72B970FB6F894DEBF0FBECDBF7C019B
:103A10006B015A01DB0111963C91232F207C20344D
:103A200009F404C1203811F0211116C181E08B87FF
:103A3000832F8F7090E0FC01EE0FFF1FEF5EFC4FB5
:103A400040805180F6014381442331F0F501E40FB9
:103A5000F11D47FDFA9502C0FE013B96203849F45E
:103A6000D501AD90BC9041E0A114B10409F440E04F
:103A70004B873073303189F0303201F13111ECC0B5
:103A8000A114B10471F4F70180859185892B09F0A7
:103A9000F0C084E692E0D701E8C08081882309F471
:103AA000CCC0B601C7010E94CA1C882309F4E1C03A
:103AB000A501B601C701F2010995DCC08080912CF7
:103AC0008114910409F4B9C0203891F0D6011596FB
:103AD0002C9130E02815390558F4F701808591853F
:103AE000892B09F0C6C082EC92E091878087C1C023
:103AF00005970CF071C0D6012C9130E040E050E009
:103B000062E0C7010E949F1C882309F4B2C0F6013D
:103B100081818F70833031F43401660C771C660C20
:103B2000771C29C0843039F43401A3E0660C771C7B
:103B3000AA95E1F720C0CE0101961C018AE0D101CF
:103B40001D928A95E9F78501612C712CA801B601B7
:103B5000C101F2010995882309F48BC0D60114969E
:103B60008C91080F111DBFEF6B1A7B0A6814790442
:103B700068F36F807884830120E030E040E050E01B
:103B800060E070E0C7010E94FD1A882309F471C04B
:103B9000F70180819181892B51F4A30160E070E0ED
:103BA000C7010E94C71A882309F463C046C000E019
:103BB00010E0A501B601C701F2010995882309F4B7
:103BC00058C0D60114968C91A80EB11C0F5F1F4FE0
:103BD0000815190570F331C000E010E0B601C70107
:103BE0000E94CA1C882309F444C0F6018181982FE1
:103BF000907C9038C9F48F7090E005970297A0F4FC
:103C0000D5014D915C91B601C701F2010995882358
:103C100081F1D60114968C91A80EB11C0F5F1F4F35
:103C200008151905D8F209C0A501EDCF4E5F5F4F09
:103C3000D501ED91FC91309711F481E01BC00995FD
:103C40008111FBCFF70120853185232B99F42AEDD3
:103C500032E0318720870EC0D70118968D919C9154
:103C60001997892B31F481E492E019969C938E93F5
:103C7000189780E02B960FB6F894DEBF0FBECDBF2D
:103C8000DF91CF911F910F91FF90EF90DF90CF9038
:103C9000BF90AF909F908F907F906F905F904F906C
:103CA0003F902F900895EF92FF920F931F93CF9321
:103CB000DF93CDB7DEB72C970FB6F894DEBF0FBEFB
:103CC000CDBF7C01CE0101960E94D618811102C0A1
:103CD00081E038C06B817C81FB0181818F704985D7
:103CE0005A85883029F5FA010081118101151105E5
:103CF00021F1F801A081B1811296ED91FC91139709
:103D0000309721F0B801C70109950AC0F801428136
:103D1000538114966D917C911597C7010E94ED1CFB
:103D2000811102C080E00EC0F80104811581DECF50
:103D3000C7010E94ED1C8823A9F3CE0101960E94C1
:103D4000F618C4CF2C960FB6F894DEBF0FBECDBFC9
:103D5000DF91CF911F910F91FF90EF900895CF9237
:103D6000DF92EF92FF920F931F93CF93DF93EC01BB
:103D70006B017A018A0120E030E040E050E060E031
:103D800070E00E94FD1A882369F0A701B601CE01F8
:103D9000DF91CF911F910F91FF90EF90DF90CF9027
:103DA0000C94C71A80E0DF91CF911F910F91FF9083
:103DB000EF90DF90CF900895FB01BA0144812181FB
:103DC000207C203811F050E002C04FEF5FEF61150A
:103DD000710561F0FB0120E030E02417350741F068
:103DE000A191AA2329F02F5F3F4FF7CF20E030E0C9
:103DF000A9010C94AF1EFA01309729F440E050E07D
:103E000060E070E020C0DB0111962C911197207CBE
:103E10004081211114C0242F30E02F5F3F4F1496B2
:103E20006C9170E06217730750F4FC0120853185B6
:103E3000232B59F429EE32E03187208706C050E069
:103E4000BF016F5F7F4F0C94AF1E80E008956F92AB
:103E50007F928F929F92AF92BF92CF92DF92EF921A
:103E6000FF920F931F93CF93DF93CDB7DEB72A97BF
:103E70000FB6F894DEBF0FBECDBF7C014B013A01F7
:103E8000CE0101965C018AE0F50111928A95E9F76D
:103E9000C5010E94531E811106C029853A85F7018C
:103EA000318720875AC0CF80D884860120E030E057
:103EB00040E050E060E070E0C7010E94FD1A8823F6
:103EC00009F44AC0F701208131812115310539F407
:103ED000A60160E070E0C7010E94C71A3EC0F7016A
:103EE000868197818C0D9D1D448155814817590706
:103EF00038F480859185892B79F586EB92E02AC08C
:103F00003A832983F701828193819C838B83DE82AC
:103F1000CD8218861F821A861986A301B401C501B5
:103F20000E94531E4F815885F70126813781240F47
:103F3000351F378326832B813C8133832283298558
:103F40003A85318720874C155D0539F0232B21F404
:103F50008DEF92E09187808780E02A960FB6F894E3
:103F6000DEBF0FBECDBFDF91CF911F910F91FF90AC
:103F7000EF90DF90CF90BF90AF909F908F907F9009
:103F80006F900895FB01668177816115710551F489
:103F9000FC0120853185232B39F42BE732E0318772
:103FA000208702C00C94271F80E008958627682F81
:103FB00062956827062E669566956025062E66959D
:103FC00060256770082E892F669507946795902D58
:103FD0008627069467959025862708950895FC0105
:103FE000A489B58912961C92129714961C921E925F
:103FF00013978FEF9FEF1A969C938E931997138ABE
:10400000128A108A118A1786168611A210A28CE0D5
:1040100090E093838283178E168E0895AF92BF929D
:10402000CF92DF92EF92FF920F931F93CF93DF9384
:104030001F92CDB7DEB78C016115710581F4CE01F9
:104040000196D80115969C938E93149717969C937E
:104050008E93169719969C938E93189707C0FC0120
:10406000758364836F5F7F4F77836683D80114966F
:104070002D913C91159716968D919C911797281725
:10408000390709F057C06DC2608180E090E00E945E
:10409000D61FF801938B828B0488F589E02D078069
:1040A000F085E02DD8011E968D919C911F979C0163
:1040B0002F5F3F4F1F963C932E931E9714962D9182
:1040C0003C911597D9012C91E80FF91F2083F80135
:1040D00026853785848595852817390709F00DC20F
:1040E000068CF78DE02DCF010197D8015F969C9348
:1040F0008E935E973A96EE0FFF1FE00FF11F8081BF
:10410000918113969C938E931297D8011296ED91FC
:10411000FC911397EF30F10508F450C2F801848147
:104120009581019695838483268137818217930731
:1041300009F417C2D8011296ED91FC9113973197AB
:10414000EE30F10508F0E7C1EC5CFF4F0C94152947
:10415000D8015496ED91FC915597F184E12CF286AB
:10416000E18614968D919C911597DC018C919701B5
:10417000280F311DC90132872187D80152962D9110
:104180003C9153978217930749F481E050968C93A2
:1041900050971E968D919C911F9719C081E0F80150
:1041A000818B17C0D8011C968D919C911D975496B8
:1041B000ED91FC915597258136812817390718F420
:1041C00021E051962C9321E0D80150962C939483B2
:1041D0008383F80184819581019695838483268168
:1041E00037818217930709F496C1D8011496ED918F
:1041F000FC91159780818C3721F0F801138212828F
:10420000F0C1D80114968D919C9115970196159641
:104210009C938E93149716962D913C911797821725
:10422000930709F47BC1D8011496ED91FC91159781
:1042300080818C3711F7F8018481958101969583EF
:104240008483268137818217930709F46AC1D801D4
:104250001496ED91FC91159780818C3771F65096EC
:104260001C92F8018481958101969583848326812F
:1042700037818217930709F45CC1D8015496ED91F8
:10428000FC9155971182108214968D919C911597EF
:10429000DC018C9190E091838083F8018481958189
:1042A000019695838483268137818217930709F4C9
:1042B00043C1D8015496ED91FC91559714968D9178
:1042C0009C911597DC018C91B080A12C9501282B35
:1042D000C90191838083D80114968D919C91159783
:1042E000019615969C938E93149716962D913C915A
:1042F00017978217930709F422C1D8011496ED91FC
:10430000FC9115978081843681F08E3609F49DC02A
:10431000813609F072CFD8015496ED91FC915597F2
:10432000828381E050968C9354CFD8015496ED91BE
:10433000FC9155978283F80184819581019695833C
:104340008483268137818217930709F4FBC0D80143
:1043500091961C921E9290971D961C921E921C97ED
:104360001496ED91FC911597808190E01D969C9399
:104370008E931C97F801848195810196958384839F
:10438000268137818217930709F4DFC0D8011C9674
:10439000DC901C97C12C1D96DC92CE921C97149633
:1043A000ED91FC9115978081F601E80FF11DCF0189
:1043B0001D96FC93EE931C975496ED91FC915597A6
:1043C000258136812817390718F481E051968C939E
:1043D000D8015E96ED91FC915F97CF0101965F96B3
:1043E0009C938E935E973B96EE0FFF1FE00FF11F9D
:1043F00088E090E0918380834FC0D80152968D91E0
:104400009C9153970E94EE1FF801938B828B048836
:10441000F589E02D12861186D80114968D919C9114
:104420001597DC018C9190E092878187F801848157
:10443000958101969583848326813781821793071E
:1044400009F086CE89E090E089C0D8015496ED91BC
:10445000FC9155978283F80184819581019695831B
:104460008483268137818217930709F471C0D801AC
:1044700014968D919C911597019615969C938E9309
:10448000149716962D913C9117978217930709F070
:1044900089CE8BE090E062C0F8018481958101961D
:1044A00095838483268137818217930709F453C04B
:1044B000D8011F961C921E921E9753961C921E9214
:1044C00052971C968D919C911D971496ED91FC919D
:1044D0001597892B09F0D8CD31971596FC93EE935B
:1044E000149765C0D8011496ED91FC9115976081E1
:1044F00052968D919C915397CACDF80184819581F4
:10450000019695838483268137818217930751F71B
:104510008EE090E023C08CE090E005C081E090E068
:104520001DC082E090E0D80113969C938E93129761
:1045300018C083E090E012C084E090E0F4CF85E002
:1045400090E00CC086E090E0EECF87E090E006C0FF
:104550008AE090E0E8CF8DE090E0E5CFF80193832A
:104560008283D80114968D919C91159718962D9160
:104570003C91199782179307A1F512962D913C91C2
:1045800013972D30310569F51F961C921E921E97C8
:1045900053961C921E9252971C962D913C911D97FA
:1045A000232BF9F4019715969C938E9314975E969E
:1045B000ED91FC915F97CF01019798CDEE5BFF4F96
:1045C0000C941529F8018481958101969583848343
:1045D000268137818217930709F00FCF88E090E09A
:1045E000A2CF0F90DF91CF911F910F91FF90EF908D
:1045F000DF90CF90BF90AF900895CF92DF92EF926F
:10460000FF92CF93DF93EC01E62FC62ED12CE12C45
:10461000F12C39892A899B898C89B701A6014850D8
:10462000510961097109403751056105710548F467
:104630006E2F8FED95E00E94591A3C2D2D2D9E2D49
:104640008F2D398B2A8B9B8B8C8BDF91CF91FF9099
:10465000EF90DF90CF9008950F931F93CF93DF9348
:10466000EB018B01040F151F80E090E0C017D1070C
:1046700021F069910E94D61FF9CFDF91CF911F9150
:104680000F910C94EE1F4F925F926F927F92AF92B8
:10469000BF92CF92DF92EF92FF920F931F93CF932F
:1046A000DF93CDB7DEB7AD970FB6F894DEBF0FBE80
:1046B000CDBF2A013B01DC01ED91FC910190F0811D
:1046C000E02D09956B017C01570119821A821E8623
:1046D0001D86188A1F861C8A1B8A1AA219A21CA270
:1046E0001BA21DA21FA21EA28FEF9FEF9DA78CA74A
:1046F000D9A6C8A6FBA6EAA6CE0183969E8B8D8B73
:10470000CE0101960E94EF1F00E010E00415150590
:1047100050F4B801660D771DCE0101960E940E205F
:104720000F5F1F4FF3CF8989F50180838A898183C9
:1047300062E070E080E090E0C701AD960FB6F894BB
:10474000DEBF0FBECDBFDF91CF911F910F91FF90C4
:10475000EF90DF90CF90BF90AF907F906F905F9081
:104760004F9008954F925F926F927F92AF92BF9257
:10477000CF92DF92EF92FF920F931F93CF93DF932D
:10478000CDB7DEB7A6970FB6F894DEBF0FBECDBF8C
:104790008C01C62ED12CFC0145A856A867A870AC88
:1047A000730142E050E0B601CE0101960E947E29DD
:1047B00049815A814416550648F0B6016E5F7F4F15
:1047C000C3010E947E2969817A8104C0E12CF12C09
:1047D00060E070E0E114F10411F5F801E1ACF2AC35
:1047E00060E070E080E090E00E94231229833A8329
:1047F0004B835C836D837E838F839887AE01405F9C
:104800005F4FB701CE0101960E9470178FE0FE0145
:104810007096D80101900D928A95E1F715C0C701F5
:104820000E94231229833A834B835C836D837E83AA
:104830008F839887F80161AD72ADA801CE01019612
:104840000E940016882349F2F801E7A8F0ACC1AC39
:10485000D2AC60E070E080E090E00E9423122F8FE5
:1048600038A349A35AA36BA37CA38DA39EA3AE0137
:104870004F5F5F4FB601CE014F960E9470178FE0D9
:10488000FE013196D70101900D928A95E1F7F8016A
:1048900061AD72AD15A29701A801C8010F960E94E3
:1048A000C405A6960FB6F894DEBF0FBECDBFDF914C
:1048B000CF911F910F91FF90EF90DF90CF90BF901D
:1048C000AF907F906F905F904F900895CF93DF935C
:1048D000EC01E881F9810190F081E02D09956BAF41
:1048E0007CAF8DAF9EAFE881F9810190F081E02D22
:1048F000CE010995FE01E459FF4F608371838283E5
:10490000938360E0CE0106960E94B2234C855D85BC
:104910006E857F858EE396E00E94CB278CE08093A6
:10492000B800DF91CF910895833081F028F4813071
:1049300099F08230A1F008958630A9F08730B9F05F
:104940008430D1F4809180008F7D03C080918000FD
:104950008F7780938000089584B58F7702C084B5E7
:104960008F7D84BD08958091B0008F7703C08091C2
:10497000B0008F7D8093B0000895CF93DF9390E0D7
:10498000FC01E85FFE4F2491FC01E45EFE4F849140
:10499000882349F190E0880F991FFC01EC5BFE4FE2
:1049A000A591B491865C9E4FFC01C591D4919FB7AF
:1049B000611108C0F8948C91209582238C93888192
:1049C00082230AC0623051F4F8948C91322F3095D2
:1049D00083238C938881822B888304C0F8948C91E4
:1049E000822B8C939FBFDF91CF9108950F931F93DC
:1049F000CF93DF931F92CDB7DEB7282F30E0F901B8
:104A0000EC50FF4F8491F901E85FFE4F1491F901DA
:104A1000E45EFE4F04910023C9F0882321F06983EE
:104A20000E9494246981E02FF0E0EE0FFF1FE65C06
:104A3000FE4FA591B4919FB7F8948C91611103C07A
:104A40001095812301C0812B8C939FBF0F90DF9124
:104A5000CF911F910F910895CF93DF93282F30E0CE
:104A6000F901EC50FF4F8491F901E85FFE4FD491BA
:104A7000F901E45EFE4FC491CC2391F081110E94B4
:104A80009424EC2FF0E0EE0FFF1FE05DFE4FA591A8
:104A9000B4912C912D2381E090E021F480E002C0BC
:104AA00080E090E0DF91CF9108958E3008F08E5035
:104AB00087702091060190E4299F90011124822B98
:104AC00080937C0080917A00806480937A0080914A
:104AD0007A0086FDFCCF809178002091790090E0EB
:104AE000922B08951F93CF93DF93182FEB0161E072
:104AF0000E94BD24209711F460E004C0CF3FD1058F
:104B000039F461E0812FDF91CF911F910C94F6244D
:104B1000E12FF0E0EC50FF4FE491E330F9F048F47E
:104B2000E130B9F0E230A1F584B5806284BDC8BD42
:104B300034C0E630E9F0E73019F1E43049F580910E
:104B40008000806280938000D0938B00C0938A00A5
:104B500024C084B5806884BDC7BD1FC0809180001B
:104B6000806880938000D0938900C093880015C02E
:104B70008091B00080688093B000C093B3000DC0F6
:104B80008091B00080628093B000C093B40005C0F3
:104B9000C038D1050CF0B5CFAFCFDF91CF911F91C9
:104BA00008951F920F920FB60F9211242F933F93E7
:104BB0008F939F93AF93BF93809136069091370662
:104BC000A0913806B09139063091350623E0230FC5
:104BD0002D3720F40196A11DB11D05C026E8230F35
:104BE0000296A11DB11D2093350680933606909341
:104BF0003706A0933806B093390680913A06909113
:104C00003B06A0913C06B0913D060196A11DB11D49
:104C100080933A0690933B06A0933C06B0933D06E2
:104C2000BF91AF919F918F913F912F910F900FBEA8
:104C30000F901F9018952FB7F894609136067091D9
:104C4000370680913806909139062FBF08953FB7F7
:104C5000F89480913A0690913B06A0913C06B09161
:104C60003D0626B5A89B05C02F3F19F00196A11D52
:104C7000B11D3FBF6627782F892F9A2F620F711DB4
:104C8000811D911D42E0660F771F881F991F4A956D
:104C9000D1F70895CF92DF92EF92FF92CF93DF93F7
:104CA0006B017C010E942726EB01C114D104E104B1
:104CB000F10479F00E9427266C1B7D0B683E73403F
:104CC000A0F381E0C81AD108E108F108C851DC4F0F
:104CD000ECCFDF91CF91FF90EF90DF90CF900895D0
:104CE0000197009739F0880F991F880F991F029735
:104CF0000197F1F70895789484B5826084BD84B5F6
:104D0000816084BD85B5826085BD85B5816085BDC6
:104D1000EEE6F0E0808181608083E1E8F0E01082DF
:104D2000808182608083808181608083E0E8F0E020
:104D3000808181608083E1EBF0E08081846080830A
:104D4000E0EBF0E0808181608083EAE7F0E0808141
:104D500084608083808182608083808181608083A1
:104D60008081806880831092C1000895FC012485B1
:104D70003585F901E05CFF4F80819181F901EE5B9F
:104D8000FF4F20813181821B930B8F7399270895E8
:104D9000FC0184859585FC01E05CFF4F40815181D9
:104DA000FC01EE5BFF4F208131814217530741F038
:104DB0000190F081E02DE80FF91F808190E00895C7
:104DC0008FEF9FEF0895FC0184859585FC01E05CE1
:104DD000FF4F40815181FC01EE5BFF4F208131810B
:104DE0004217530779F0A081B181A80FB91F8C91A8
:104DF000208131812F5F3F4F2F73332731832083F1
:104E000090E008958FEF9FEF0895FC0181A1882322
:104E100029F0A489B5898C9186FFFBCF11A2089552
:104E2000CF93DF93FC0126853785D901A05CBF4F66
:104E30008D919C91119701968F739927E901CE5B13
:104E4000DF4F4881598184179507D9F30D90BC91A4
:104E5000A02DA20FB31F6C93A685B785A05CBF4F92
:104E600011969C938E93A689B7892C9181E090E04E
:104E7000078C02C0880F991F0A94E2F7282B2C9305
:104E800081E081A30488F589E02D8081806480839E
:104E900081E090E0DF91CF9108951F920F920FB6BD
:104EA0000F9211242F933F934F938F939F93EF93E0
:104EB000FF938091C00082FD1CC04091C60080918C
:104EC000E4069091E50601968F7399272091E606F6
:104ED0003091E7068217930771F0E091E406F091B4
:104EE000E506EC55F94F40839093E5068093E40680
:104EF00002C08091C600FF91EF919F918F914F91D9
:104F00003F912F910F900FBE0F901F9018958EE339
:104F100096E00E94B626892B11F00C942A0708957A
:104F20001F920F920FB60F9211242F933F938F93DE
:104F30009F93EF93FF932091A0063091A10680915B
:104F4000A2069091A3062817390731F48091C10079
:104F50008F7D8093C10014C0E091A206F091A3065A
:104F6000E05AF94F20818091A2069091A306019604
:104F70008F7399279093A3068093A2062093C6006F
:104F8000FF91EF919F918F913F912F910F900FBEC5
:104F90000F901F901895CF92DF92EF92FF92CF93D0
:104FA000DF93EC016A017B01411581EE5807610531
:104FB0007105F9F0EC89FD8981E090E008A002C05C
:104FC000880F991F0A94E2F7808360E079E08DE30F
:104FD00090E0A70196010E94F32821503109410970
:104FE00051095695479537952795211580E1380742
:104FF00098F0EC89FD89108260E874E88EE190E019
:10500000A70196010E94F328215031094109510955
:105010005695479537952795E889F9893083EA8928
:10502000FB89208319A2EE89FF89408181E090E00D
:105030009C010C8C02C0220F331F0A94E2F7422B12
:105040004083EE89FF8940819C010D8C02C0220FB4
:10505000331F0A94E2F7422B4083EE89FF89408197
:105060009C010E8C02C0220F331F0A94E2F7422BE0
:105070004083EE89FF8920810F8C02C0880F991F21
:105080000A94E2F7809582238083DF91CF91FF908D
:10509000EF90DF90CF900895109241061092400655
:1050A00088EE93E0A0E0B0E0809342069093430640
:1050B000A0934406B09345068BE693E090933F0699
:1050C00080933E0684EA96E090934B0680934A06CE
:1050D00080E696E090934D0680934C0685EC90E038
:1050E00090934F0680934E0684EC90E09093510687
:1050F0008093500680EC90E0909353068093520684
:1051000081EC90E0909355068093540682EC90E0F9
:10511000909357068093560686EC90E0909359063C
:105120008093580684E080935A0683E080935B0660
:1051300087E080935C0685E080935D0681E0809344
:105140005E0608950895CF92DF92EF92FF920F933B
:105150001F93CF93DF936C017A01EB01E60EF71EEC
:1051600000E010E0CE15DF0561F06991D601ED9108
:10517000FC910190F081E02DC6010995080F191FDF
:10518000F1CFC801DF91CF911F910F91FF90EF9068
:10519000DF90CF900895990F0008550FAA0BE0E813
:1051A000FEEF16161706E807F907C0F012161306E9
:1051B000E407F50798F0621B730B840B950B39F429
:1051C0000A2661F0232B242B252B21F408950A268F
:1051D00009F4A140A6958FEF811D811D0895DBDFA5
:1051E00008F48FEF0895A1E21A2EAA1BBB1BFD0144
:1051F0000DC0AA1FBB1FEE1FFF1FA217B307E407B6
:10520000F50720F0A21BB30BE40BF50B661F771F0D
:10521000881F991F1A9469F76095709580959095ED
:105220009B01AC01BD01CF010895EE0FFF1F05905A
:10523000F491E02D09940F93083090F0982F872F68
:10524000762F652F542F432F322F22270850F4CF6B
:10525000220F331F441F551F661F771F881F991F7A
:105260000A95B2F70F91089597FB10F8169400086D
:105270000F93083098F00850232F342F452F562FC6
:10528000672F782F892F902DF4CF059497958795C8
:105290007795679557954795379527950A95AAF776
:1052A0000F9108950024A7FD00942A1730054005AA
:1052B000500560057005800590050895FB01DC012F
:1052C00005900D920020E1F70895FC010590002063
:1052D000E9F7809590958E0F9F1F0895FB01DC01E3
:1052E00002C001900D9241505040D8F70895DC0162
:1052F00001C06D9341505040E0F70895DC01CB01AF
:10530000FC01F999FECF06C0F2BDE1BDF89A3196D5
:1053100000B40D9241505040B8F70895DC01A40F3D
:10532000B51F4150504048F0CB01840F951F2E917E
:105330000E949F2941505040D0F70895262FF99997
:10534000FECF92BD81BDF89A019700B4021639F0E4
:105350001FBA20BD0FB6F894FA9AF99A0FBE0895B5
:04536000F894FFCFEF
:105364000000EC0620000100000000A2280000005C
:1053740000A22800000000A22800000000CD02A224
:105384002800000000CD029C0D00000000D2023D68
:1053940007000000009E021D032E03D4000000003D
:1053A400009E021D032E03E000000000009E021D6B
:1053B400032E03A702000000009502FC020D033C2B
:1053C40001000000008C02DB02EC024F010000002F
:1053D4000021027B0100000000B6019C01000000D6
:1053E400006001FEFF00006A01FCFF00006D016522
:1053F4006E642D6F662D73747265616D00696F2024
:105404006572726F7200766172696E74206F766570
:1054140072666C6F770073697A6520746F6F206CA5
:1054240061726765006E6F206D616C6C6F632073D1
:105434007570706F727400737472696E67206F7622
:105444006572666C6F77006279746573206F766538
:1054540072666C6F7700696E76616C696420646152
:1054640074615F73697A6500696E76616C69642042
:10547400776972655F7479706500706172656E74C6
:105484002073747265616D20746F6F2073686F721E
:1054940074006172726179206F766572666C6F77E1
:1054A40000696E76616C6964206669656C64207459
:1054B4007970650063616C6C6261636B206661691D
:1054C4006C6564006D697373696E672072657175CC
:1054D40069726564206669656C6400696E76616CE6
:1054E4006964206669656C642064657363726970BD
:1054F400746F72001713C2127318CC18D318BB112F
:1055040058118F17000000000000101AE3198919C0
:105514009119A419B31973747265616D2066756C61
:105524006C006172726179206D61782073697A65AB
:105534002065786365656465640063616C6C6261B1
:10554400636B206572726F72006279746573207385
:10555400697A65206578636565646564007375625E
:105564006D73672073697A65206368616E6765642B
:1055740000C81B881B591C951C9C1CFB1EDC1EC2EE
:105584001F0000011301FF04005F03021001FF0468
:10559400005B030000000000000000011101FF0493
:1055A400000000021101FF04006303031101FF0462
:1055B4000000000000000000000000250000006E54
:1055C400CD2F4100C20100000000001027A328B61F
:0855D40026E326C82605270086
:00000001FF
