:100000000C9463020C9494020C9494020C94940249
:100010000C9494020C9494020C9494020C94940208
:100020000C9494020C9494020C9494020C949402F8
:100030000C9494020C9494020C9494020C949402E8
:100040000C9494020C9494020C9494020C949402D8
:100050000C9494020C9494020C9494020C94252811
:100060000C9494020C94E1290C94D12A0C949402DF
:100070000C9494020C9494020C9494020C949402A8
:100080000C9494020C9494020C9494020C94940298
:100090000C94152A0C94102B0C9494020C94771049
:1000A0000C9494020C9494020C9494020C94940278
:1000B0000C9494020C9494020C9494020C94940268
:1000C0000C9494020C9494020C9494020C94492A7B
:1000D0000C944F2B0C9494020C947D2A0C948E2B30
:1000E0000C949402DB22EF220523212345236F2366
:1000F0008E23C5237022FF239A22BD2220243A2476
:10010000C522C922E322F922152333236323822344
:10011000AA24DE23F323FF23B122142445247126CD
:10012000742667266B26AB2678267C2682268626B2
:100130008A26902694269826AB269E26A226A626B8
:100140008F2794279927A3271C28AD27B527BD27DC
:10015000C727D127DB27EA27F4271C28FE270828F2
:100160001228687474703A2F2F6769746875622E4C
:10017000636F6D2F776865656C65722D6D6963724D
:100180006F666C7569646963732F64656D6F5F7208
:1001900070632E67697400302E3500576865656C92
:1001A0006572204C61620064656D6F5F7270630000
:1001B000302E39000000090A02080B0C0D07060357
:1001C000040100000000000000000000000000002A
:1001D000000000000000000000000000000000001F
:1001E00011100F00000000000000000000000000DF
:1001F00000000000000000000000010210202008A4
:100200000810204010204080020102010804020171
:1002100001020408102040808040201008040201E0
:100220008004020180402010080402010804020139
:1002300001020408102040800102040810204080C0
:1002400005050505070508080808020202020A0A52
:100250000808040404040101010101010101030370
:10026000030303030303040707070C0C0C0C0C0C1B
:100270000C0C0202020206060606060606060B0B18
:100280000B0B0B0B0B0B000020002300260029009A
:100290002C002F00320000010000030106010901BB
:1002A00000002200250028002B002E003100340021
:1002B00002010000050108010B01000021002400DB
:1002C00027002A002D003000330001010000040146
:1002D00007010A010C9433230C945E290C94FE2729
:1002E0000C94AB260C94A2260C9482130C94F42745
:1002F0000C94AD270C9499270C94FF230C9474262E
:100300000C945E030C943D030C94D81B0C946C1B52
:100310000C9467260C9486260C9457040C94822324
:100320000C94C5220C945F0F0C944E2C0C948F27C8
:100330000C943B1A0C94DB270C94C3200C946D1C7A
:100340000C94BE040C94A2020C94FE020C942C0398
:100350000C94A8110C947C260C943A240C94DF0481
:100360000C9494260C94F0040C9431290C948A215A
:100370000C94AE040C949B1A0C9415230C94E32259
:100380000C94C7270C9478260C947B1B0C94852D19
:100390000C94C9220C94901D0C9480290C9470220A
:1003A0000C94DE230C9432030C94691C0C9471267B
:1003B0000C9414240C9478030C946B260C94A420B5
:1003C0000C9460040C9408280C94E3030C94641EB1
:1003D0000C94CF040C94E2080C949F1B0C942F03F4
:1003E0000C945D1E0C94591B0C948A260C94D127F6
:1003F0000C9412280C9498260C9463230C94EF22EE
:100400000C948E230C948F040C9490260C94BD2293
:100410000C9443290C94842D0C94941A0C949E26CD
:100420000C94211E0C9445230C94511B0C94B12266
:100430000C9400090C9489140C941C280C94DE1460
:100440000C9445240C94B5270C9496020C94942794
:100450000C94AB1B0C94B02A0C94EA270C949404D3
:100460000C94DB220C9457190C94501D0C94A62666
:100470000C948B290C9405230C947C1B0C946F23F7
:100480000C94A3270C9411030C9421230C94C523E2
:100490000C941F130C949A220C944E040C94202458
:1004A0000C9422030C94F3230C949D040C94822648
:1004B0000C94F9220C94AA240C9469040C94BD2782
:1004C000E208691C4E2C11241FBECFEFD1E2DEBF23
:1004D000CDBF00E00CBF14E0A0E0B2E0E0E3FDE53A
:1004E00000E00BBF02C007900D92A837B107D9F703
:1004F0001BE0A8E7B4E001C01D92AA34B107E1F700
:1005000014E0C6ECD4E000E006C022970109FE0129
:100510000BBF0E94402EC03CD10780E00807A9F71E
:100520000E94520F0C94962E0C94000081E0FB0167
:100530004081518162817381452B462B472B09F401
:1005400080E00895FB0180819181A281B381803494
:10055000F8E39F07A105B10509F44CC030F5803BD5
:10056000E4E09E07A105B10509F444C060F48C32B3
:1005700021E09207A105B105E9F188359240A10576
:10058000B105D1F537C0803CF2E19F07A105B10567
:1005900089F1803825E29207A105B10559F180362D
:1005A0009940A105B10541F525C08231FAE79F07C1
:1005B000A105B105F9F060F48115EBE49E07A105F2
:1005C000B105C1F080389047A105B105A9F412C06A
:1005D000811521EE9207A105B10561F08115E2ECCC
:1005E0009E07E1E0AE07B10529F081159649A10506
:1005F000B10511F481E0089580E00895CF93C1E042
:1006000023EC35EF48E450E4FB0160817181828185
:1006100093810E94D12D18160CF0C0E08C2FCF9141
:100620000895FB01408151816281738146505109D7
:100630006109710981E04A3F53406105710508F085
:1006400080E0089540E850E060E070E0BC0169524D
:100650007D4FCB01BA01089502970C9422030497B1
:100660000C942203E0914C07F0914D070280F38136
:10067000E02DBC018CE497E01994FC018789908DF2
:10068000892B59F0818D928D892B51F0838D948D1A
:10069000892B91F482E090E005C080E090E002C0F8
:1006A00081E090E0DC01AA0FBB1FAE0FBF1F589680
:1006B0007C936E93579708958FEF0895FC01878977
:1006C000908D892B39F0818D928D892B79F481E081
:1006D00090E002C080E090E0DC01AA0FBB1FAE0FEB
:1006E000BF1F58967C936E93579708958FEF089588
:1006F0007F928F929F92AF92BF92CF92DF92EF92B2
:10070000FF920F931F93CF93DF937C01EB01942E05
:100710008C016C0184E0C80ED11C712C812C570116
:10072000A2E0AA0EB11C0C151D05C9F09920A1F07C
:10073000F8018789908D009779F0DC01ED91FC91AB
:10074000D70156964C9150E00480F581E02D9E0132
:10075000B5011995811111C00E5F1F4FE4CF7110C3
:1007600023C0EA81FB8181818F708730E9F0882482
:100770008394911019C0812C17C0F8018789908D3E
:10078000DC01ED91FC91AA81BB8114962C9130E0A3
:100790004C895D89688579850280F381E02D199502
:1007A000882E77247394D8CF882DDF91CF911F9115
:1007B0000F91FF90EF90DF90CF90BF90AF909F9000
:1007C0008F907F9008957F928F929F92AF92BF9269
:1007D000CF92DF92EF92FF920F931F93CF93DF930D
:1007E0007C01EB01942E8C016C0186E0C80ED11CBB
:1007F000712C812C5701A2E0AA0EB11C0C151D050D
:10080000C9F09920A1F0F8018789908D009779F0BF
:10081000DC01ED91FC91D70156964C9150E004809B
:10082000F581E02D9E01B5011995811111C00E5F72
:100830001F4FE4CF711023C0EA81FB8181818F704B
:100840008730E9F088248394911019C0812C17C057
:10085000F8018789908DDC01ED91FC91AA81BB8123
:1008600014962C9130E04C895D89688579850280E9
:10087000F381E02D1995882E77247394D8CF882D95
:10088000DF91CF911F910F91FF90EF90DF90CF906C
:10089000BF90AF909F908F907F900895623010F03E
:1008A0008FEF0895FC01E60FF11D42830895623039
:1008B00010F08FEF0895FC01E60FF11D42830895BB
:1008C000623010F08FEF0895FC01E60FF11D4283B6
:1008D0000895CF92DF92EF92FF92FB0160817181C8
:1008E000828193816B017C01A8E0CA1AD108E108DA
:1008F000F108A0E7CA16D104E104F10430F48FE353
:1009000098E00E94211C81E005C02083318342834E
:10091000538380E0FF90EF90DF90CF900895FC012B
:10092000828193810C94B721CF93DF93EC010E94D5
:100930008F041C82DF91CF9108952430310561F43A
:10094000DC01ED91FC91DA012D913D914D915C918D
:100950000680F781E02D199480E00895CF93DF930E
:10096000FC01452B39F4E901AA81BB8181E0228198
:100970009C91291380E0DF91CF91089524303105B7
:1009800061F4DC01ED91FC91DA012D913D914D91E5
:100990005C910680F781E02D199480E00895CF9353
:1009A000DF93FC01452B39F4E901AA81BB8181E089
:1009B00022819C91291380E0DF91CF91089524300A
:1009C000310561F4DC01ED91FC91DA012D913D914D
:1009D0004D915C910680F781E02D199480E0089597
:1009E000CF93DF93FC01452B39F4E901AA81BB8148
:1009F00081E022819C91291380E0DF91CF910895BD
:100A00000F931F93CF93DF938C01EB01BC01CE01B9
:100A10000E94442EC8010E944B2EAC01BE01CB01A6
:100A2000BA01DF91CF911F910F9108950F931F93FA
:100A3000CF93DF93EC011A86198600E010E02B813A
:100A40003C8189859A850217130760F4EF81F88548
:100A5000E00FF11F60810E949E219A8789870F5FB6
:100A60001F4FEDCF0E94B6219A878987DF91CF91E2
:100A70001F910F9108958F929F92AF92BF92CF9244
:100A8000DF92EF92FF920F931F93CF93DF93EC01CE
:100A90008BE092E09983888381E192E09B838A8353
:100AA00087E192E09D838C838E010B5E1F4F1BA616
:100AB0001DA61CA61FA61EA619AA18AA81E792E0C9
:100AC0009E8B8D8B85E392E09BAB8AABEE24E39407
:100AD000ECAA81E492E09EAB8DAB32E0F32EFFAA4C
:100AE0008DE492E099AF88AF83E08AAFBE016E5C7F
:100AF0007F4FC8010E943D03ED89FE89BE016B5CFA
:100B00007F4F0280F381E02DC8011995ED89FE89A0
:100B1000BE01685C7F4F0280F381E02DC80119950A
:100B20001CAE1BAE1EAE1DAEFE01FF968BE394E025
:100B3000918380838E01055B1F4FFE01EF59FF4FAC
:100B40001082D80158961C921E9257975A961C9262
:100B50001E92599789E792E08D939C93FE01EA5982
:100B6000FF4F89E592E091838083E282FE01E7599D
:100B7000FF4F85E692E091838083F282B801655E43
:100B80007F4FC8010E945E03D801ED91FC91B8012E
:100B9000625E7F4F0280F381E02DC8011995FE014E
:100BA000E459FF4F1182108213821282FE01EF5B23
:100BB000FF4F83E294E090AB87A7FE01EE58FE4F13
:100BC0001182108212821482138288248A94982CB3
:100BD00092868186A12CBB24B394B682A582CE01D5
:100BE0008E589F4F908787838E0103581E4FD801E0
:100BF0001C9211961C9211971D961C921E921C9786
:100C00001F961C921E921E9753961C921E925297EC
:100C100091961C921E9290975596FC93EE93549742
:100C2000C8010E94B7217E01B1E6EB1ABEEFFB0AB4
:100C30006DE1C62E62E0D62EF701D182C082138309
:100C40000283C7010E948F0485E292E0D7018D9351
:100C50009C93FE01ED55FE4F84E099E091838083E3
:100C6000FE01EB55FD4F1182108212821482138215
:100C700092868186B682A582CE018B559E4F908743
:100C800087838E0100551D4FD8011C9211961C922E
:100C900011971D961C921E921C971F961C921E92D5
:100CA0001E9753961C921E92529791961C921E92DA
:100CB00090975596FC93EE935497C8010E94B721E4
:100CC0007E01BEE2EB1ABDEFFB0AF701D182C082C2
:100CD00013830283C7010E948F048DE292E0D70143
:100CE0008D939C93FE01EA52FD4F1082C7010E9432
:100CF000940481E892E09983888387E892E09B835B
:100D00008A838DE892E09D838C83DF91CF911F9140
:100D10000F91FF90EF90DF90CF90BF90AF909F909A
:100D20008F9008958AE794E00E942E2662E373E094
:100D30008FE398E00C94641CDC01ED91FC9102803F
:100D4000F381E02D41E050E019940F931F93CF936E
:100D5000DF93EC018B01E881F9816F5F7F4F0280A7
:100D6000F381E02D41E050E01995E881F98102809E
:100D7000F381E02D41E050E0B801CE01DF91CF9149
:100D80001F910F9119940F931F93CF93DF93EC0151
:100D90008B01E881F9816F5F7F4F0280F381E02D45
:100DA00041E050E01995E881F9810280F381E02D5E
:100DB00041E050E0B801CE01DF91CF911F910F913A
:100DC0001994EF92FF920F931F93CF93DF93CDB7B8
:100DD000DEB72A970FB6F894DEBF0FBECDBF8C01E9
:100DE000FC01E7A8F0AC45A956A9B701CE010196D0
:100DF0000E94801CF80161AD72ADA801CE01019680
:100E00000E941B20882319F02F81388504C0E12C13
:100E1000F12C20E030E0B901C7012A960FB6F89412
:100E2000DEBF0FBECDBFDF91CF911F910F91FF901D
:100E3000EF900895CF92DF92EF92FF920F93CF93AE
:100E4000DF93CDB7DEB728970FB6F894DEBF0FBE9D
:100E5000CDBFDC01CB016A017901BC01CD010E944B
:100E6000EA1329833A834B835C836D837E838F836C
:100E70009887F60160817181A701CE010196002358
:100E800019F00E94371902C00E94C71728960FB6A2
:100E9000F894DEBF0FBECDBFDF91CF910F91FF90D1
:100EA000EF90DF90CF900895EF92FF920F93CF9342
:100EB000DF93CDB7DEB761970FB6F894DEBF0FBEF4
:100EC000CDBF7C01FC0181AD92AD998B888B01E097
:100ED0009E012F5F3F4FAE01405F5F4F60E070E0CB
:100EE000CB010E941A078FE0FE013196D7010190D5
:100EF0000D928A95E1F761960FB6F894DEBF0FBEAA
:100F0000CDBFDF91CF910F91FF90EF900895CF92D9
:100F1000DF92EF92FF920F931F93CF93DF93CDB7A2
:100F2000DEB769970FB6F894DEBF0FBECDBF8C0158
:100F30007B016901CE0101960E949E1A882309F463
:100F4000ADC0A601B701CE010D960E949E1A88235E
:100F500009F4A4C0EB81FC812181822F807C09F0FF
:100F600092C02073203131F4EB85FC858081882389
:100F700039F00CC0203221F4EB85FC85C08008C01C
:100F8000CC24C394222321F0C12C02C0CC24C394CE
:100F9000D801ED91FC910190F081E02D4C2DBE0126
:100FA0006F5F7F4FC801298F19958823D9F0EB8196
:100FB000FC81448150E069857A858D899E890E94F3
:100FC000542E298D203131F4EB85FC858081EF8909
:100FD000F88D07C0203231F4EF89F88DAB85BC85E0
:100FE0008C918083CC2009F44EC0AB81BC811196DA
:100FF0008C9111978F70873009F045C0EB85FC8587
:101000008081EF89F88D8083F8012689822F90E016
:10101000FC013196EE0FFF1FEE0FFF1FE00FF11FD7
:10102000B183A083FC01EE0FFF1FEE0FFF1FE00F47
:10103000F11F89819A81938382832F5FD80156960D
:101040002C93E12CF12CD12CEC14FD04C4F4EB8195
:10105000FC8184818E9D802D112490E02D893E8914
:10106000280F391F49855A85480F591F6681778196
:10107000C8010E948707BFEFEB1AFB0AE5CFF80112
:1010800086898150868BCE0101960E94BE1A8823E4
:1010900029F0CE010D960E94BE1A59CF69960FB65F
:1010A000F894DEBF0FBECDBFDF91CF911F910F919E
:1010B000FF90EF90DF90CF9008954F925F926F92E4
:1010C0007F92AF92BF92CF92DF92EF92FF920F93F7
:1010D0001F93CF93DF93CDB7DEB761970FB6F89428
:1010E000DEBF0FBECDBF7C016C0189E3C80ED11CF1
:1010F000F701A5A8B6A807A910AD42E050E060E04E
:1011000070E0CE0101960E94642E49815A81A41696
:10111000B50640F062E070E0C8010E94642E89814B
:101120009A8104C000E010E080E090E00115110514
:1011300021F4C7010E9454070BC02C01380100E0C4
:101140009701A601C301B2010E941A07882389F3FF
:10115000F701C7A8D0AC81AD92AD998B888B01E027
:101160009E012F5F3F4FAE01405F5F4F60E070E038
:10117000CB010E941A078FE0FE013196D601019043
:101180000D928A95E1F7F70161AD72AD15A2960156
:10119000A701C7010F960E94870761960FB6F894C2
:1011A000DEBF0FBECDBFDF91CF911F910F91FF909A
:1011B000EF90DF90CF90BF90AF907F906F905F9057
:1011C0004F9008958AE794E00E943B058AE794E0F7
:1011D00090937904809378040895CF93DF93E091FE
:1011E0001906F0911A06C281D38184E099E00E9429
:1011F0003129BC0189E196E0FE01DF91CF9119947C
:10120000BF92CF92DF92EF92FF920F931F93CF93F3
:10121000DF931F92CDB7DEB78C017B018FE398E09F
:101220000E94591BB82E81E0E81AF108F801848168
:10123000811101C0B482C12CD12CCE14DF04A4F4DE
:101240008FE398E00E94591B8983F8018481B812CA
:1012500007C0BE016F5F7F4F828193810E94D621BC
:10126000FFEFCF1ADF0AE9CF0F90DF91CF911F91E7
:101270000F91FF90EF90DF90CF90BF900895EF9285
:10128000FF920F931F93CF93DF93CDB7DEB7639792
:101290000FB6F894DEBF0FBECDBF8C012B8B1A8228
:1012A00019828FEF9FEF9B878A872B835F834E8303
:1012B000798768875D834C83CE0101960E9416056D
:1012C0008CE79CE7ACE7B0E08C879D87AE87BF8753
:1012D0008091BA0086958A8BF80160818FE398E04F
:1012E0000E94441CBE016E5E7F4F8FE398E00E9417
:1012F0009C0643E050E0BE01645F7F4F8FE398E0BF
:101300000E94AB1BBE016F5F7F4F8FE398E00E948E
:10131000A506BE016D5E7F4F8FE398E00E949C069C
:101320008C819D81998B888BBE01605F7F4F8FE39D
:1013300098E00E94A5068FE398E00E94611CEC8073
:10134000FD80E114F10461F1F0E2EF16F10418F010
:10135000BFE1EB2EF12CF80160818FE398E00E9451
:10136000441CBE016E5E7F4F8FE398E00E949C0696
:1013700068857985A7018FE398E00E94AB1B8FE316
:1013800098E00E94611C888599858E0D9F1D998724
:1013900088878C819D818E199F099D838C83CFCFF7
:1013A000F80160818FE398E00E94441CBE016E5EEC
:1013B0007F4F8FE398E00E949C06BE01665F7F4FDF
:1013C0008FE398E00E94A5068FE398E00E94611CDD
:1013D00063960FB6F894DEBF0FBECDBFDF91CF91FD
:1013E0001F910F91FF90EF9008958F929F92AF926F
:1013F000BF92CF92DF92EF92FF920F931F93CF9302
:10140000DF93CDB7DEB766970FB6F894DEBF0FBE99
:10141000CDBFFC01DB0179018C91873409F496C2C0
:1014200008F092C08D3009F4D8C1E8F5863009F48F
:1014300097C1C8F4823009F479C170F4882309F4A3
:1014400055C1813009F026C40E946F28F7016083DE
:1014500071838283938367C1833009F471C18530BE
:1014600009F44DC117C4893009F487C170F487307D
:1014700009F47EC1883009F00DC412966C91129760
:1014800011968C910E94E5260AC48B3009F47AC12A
:1014900008F08AC112966C91129770E011968C91A7
:1014A0000E946927FCC3813209F4E3C1B0F58031A1
:1014B00009F4B6C198F48E3009F4A5C18F3009F053
:1014C000E9C380819181DC01ED91FC910190F08173
:1014D000E02D1995BC0187EA91E0C8C1823109F479
:1014E000B9C108F4AAC1803209F0D4C39B012F5FAF
:1014F0003F4F15968D919C911697820F931F1696CC
:101500009C938E93159711966D917C9112971396DB
:101510004D915C911497F894A0C2833409F4D2C120
:1015200048F4813409F4C2C1823409F0B3C380E2C3
:1015300090E0C4C1853409F4F8C108F0FDC18FE31F
:1015400098E00E94511B56C3823C09F43DC308F049
:101550008FC0833809F485C208F051C0803809F47F
:101560005BC208F040C0883409F422C2803609F01A
:1015700091C39B012F5F3F4F14968D919C911597BE
:10158000820F931F15969C938E9314971196FC903F
:1015900011970081118112964D915D916D917C9111
:1015A00015976801FEE2CF1AFDEFDF0AC6014B8BEB
:1015B0005C8B6D8B7E8B0E949404C8018A529D4F78
:1015C000DC01FC9224E64B895C896D897E890E944E
:1015D0003F090E946F284B015C017801BCE2EB1AC5
:1015E000BDEFFB0A0CC2813809F41CC2823809F035
:1015F00051C38081918106960E94540750C3813A5D
:1016000009F469C260F5843809F431C2803A09F0FE
:1016100041C3008111810F5B1F4FF801C7A4D0A8FF
:1016200060E070E080E090E00E94EA132B873C8746
:101630004D875E876F87788B898B9A8BAE014F5F62
:101640005F4FB601CE010B960E9437198AE0FE016A
:101650003196D80101900D928A95E1F720C3803C24
:1016600009F4A3C208F0ABC2823A09F459C212C30A
:10167000893C09F4F6C2F0F4853C09F4DAC268F456
:10168000833C09F4BDC2843C09F004C311966C91FB
:10169000808191810E94C52402C3873C09F4D7C28E
:1016A00008F0DAC20190F081E02D87819085A18554
:1016B000B28534C08C3C09F4DEC258F48A3C09F48B
:1016C000D5C28B3C09F0E6C282E290E0A0E0B0E037
:1016D00025C08E3C09F4D9C208F4D2C28F3C09F06F
:1016E000D9C282E391E0A0E0B0E018C00E947B285C
:1016F000D7016D937D938D939C93139714C0209184
:10170000460B3091470B8DB79EB72115310529F552
:101710008A549B40AA2797FDA095BA2FF701808392
:101720009183A283B38304E010E0BBC211968D9134
:101730009C911297009709F4B2C20E94C428AFC2CC
:1017400011966D917C9112976115710509F4A7C2EC
:1017500080E090E00E949E28A2C2821B930BDACF09
:1017600012966C91129711968C910E94AC2697C29A
:1017700011968C910E941B27DCC011968C910E94BF
:10178000442738C29B012F5F3F4F13968D919C9148
:101790001497820F931F14969C938E931397119610
:1017A0008D919C9112978AC09B012F5F3F4F13969A
:1017B0008D919C911497820F931F14969C938E93F6
:1017C000139711960D911D912D913C9114977901CC
:1017D000000F111F000F111F64C29B012F5F3F4FAD
:1017E00013968D919C911497820F931F14969C933E
:1017F0008E93139711968D919D910D90BC91A02D74
:101800008C017D014EC280819181DC01ED91FC91C2
:101810000190F081E02D1995BC0180EB91E026C08C
:1018200080819181DC01ED91FC910190F081E02DAE
:101830001995BC018BE991E019C080819181DC018F
:10184000ED91FC910190F081E02D1995BC0187E9A3
:1018500091E00CC080819181DC01ED91FC910190BF
:10186000F081E02D1995BC0182E691E00E9400050F
:10187000DDC113960D911C9114971196CD90DC90BB
:10188000129780819181DC011296ED91FC91139762
:101890000190F081E02D02961995DC01CB017D01CC
:1018A000A801B601CD010E94642EFBC18091BA004F
:1018B0008695F701808301E010E0F3C1D7018D9395
:1018C0009C939BC180819181DC011496ED91FC91E8
:1018D00015970190F081E02D049619956B017C011C
:1018E00018E0912E00E010E058010C151D0508F0DD
:1018F000D8C1692D8FE398E00E94441C8FE398E0E3
:101900000E94611C81110CC00F5F1F4FF701EA0D8F
:10191000FB1D908261E070E080E090E00E949E28D4
:101920009394B8E79B12E0CFBCC18FE398E00E948C
:10193000591BD7018C93BFCF12964C9112971196D9
:101940006C918FE398E00E94411CB3CF12961C91DA
:1019500012971196DC9080819181DC011496ED91B3
:10196000FC9115970190F081E02D04961995082FB0
:10197000B92EE82EF92E412F6D2D8FE398E00E94AD
:10198000411CA02EC02EDB2C0C2D0A198FE398E0F1
:101990000E94511B892B31F08FE398E00E94591B64
:1019A000011710F010E07DC1F60181936F01ECCFBB
:1019B000CB01019614960D911C911597080F191FD4
:1019C00015961C930E9314971296CD90DC90139756
:1019D00011966C918FE398E00E94441CA601B80117
:1019E0008FE398E00E94AB1B8FE398E00E94611C9C
:1019F00056C1D701ED91FC918089811167C10E9488
:101A00006F28681979098A099B096838734181052B
:101A1000910508F05BC1EDCF8081918106960E940F
:101A20005D083DC18081918106960E94E106009784
:101A300009F435C16B877C878D879E87F89442E0D7
:101A400050E060E070E0CE010B960E94742E4B8552
:101A50005C8562E070E08D859E850E94742E78948E
:101A60001EC18081918106960E94E106DFC09B0124
:101A70002F5F3F4F13968D919C911497820F931F68
:101A800014969C938E931397C080D18011966D917C
:101A90007D918D919C911497F601A5ACB6AC460151
:101AA000FFE38F0E911C01E09501A4010E941A072B
:101AB000182F882369F0D4016D917C91F60113A64B
:101AC00096012A5F3F4FA501C60145960E948707F0
:101AD000D7011C93F0CE00811181F801E259FF4F2C
:101AE000E080F180F801E459FF4F40815181B70156
:101AF000CE0101960E94801CA8014F5B5F4FF80148
:101B0000E059FF4F60817181CE0101960E941B2038
:101B1000882319F00F811885C4C0E12CF12CBFC0B7
:101B20009B012F5F3F4F13964D915C911497420F8D
:101B3000531F14965C934E931397C080D1801196D7
:101B40006D917D918D919C91149786010F5B1F4F34
:101B5000D8019D96AD90BC909E97CA010E94EA1351
:101B600029833A834B835C836D837E838F8398873D
:101B7000F601E059FF4F60817181A501CE01019608
:101B80000E943719982E882369F0F80167A570A97B
:101B9000F601EF59FF4F10829801A501C8010A967E
:101BA0000E948707D7019C9286CE80819181DC01BB
:101BB000ED91FC910190F081E02D199537C0808165
:101BC00091810E942E266BC09B012F5F3F4F139681
:101BD0008D919C911497820F931F14969C938E93D2
:101BE0001397D9014D915D916D917C918081918187
:101BF0000E94F424F7019183808302E010E051C039
:101C00009B012F5F3F4F13968D919C911497820FEC
:101C1000931F14969C938E931397D9014D915D91C8
:101C20006D917C91808191810E940B258B017C01BB
:101C300038C011964D915D916D917C9114970190F2
:101C4000F081E02D478350876187728728C081E04B
:101C500091E0A0E0B0E062CD87E593E0A0E0B0E0E5
:101C60005DCD8BE390E0A0E0B0E058CD81E390E063
:101C7000A0E0B0E053CD8BE090E0A0E0B0E04ECD2E
:101C800080E091E0A0E0B0E049CD83E391E0A0E006
:101C9000B0E044CDE12CF12C0FEF1FEF02C000E0CB
:101CA00010E0B801C70166960FB6F894DEBF0FBE0C
:101CB000CDBFDF91CF911F910F91FF90EF90DF90FB
:101CC000CF90BF90AF909F908F900895F801EB5503
:101CD000FD4FE780F08403811481083F110510F067
:101CE00007EF10E0C6010E949404DBCF0F931F930F
:101CF000CF93DF93FC01CB01C381D48122812436B1
:101D000011F4209759F420E030E04FEF5FEFBA0173
:101D1000C901DF91CF911F910F910895A781B085DF
:101D20009D0105811681AE01BD010E94F509AB013F
:101D30009C01EDCFCF93DF93CDB7DEB762970FB69F
:101D4000F894DEBF0FBECDBFE0911B06F0911C06DC
:101D50008089882309F47EC068E774E08CEE95E002
:101D60000E94760E9B01009711F420E030E0E4E63B
:101D7000EA8B1A8219824FEF5FEF5B874A87EB830A
:101D80003F832E83998788873D832C83CE010196DC
:101D90000E9416058CE79CE7ACE7B0E08C879D8736
:101DA000AE87BF8780911D0690911E06DC01ED91E4
:101DB000FC910280F381E02D43E050E0BE01645FBE
:101DC0007F4F1995BE016F5F7F4F80911D069091E7
:101DD0001E060E94C30680911D0690911E06DC011E
:101DE000ED91FC910280F381E02D41E050E0BE01D5
:101DF0006E5E7F4F19958B81843641F58C819D8174
:101E0000998B888BBE01605F7F4F80911D069091FA
:101E10001E060E94C3064C815D814115510569F083
:101E200080911D0690911E06DC01ED91FC91688564
:101E300079850280F381E02D1995BE01665F7F4FA1
:101E400080911D0690911E060E94C30689E196E0CE
:101E50000E948F04E0914E07F0914F0780898823FC
:101E6000C1F068E774E08FE197E00E94760EAB0165
:101E7000BC01CA016115710511F480E090E0AC016C
:101E800024E680E597E00E943F098CE497E00E94F9
:101E9000940462960FB6F894DEBF0FBECDBFDF91FB
:101EA000CF9108950E94CF280E949206C0EBDAE2FB
:101EB0000E949A0E2097E1F30E94B02AF9CFCF92A8
:101EC000DF92EF92FF920F931F93CF93DF931F92B6
:101ED000CDB7DEB77C016B0100E010E00C151D05ED
:101EE00084F484E099E00E945E298983BE016F5FDB
:101EF0007F4FF701828193810E94D6210F5F1F4F90
:101F0000EDCF0F90DF91CF911F910F91FF90EF9048
:101F1000DF90CF90089510923E0881E080933C08B6
:101F200010923B0861E084E10E94E52661E085E1D2
:101F30000E94E526E9EBF0E080818E7F808380813E
:101F40008D7F808388E48093B80085E48093BC0013
:101F50000895880F8093BA000895413208F03FC079
:101F600090913E089111FCCF91E090933E08209310
:101F70003C082FEF2093D10710921608240F2093CE
:101F8000150890933D0890913D08880F892B809308
:101F90003D0880913B08813041F410923B088091CC
:101FA0003D088093BB0085EC01C085EE8093BC00AA
:101FB00080913E088130E1F380911608841710F477
:101FC0004091160827E138E0FB01D9018A2F821BD6
:101FD000841718F48D918193F9CF842F089580E0B0
:101FE00008950F93413208F046C090913E08911138
:101FF000FCCF92E090933E0800933C089FEF9093B3
:10200000D1071092160840931508FB0167E178E0AC
:10201000DB019A2F961B941718F491919D93F9CF99
:1020200010923D0890913D08880F892B80933D08C0
:1020300080913B08813041F410923B0880913D082B
:102040008093BB0085EC01C085EE8093BC00222309
:1020500021F080913E088230E1F38091D1078F3FDB
:1020600061F08091D107803251F08091D1078033A7
:1020700041F483E007C081E005C080E003C082E056
:1020800001C084E00F910895613298F420913E08D8
:10209000243089F46093F307FC0185EF97E0DC01BD
:1020A0002A2F281B261718F421912D93F9CF80E0B1
:1020B000089581E0089582E0089590933808809310
:1020C0003708089590933A0880933908089585ED6C
:1020D0008093BC008091BC0084FDFCCF10923E0830
:1020E000089585EC8093BC0010923E0808951F92DD
:1020F0000F920FB60F9211240BB60F922F933F93AE
:102100004F935F936F937F938F939F93AF93BF93FF
:10211000EF93FF938091B900887F803609F49CC0CB
:1021200068F5883209F45BC090F4803109F454C03A
:1021300038F4882309F4F5C0883009F44DC0F5C09F
:10214000883109F44CC0803209F45DC0EEC080349F
:1021500009F468C048F4803309F455C0883309F0A5
:10216000E4C08093D107A8C0803509F44FC08835FA
:1021700009F45DC0883409F0D8C0D5C0883909F4A5
:10218000C6C0A8F4883709F467C038F4883609F463
:1021900063C0803709F460C0C8C0883809F4B7C08C
:1021A000803909F45FC0803809F0BFC05BC0803B54
:1021B00009F485C038F4803A09F466C0883A09F415
:1021C0007EC0B3C0803C09F4A6C0883C09F4A3C01B
:1021D000883B09F489C0A9C080913D0810C0909146
:1021E000160880911508981770F5E091160881E09F
:1021F0008E0F80931608F0E0E95EF74F80818093A0
:10220000BB0085EC85C08093D1078DC0E091160896
:1022100081E08E0F809316088091BB00F0E0E95EAC
:10222000F74F808390911608809115086DC0E0915A
:10223000160881E08E0F809316088091BB00F0E0B5
:10224000E95EF74F808380913C0881116CC081E08A
:1022500080933B0884EA60C083E080933E0810923C
:10226000D207CFCF8091D207803208F050C0E091E2
:10227000D20781E08E0F8093D2078091BB00F0E0FF
:10228000ED52F84F8083BDCF8091D207803230F479
:10229000E091D207F0E0ED52F84F10820E946710F3
:1022A0006091D20770E0E0913708F091380883ED33
:1022B00097E019951092D2070E94711036C084E001
:1022C00080933E081092F4071092F307E0913908CA
:1022D000F0913A0819958091F307811105C081E0CA
:1022E0008093F3071092F507E091F40781E08E0FD9
:1022F0008093F407F0E0EB50F84F80818093BB00AF
:102300009091F4078091F307981708F47ACF85E845
:102310008093BC000AC085EC8093BC0010923E08FC
:1023200004C01092D1070E946710FF91EF91BF91F6
:10233000AF919F918F917F916F915F914F913F915D
:102340002F910F900BBE0F900FBE0F901F901895FE
:10235000DC011296ED91FC9113974E0F5F1F1396BF
:102360005C934E9312976115710539F0DB01E41708
:10237000F50719F081918D93FACF81E00895CF93FD
:10238000DF93CDB7DEB72C970FB6F894DEBF0FBE44
:10239000CDBFAB01BC01CE0101960E949E1A8823DD
:1023A000D9F1EB81FC818181982F907C21F580739C
:1023B000803121F4AB85BC851C9202C0803221F1B2
:1023C00041814F7089859A8526813781473029F46C
:1023D000BC01C9010E94BF111AC0448150E02115FF
:1023E000310521F0B9010E94542E11C060E070E067
:1023F0000E945D2E0CC0903851F4E985FA85118257
:1024000010828073803219F4EB85FC851082CE0136
:1024100001960E94BE1AC3CF2C960FB6F894DEBF69
:102420000FBECDBFDF91CF910895CF93DF93EC0125
:102430008C819D81892B51F48E819F81892B21F480
:102440008FE892E09F838E8380E017C0E881F98156
:1024500041E050E0CE011995811109C02E813F81E4
:10246000232B91F72DE932E03F832E8306C02C8188
:102470003D81215031093D832C83DF91CF91089517
:102480007F928F929F92AF92BF92CF92DF92EF9204
:10249000FF920F931F93CF93DF931F92CDB7DEB7B9
:1024A0008C014B01BE016F5F7F4F0E941512782E89
:1024B0008823E1F1898187FD05C0C82ED12CE12C4C
:1024C000F12C36C08F77C82ED12CE12CF12C87E06F
:1024D000A82EB12CBE016F5F7F4FC8010E9415125C
:1024E000882321F18981482F4F7750E060E070E028
:1024F0000A2C04C0440F551F661F771F0A94D2F799
:10250000C42AD52AE62AF72A87FF12C087E0A80E38
:10251000B11CE3E2AE16B104E9F6F80186819781B9
:10252000892B21F486EA92E097838683712C05C07B
:10253000F401C082D182E282F382872D0F90DF9175
:10254000CF911F910F91FF90EF90DF90CF90BF90B0
:10255000AF909F908F907F900895EF92FF920F938E
:102560001F93CF93DF93CDB7DEB760970FB6F89484
:10257000DEBF0FBECDBF8C017A016115710501F57B
:10258000DC018D919C91885A9141D1F0F1E1EF16D7
:10259000F10470F040E150E0BE016F5F7F4FC80171
:1025A0000E94AD128823F1F1E0E1EE1AF108EECFBE
:1025B000A701BE016F5F7F4FC8010E94AD1232C0FC
:1025C000D80114968D919C9115978E159F0568F4EE
:1025D00016968D919C911797892B29F48FE892E09C
:1025E000F8019783868380E01DC0D801ED91FC91AE
:1025F000A701C801199581110AC0F8012681378108
:10260000232B89F72DE932E0378326830BC0D801CD
:1026100014962D913C9115972E193F0915963C93D0
:102620002E93149760960FB6F894DEBF0FBECDBF01
:10263000DF91CF911F910F91FF90EF900895CF926E
:10264000DF92EF92FF920F931F93CF93DF9300D00F
:102650001F92CDB7DEB78C016B017A01BE016F5FAF
:102660007F4F0E944012882309F43FC049815A815C
:102670006B817C819A012F5F3F4FC901A0E0B0E0E0
:1026800084179507A607B70740F4F801868197815C
:10269000892B51F586EB92E01AC0F6018181807C8E
:1026A000803841F4F80186819781892BE9F485EC23
:1026B00092E00DC0F601848190E08217930750F4F8
:1026C000F80186819781892B79F487ED92E09783D1
:1026D00086830AC0B701C8010E94AD12E981FA8160
:1026E000EE0DFF1D108201C080E00F900F900F9043
:1026F0000F90DF91CF911F910F91FF90EF90DF909E
:10270000CF900895CF92DF92EF92FF920F931F9395
:10271000CF93DF9300D01F92CDB7DEB78C017B0142
:10272000D42EC52EBE016F5F7F4F0E9440128823BA
:1027300009F443C049815A816B817C814F3F510527
:102740006105710549F040F0F80186819781892B78
:1027500099F587EE92E01FC09A012F5F3F4FC901A4
:10276000A0E0B0E084179507A607B70740F4F8018A
:1027700086819781892B01F586EB92E00CC0F701E9
:102780008181807C803851F4F80186819781892B82
:1027900099F485EC92E0978386830EC0F7018481DB
:1027A00090E08217930780F2ED2DFC2D4193BF013D
:1027B000C8010E94AD1201C080E00F900F900F90F1
:1027C0000F90DF91CF911F910F91FF90EF90DF90CD
:1027D000CF900895CF93DF93CDB7DEB728970FB68C
:1027E000F894DEBF0FBECDBF28EA31E13A832983DA
:1027F0008B839C836D837E8318861F823A81AC0114
:1028000080E0988528960FB6F894DEBF0FBECDBF46
:10281000DF91CF9108953F924F925F926F927F9296
:102820008F929F92AF92BF92CF92DF92EF92FF92E0
:102830000F931F93CF93DF931F92CDB7DEB75C0149
:102840007B01C12CD12C312C412C512C612C712CB1
:10285000812C912C10E0BE016F5F7F4FC5010E945B
:102860001512E82F882309F440C0F9812F2F2F7704
:1028700030E040E050E060E070E080E090E00C2D5F
:102880000E94FD2D322A432A542A652A762A872A55
:10289000982A192BF7FF11C087E0C80ED11CA6E4B7
:1028A000CA16D104C1F6F50186819781892BE1F41E
:1028B00086EA92E09783868317C0D7013C921196EF
:1028C0004C92119712965C92129713966C921397F2
:1028D00014967C92149715968C92159716969C9246
:1028E000169717961C9301C0E0E08E2F0F90DF9192
:1028F000CF911F910F91FF90EF90DF90CF90BF90FD
:10290000AF909F908F907F906F905F904F903F908F
:102910000895CF92DF92EF92FF920F931F93CF9380
:10292000DF93CDB7DEB728970FB6F894DEBF0FBEA2
:10293000CDBF8C016B017A01BE016F5F7F4F0E949A
:102940000B14882361F1F60194819430A1F0983042
:10295000E1F49981F70190839A8191839B8192831D
:102960009C8193839D8194839E8195839F8196838F
:102970009885978314C009811A812B813C81F701C6
:1029800000831183228333830AC0F80186819781F3
:10299000892B21F486EF92E09783868380E0289646
:1029A0000FB6F894DEBF0FBECDBFDF91CF911F9160
:1029B0000F91FF90EF90DF90CF900895CF92DF922C
:1029C000EF92FF920F931F93CF93DF93CDB7DEB7B4
:1029D00028970FB6F894DEBF0FBECDBF8C016B01F8
:1029E0007A01BE016F5F7F4F0E940B148823D9F1DB
:1029F000F60194819230E9F030F4913051F59981EB
:102A0000F701908330C09430D1F0983011F599815E
:102A1000F70190839A8191839B8192839C81938318
:102A20009D8194839E8195839F81968398859783CA
:102A30001AC029813A81F7013183208314C00981AA
:102A40001A812B813C81F701008311832283338318
:102A50000AC0F80186819781892B21F486EF92E0E4
:102A60009783868380E028960FB6F894DEBF0FBE6A
:102A7000CDBFDF91CF911F910F91FF90EF90DF902D
:102A8000CF900895AF92BF92CF92DF92EF92FF92D4
:102A90000F931F93CF93DF9300D01F92CDB7DEB774
:102AA0008C017B016A015901F9011082FB0110823E
:102AB000FA011082118212821382BE016F5F7F4F72
:102AC0000E94401281110AC0F80124813581232B14
:102AD000F9F481E0F501808380E01AC009811A8150
:102AE0002B813C81011511052105310591F3B901B7
:102AF000A80193E076956795579547959A95D1F7F4
:102B0000F60140835183628373830770F70100836A
:102B10000F900F900F900F90DF91CF911F910F9119
:102B2000FF90EF90DF90CF90BF90AF9008950F93FC
:102B30001F93CF93DF9300D01F92CDB7DEB78C01E8
:102B40006130B1F050F06230B1F0653019F544E019
:102B500050E01AC0998197FF27C041E050E0BE01C4
:102B60006F5F7F4FC8010E94AD128111F3CF1CC06F
:102B700048E050E009C0BE016F5F7F4F0E944012E5
:102B8000882391F049815A8160E070E0C8010E9479
:102B9000AD120AC0FC0186819781892B21F488E05F
:102BA00093E09783868380E00F900F900F900F90B3
:102BB000DF91CF911F910F9108958F929F92AF92C5
:102BC000BF92EF92FF920F931F93CF93DF9300D0AA
:102BD0001F92CDB7DEB78C017B01BE016F5F7F4FC7
:102BE0000E9440128823F1F098E0F801D70101908B
:102BF0000D929A95E1F749815A816B817C81F701A9
:102C000084809580A12CB12C84169506A606B70663
:102C100058F4F80186819781892B21F48AE193E0A9
:102C20009783868380E00AC0F70155834483F801C7
:102C300024813581241B350B358324830F900F901D
:102C40000F900F90DF91CF911F910F91FF90EF9018
:102C5000BF90AF909F908F9008954F925F926F9228
:102C60007F928F929F92AF92BF92CF92DF92EF921C
:102C7000FF920F931F93CF93DF93CDB7DEB7629789
:102C80000FB6F894DEBF0FBECDBF8C017A01FA01FA
:102C9000A281B38111962C911197822F807C803470
:102CA00009F4B0C0803809F4A4C081114FC1822F4B
:102CB0008F7090E0FC01EE0FFF1FEC56FC4FA080E0
:102CC000B1802073203129F0203281F0211182C09F
:102CD00006C0F7012285338581E0F9018083F70181
:102CE00040855185BD01C801F5012EC1F701C2849F
:102CF000D384623009F049C005970CF046C0BE018C
:102D00006F5F7F4FC8010E94DD15882309F427C13A
:102D10008D819E81892B11F1F6018081D701129658
:102D20006D917C911397FB0195818917B8F4DB01B4
:102D300014969C91F70140855185989F400D511D37
:102D40001124CE010196F5011995882329F0D601A9
:102D50008C918F5F8C93DCCF80E001C081E02B8170
:102D60003C81D80113963C932E9312972F8138857E
:102D700017963C932E9316974D815E81452B09F44F
:102D8000EFC0232B09F0EBC014C0F701408551853B
:102D900014969C911497F601808115962C918217B8
:102DA00058F0D80116968D919C911797892B09F0B0
:102DB000D6C082E393E018C021E0280FF6012083FB
:102DC000989F400D511D1124D70112966D917C9151
:102DD000139789CFD80116968D919C911797892BBF
:102DE00009F0BDC081E493E017969C938E931697EB
:102DF000B6C0F80186819781892B09F0B0C085ECB7
:102E000092E0ABC0408451845201B2E0AB0EB11CE1
:102E1000F20180819181892B21F4C8010E949715CC
:102E20009FC06230A1F5BE016F5F7F4FC8010E9455
:102E3000DD15882309F493C0D70112966D917C911A
:102E40001397D201ED91FC91A501CE010196199540
:102E500081110BC0F80126813781232B09F07FC037
:102E600024E533E0378326837BC02D813E81232BED
:102E700019F72B813C81D80113963C932E9312971E
:102E80002F81388517963C932E93169769C0613031
:102E900071F170F06530B9F544E050E0BE016F5F4C
:102EA0007F4FC8010E94AD1224E0C22ED12C33C046
:102EB000FE0131963F01C12CD12C4301FFEFCF1A07
:102EC000DF0A8BE0C816D10409F449C041E050E0A4
:102ED000B301C8010E94AD12882309F440C09FEFDE
:102EE000691A790AD4018C9187FDE7CF16C048E0B2
:102EF00050E0BE016F5F7F4FC8010E94AD1238E005
:102F0000C32ED12C08C0F80186819781892B39F511
:102F100088E093E022C0882319F188EA91E19C8738
:102F20008B87CE0101969E878D87D88ACF861A8A95
:102F3000198AD70112966D917C911397D201ED9168
:102F4000FC91A501CE010B9619950AC0F801868166
:102F50009781892B21F481E493E09783868380E035
:102F600062960FB6F894DEBF0FBECDBFDF91CF9152
:102F70001F910F91FF90EF90DF90CF90BF90AF9097
:102F80009F908F907F906F905F904F9008952F92B9
:102F90003F924F925F926F927F928F929F92AF92E9
:102FA000BF92CF92DF92EF92FF920F931F93CF9336
:102FB000DF93CDB7DEB7AA970FB6F894DEBF0FBE8A
:102FC000CDBF7C015E0129E1A20EB11C88E0D501D4
:102FD0001D928A95E9F7CE010D960E949E1A412C0A
:102FE000512C320122242394312CD70114968D9137
:102FF0009C911597892B09F4D5C09E012B5D3F4FFD
:10300000AE014F5D5F4FBE016A5D7F4FC7010E94F9
:103010004215811104C08DA18111C4C0C1C049A154
:103020005AA16BA17CA1CE010D960E94101B8111AB
:1030300090C089A19AA1ABA1BCA184159505A60554
:10304000B70508F481C0CF84D888EF85F8898181DD
:103050008F70883009F4EDC0CE010D960E94BE1A23
:103060008F8598898C159D0581F744244A94542CAA
:10307000320129A13AA14BA15CA12FA338A749A7EE
:103080005AA7241535054605570508F45DC0D70134
:1030900014968D909C9015971EA1ED89FE89C08095
:1030A000D180F70184819581C114D10409F448C00D
:1030B0008816990609F044C0F601A081B181ED910E
:1030C000FC911197309749F0012F2FA138A549A500
:1030D0005AA5B601C70119952BC014966D917C9124
:1030E0001597DB018C9190E0A0E0B0E02FA138A50E
:1030F00049A55AA582179307A407B507D9F4D601A5
:1031000012964D915C911397CE0101960E949E1AE2
:10311000F601828193819A878987C60106969C87EA
:103120008B87AE014F5F5F4F612FC7010E942D1645
:103130008823B1F1D6011496CD90DC901597B1CFCC
:103140008816990609F051CF6EA1C7010E94971504
:1031500025C0EF85F88981818073C9F489899A89AE
:1031600080349105A0F4FC0163E0F695E7956A953B
:10317000E1F7EA0DFB1D87709927910102C0220F2C
:10318000331F8A95E2F7C9019081982B9083AE0195
:10319000435F5F4F6EA1C7010E942D16811125CF9D
:1031A00080E04CC0C988DA88EF85F8891181CE01AA
:1031B0000D960E94BE1A8111F5CF107341F4EF8570
:1031C000F8899081992319F0BFEFCB1ADB0A960199
:1031D00053E0369527955A95E1F7F501A501420F81
:1031E000531FE417F50769F091919F3FD1F3F70161
:1031F00026813781232B11F524E633E0378326839C
:103200001DC0F501E20FF31F608170E0F7E0CF22EF
:10321000DD2448E050E04C195D092FEF30E002C09A
:10322000359527954A95E2F76217730701F781E014
:1032300005C04080512C612C712C1BCFAA960FB673
:10324000F894DEBF0FBECDBFDF91CF911F910F91DC
:10325000FF90EF90DF90CF90BF90AF909F908F90B6
:103260007F906F905F904F903F902F900895EF92D6
:10327000FF920F931F93CF93DF931F921F92CDB7AF
:10328000DEB78C017B01BA01C70149835A830E94D2
:10329000BF1149815A81B701C8010F900F90DF918A
:1032A000CF911F910F91FF90EF900C94C717CF9281
:1032B000DF92EF92FF920F931F93CF93DF93CDB7DF
:1032C000DEB72A970FB6F894DEBF0FBECDBF8C01D4
:1032D0007B01FB01C680D780BE016F5F7F4F4987AE
:1032E0005A870E94DD1549855A85882349F1F701DF
:1032F00086819781892B51F4F80186819781892BEA
:10330000F1F48BE793E09783868319C0F7018181FD
:103310008073B601803229F4CE0101960E943719DC
:1033200004C0CE0101960E94C7172B813C81F80191
:10333000338322832F8138853783268301C080E041
:103340002A960FB6F894DEBF0FBECDBFDF91CF91A6
:103350001F910F91FF90EF90DF90CF900895AF9263
:10336000BF92CF92DF92EF92FF920F931F93CF9372
:10337000DF93CDB7DEB728970FB6F894DEBF0FBE48
:10338000CDBF7B01BE016F5F7F4F0E940B14F82FF2
:10339000882309F45EC0E981AA80BB80CC80DD80EF
:1033A0000E811F81B8852E2F217030E040E050E063
:1033B00060E070E080E090E0A0E00E94342E41F1F7
:1033C0002E2F3A2D4B2D5C2D6D2D702F812F9B2F85
:1033D00001E00E94182E2095D7012C93309511966C
:1033E0003C931197409512964C93129750951396D3
:1033F0005C931397609514966C931497709515963B
:103400007C931597809516968C93169790951FC070
:103410002E2F3A2D4B2D5C2D6D2D702F812F9B2F34
:1034200001E00E94182ED7012C9311963C9311971E
:1034300012964C93129713965C93139714966C9371
:10344000149715967C93159716968C931697179646
:103450009C938F2F28960FB6F894DEBF0FBECDBF7A
:10346000DF91CF911F910F91FF90EF90DF90CF9060
:10347000BF90AF900895CF92DF92EF92FF920F939B
:103480001F93CF93DF93CDB7DEB728970FB6F8948D
:10349000DEBF0FBECDBF8C016B017A01BE016F5F35
:1034A0007F4F0E94AF19882361F1F6019481943017
:1034B000A1F09830E1F49981F70190839A8191838A
:1034C0009B8192839C8193839D8194839E8195832C
:1034D0009F8196839885978314C009811A812B81D7
:1034E0003C81F70100831183228333830AC0F801F2
:1034F00086819781892B21F486EF92E097838683DA
:1035000080E028960FB6F894DEBF0FBECDBFDF91E6
:10351000CF911F910F91FF90EF90DF90CF90089582
:1035200044E050E00C94AD12BA010C94901A48E0BB
:1035300050E00C94AD12BA010C94971AFC01DB0117
:1035400071836083738362831582148257834683F9
:1035500012968C911297480F511D518740871396F0
:103560008C911397480F511D87FD5A9553874287B9
:1035700081E09C91911101C080E00895FC01A2813D
:10358000B3818C91882309F449C0CD0108969383B7
:10359000828318968C911897811108C046815781B3
:1035A00060817181CF010E949E1A38C014964C919F
:1035B0001497842F90E011962C911197322F307C24
:1035C0002073311109C0203259F415968C9115974A
:1035D000849FC00111240CC0303811F482E090E0C7
:1035E000211106C0248135812F5F3F4F358324830D
:1035F0001A962C911A97AC01420F511D8085918526
:10360000840F951F918780871B962C91820F911DA7
:1036100027FD9A959387828781E0089580E0089539
:10362000EF92FF920F931F93CF93DF9300D01F92DF
:10363000CDB7DEB77C01DC0112960D911C9113977A
:10364000D7011296ED91FC911397808190E0A0E054
:10365000B0E084179507A607B70721F481818F7022
:10366000883099F4C70149835A836B837C830E9415
:10367000BE1AF7018281938149815A816B817C81D5
:1036800080179107E9F680E001C081E00F900F906C
:103690000F900F90DF91CF911F910F91FF90EF90BE
:1036A00008958091730890E020917408821B91091D
:1036B00008952091740880917308281750F4E22F20
:1036C000F0E0EB58F74F808190E02F5F2093740873
:1036D00008958FEF9FEF0895E0917408809173082B
:1036E000E81730F4F0E0EB58F74F808190E0089550
:1036F0008FEF9FEF08950895E0914B08F0914C08EB
:103700003097E1F030917408209173083217B0F0CF
:1037100040E0242F30E02617370754F4DC01A20FD5
:10372000B31F5C91D901AB58B74F5C934F5FF1CF9A
:103730001092740860937308CB0119940895E09176
:103740004D08F0914E08309729F0109251081092D0
:10375000500819940895CF92DF92EF92FF920F9341
:103760001F93CF93DF937C01CB018A0120914F08F7
:10377000222389F0EB016B01C40ED51ECC15DD05AB
:1037800069F06991D701ED91FC910190F081E02DF4
:10379000C7011995F3CF642F0E944410C801DF912F
:1037A000CF911F910F91FF90EF90DF90CF900895F0
:1037B000CF93DF931F92CDB7DEB7698320914F0877
:1037C0002223D1F020915008203240F021E030E057
:1037D000FC013383228380E090E015C08091510882
:1037E000E82FF0E0EE5AF74F998190838F5F809336
:1037F00051088093500805C061E0CE0101960E94F7
:10380000441081E090E00F90DF91CF910895FC018A
:103810001382128248EE53E060E070E044835583E7
:10382000668377838AEA93E0918380830895109278
:1038300074081092730810925108109250080C945A
:103840008B0FCF93DF93EC01862F0E94A90F8FE996
:103850009BE10E9462108CE79BE10E945D10CE010B
:10386000DF91CF910C94171C862F413208F040E273
:1038700065E778E00E94AD0F10927408809373089A
:10388000089521E00C94341C81E080934F086093EC
:103890007208109251081092500808950F93062F45
:1038A00021E04091500862E578E0809172080E9422
:1038B000F10F109251081092500810924F080F917A
:1038C000089561E00C944E1C70934C0860934B0873
:1038D00008958FE398E00C94071CFC01A281B3814A
:1038E0009D01240F351F33832283FB01460F571F91
:1038F000E417F50719F081918D93FACF81E00895CF
:10390000FC018DE69CE19183808373836283558300
:1039100044831782168211861086CF0108950F9373
:103920001F93CF93DF93EC018A01E881F9813097EF
:1039300001F12E813F81240F351F8C819D818217DB
:10394000930750F488859985892B21F486EB93E0C1
:103950009987888780E014C0CE011995811109C02C
:1039600028853985232BB1F72DE932E0398728875F
:1039700007C08E819F81800F911F9F838E8381E07E
:10398000DF91CF911F910F9108955F926F927F9277
:103990008F929F92AF92BF92CF92DF92EF92FF925F
:1039A0000F931F93CF93DF93CDB7DEB762970FB618
:1039B000F894DEBF0FBECDBF6C01802F0B87912F17
:1039C0001C87522E2D87632E3E87742E4F87852E9F
:1039D000588B962E698BB72F7A8B8C019801452DC9
:1039E000562D672D782D892D9B2FA0E00E94342E17
:1039F00021F0FE0131967F0106C041E050E0BE019A
:103A0000655F7F4F34C05F01AE18BF089801452D38
:103A1000562D672D782D892D9B2FA0E00E94342EE6
:103A2000A9F0802F806881939801452D562D672D30
:103A3000782D892D9B2F07E00E94182E8901542E86
:103A4000652E762E872E982EB92FDDCF1B861C86ED
:103A50001D861E861F86188A198A1A8AF5013197D3
:103A6000EE0DFF1D80818F778083A501B701C60110
:103A70000E948F1C62960FB6F894DEBF0FBECDBFBA
:103A8000DF91CF911F910F91FF90EF90DF90CF903A
:103A9000BF90AF909F908F907F906F905F900895B0
:103AA0008F929F92AF92BF92CF92DF92EF92FF924E
:103AB0000F931F93FA01DB0114962C91243059F0D7
:103AC000283089F480809180A280B380C480D58022
:103AD000E680F78012C080809180A280B380C12CE4
:103AE000D12C76010AC0FC0120853185232B61F49D
:103AF00026EF32E03187208707C084019501A601B7
:103B0000B7010E94C51C01C080E01F910F91FF907A
:103B1000EF90DF90CF90BF90AF909F908F900895DF
:103B20000F931F93CF93FA01DB0114962C9122304F
:103B3000D9F068F4213091F50081102F110F110B8D
:103B4000212F312FC12FB12FA12F712F31C0243040
:103B5000B1F0283019F50081118122813381C481AF
:103B6000B581A681778124C011810081212F220F88
:103B7000220B322FC22FB22FA22F722F19C04081D9
:103B80005181628173818A019B01770F440B542F0D
:103B9000BA01C42FB42FA42F742F0AC0FC012085B2
:103BA0003185232B59F426EF32E03187208706C078
:103BB0004C2F5B2F6A2F0E94C51C01C080E0CF9163
:103BC0001F910F910895DF92EF92FF920F931F9331
:103BD000CF93DF93FC01D22EE32EF42ED52FC62FE8
:103BE000B72F98014D2D5E2D6F2D7D2F8C2F9B2F84
:103BF000A0E00E94342E64F401E00E94FD2D209587
:103C000030954095509560957095809590950AC037
:103C100098014D2D5E2D6F2D7D2F8C2F9B2F01E058
:103C20000E94FD2D89019A01AB01BC01CF010E94C8
:103C3000C51CDF91CF911F910F91FF90EF90DF9006
:103C400008950F931F93CF93FA01DB0114962C91E3
:103C5000243059F02830C1F4008111812281338150
:103C6000C481B581A681778119C04081518162816B
:103C700073818A019B01770F440B542FBA01C42F23
:103C8000B42FA42F742F0AC0FC0120853185232B6B
:103C900059F426EF32E03187208706C04C2F5B2F86
:103CA0006A2F0E94E31D01C080E0CF911F910F9108
:103CB000089544E050E00C948F1CBA010C94591EF6
:103CC00048E050E00C948F1CBA010C94601E8F9257
:103CD0009F92AF92BF92CF92DF92EF92FF920F939B
:103CE0001F93FC01A62F49015A01A50160E070E075
:103CF00080E090E003E00E94FD2D022F242F0A2B8C
:103D0000132F352FAB01BC01CF010E94C51C1F91A1
:103D10000F91FF90EF90DF90CF90BF90AF909F906A
:103D20008F900895FB0121812F702330A9F090F02E
:103D3000243021F0283020F462E00FC061E00DC093
:103D4000FC0120853185232B71F421E433E0318798
:103D5000208709C060E001C065E0208130E040E0DC
:103D600050E00C94671E80E008952F923F924F928E
:103D70005F926F927F928F929F92AF92BF92CF92FB
:103D8000DF92EF92FF920F931F93CF93DF93CDB704
:103D9000DEB72B970FB6F894DEBF0FBECDBF7C0108
:103DA0006B015A01DB0111963C91232F207C2034BA
:103DB00009F404C1203811F0211116C181E08B876C
:103DC000832F8F7090E0FC01EE0FFF1FEF5EFB4F23
:103DD00040805180F6014381442331F0F501E40F26
:103DE000F11D47FDFA9502C0FE013B96203849F4CB
:103DF000D501AD90BC9041E0A114B10409F440E0BC
:103E00004B873073303189F0303201F13111ECC021
:103E1000A114B10471F4F70180859185892B09F013
:103E2000F0C084E693E0D701E8C08081882309F4DC
:103E3000CCC0B601C7010E94921E882309F4E1C0DC
:103E4000A501B601C701F2011995DCC08080912C53
:103E50008114910409F4B9C0203891F0D601159667
:103E60002C9130E02815390558F4F70180859185AB
:103E7000892B09F0C6C082EC93E091878087C1C08E
:103E800005970CF071C0D6012C9130E040E050E075
:103E900062E0C7010E94671E882309F4B2C0F601E0
:103EA00081818F70833031F43401660C771C660C8D
:103EB000771C29C0843039F43401A3E0660C771CE8
:103EC000AA95E1F720C0CE0101961C018AE0D1013C
:103ED0001D928A95E9F78501612C712CA801B60124
:103EE000C101F2011995882309F48BC0D6011496FB
:103EF0008C91080F111DBFEF6B1A7B0A68147904AF
:103F000068F36F807884830120E030E040E050E087
:103F100060E070E0C7010E94C51C882309F471C0ED
:103F2000F70180819181892B51F4A30160E070E059
:103F3000C7010E948F1C882309F463C046C000E0BB
:103F400010E0A501B601C701F2011995882309F413
:103F500058C0D60114968C91A80EB11C0F5F1F4F4C
:103F60000815190570F331C000E010E0B601C70173
:103F70000E94921E882309F444C0F6018181982F83
:103F8000907C9038C9F48F7090E005970297A0F468
:103F9000D5014D915C91B601C701F20119958823B5
:103FA00081F1D60114968C91A80EB11C0F5F1F4FA2
:103FB00008151905D8F209C0A501EDCF4E5F5F4F76
:103FC000D501ED91FC91309711F481E01BC019955A
:103FD0008111FBCFF70120853185232B99F42AED40
:103FE00033E0318720870EC0D70118968D919C91C0
:103FF0001997892B31F481E493E019969C938E9361
:10400000189780E02B960FB6F894DEBF0FBECDBF99
:10401000DF91CF911F910F91FF90EF90DF90CF90A4
:10402000BF90AF909F908F907F906F905F904F90D8
:104030003F902F900895EF92FF920F931F93CF938D
:10404000DF93CDB7DEB72C970FB6F894DEBF0FBE67
:10405000CDBF7C01CE0101960E949E1A811102C043
:1040600081E038C06B817C81FB0181818F70498543
:104070005A85883029F5FA01008111810115110551
:1040800021F1F801A081B1811296ED91FC91139775
:10409000309721F0B801C70119950AC0F801428193
:1040A000538114966D917C911597C7010E94B51E9E
:1040B000811102C080E00EC0F80104811581DECFBD
:1040C000C7010E94B51E8823A9F3CE0101960E9464
:1040D000BE1AC4CF2C960FB6F894DEBF0FBECDBF6C
:1040E000DF91CF911F910F91FF90EF900895CF92A4
:1040F000DF92EF92FF920F931F93CF93DF93EC0128
:104100006B017A018A0120E030E040E050E060E09D
:1041100070E00E94C51C882369F0A701B601CE019A
:10412000DF91CF911F910F91FF90EF90DF90CF9093
:104130000C948F1C80E0DF91CF911F910F91FF9025
:10414000EF90DF90CF900895FB01BA014481218167
:10415000207C203811F050E002C04FEF5FEF611576
:10416000710561F0FB0120E030E02417350741F0D4
:10417000A191AA2329F02F5F3F4FF7CF20E030E035
:10418000A9010C947720FA01309729F440E050E01F
:1041900060E070E020C0DB0111962C911197207C2B
:1041A0004081211114C0242F30E02F5F3F4F14961F
:1041B0006C9170E06217730750F4FC012085318523
:1041C000232B59F429EE33E03187208706C050E0D5
:1041D000BF016F5F7F4F0C94772080E008956F924E
:1041E0007F928F929F92AF92BF92CF92DF92EF9287
:1041F000FF920F931F93CF93DF93CDB7DEB72A972C
:104200000FB6F894DEBF0FBECDBF7C014B013A0163
:10421000CE0101965C018AE0F50111928A95E9F7D9
:10422000C5010E941B20811106C029853A85F7012E
:10423000318720875AC0CF80D884860120E030E0C3
:1042400040E050E060E070E0C7010E94C51C882398
:1042500009F44AC0F701208131812115310539F473
:10426000A60160E070E0C7010E948F1C3EC0F7010C
:10427000868197818C0D9D1D448155814817590772
:1042800038F480859185892B79F586EB93E02AC0F7
:104290003A832983F701828193819C838B83DE8219
:1042A000CD8218861F821A861986A301B401C50122
:1042B0000E941B204F815885F70126813781240FEA
:1042C000351F378326832B813C81338322832985C5
:1042D0003A85318720874C155D0539F0232B21F471
:1042E0008DEF93E09187808780E02A960FB6F8944F
:1042F000DEBF0FBECDBFDF91CF911F910F91FF9019
:10430000EF90DF90CF90BF90AF909F908F907F9075
:104310006F900895FB01668177816115710551F4F5
:10432000FC0120853185232B39F42BE733E03187DD
:10433000208702C00C94EF2080E008958627682F24
:1043400062956827062E669566956025062E669509
:1043500060256770082E892F669507946795902DC4
:104360008627069467959025862708950895FC0171
:10437000A489B58912961C92129714961C921E92CB
:1043800013978FEF9FEF1A969C938E931997138A2A
:10439000128A108A118A1786168611A210A28CE042
:1043A00090E093838283178E168E0895AF92BF920A
:1043B000CF92DF92EF92FF920F931F93CF93DF93F1
:1043C0001F92CDB7DEB78C016115710581F4CE0166
:1043D0000196D80115969C938E93149717969C93EB
:1043E0008E93169719969C938E93189707C0FC018D
:1043F000758364836F5F7F4F77836683D8011496DC
:104400002D913C91159716968D919C911797281791
:10441000390709F057C06DC2608180E090E00E94CA
:104420009E21F801938B828B0488F589E02D07800B
:10443000F085E02DD8011E968D919C911F979C01CF
:104440002F5F3F4F1F963C932E931E9714962D91EE
:104450003C911597D9012C91E80FF91F2083F801A1
:1044600026853785848595852817390709F00DC27B
:10447000068CF78DE02DCF010197D8015F969C93B4
:104480008E935E973A96EE0FFF1FE00FF11F80812B
:10449000918113969C938E931297D8011296ED9169
:1044A000FC911397EF30F10508F450C2F8018481B4
:1044B000958101969583848326813781821793079E
:1044C00009F417C2D8011296ED91FC911397319718
:1044D000EE30F10508F0E7C1EE58FF4F0C94F72DD0
:1044E000D8015496ED91FC915597F184E12CF28618
:1044F000E18614968D919C911597DC018C91970122
:10450000280F311DC90132872187D80152962D917C
:104510003C9153978217930749F481E050968C930E
:1045200050971E968D919C911F9719C081E0F801BC
:10453000818B17C0D8011C968D919C911D97549624
:10454000ED91FC915597258136812817390718F48C
:1045500021E051962C9321E0D80150962C9394831E
:104560008383F801848195810196958384832681D4
:1045700037818217930709F496C1D8011496ED91FB
:10458000FC91159780818C3721F0F80113821282FB
:10459000F0C1D80114968D919C91159701961596AE
:1045A0009C938E93149716962D913C911797821792
:1045B000930709F47BC1D8011496ED91FC911597EE
:1045C00080818C3711F7F80184819581019695835C
:1045D0008483268137818217930709F46AC1D80141
:1045E0001496ED91FC91159780818C3771F6509659
:1045F0001C92F8018481958101969583848326819C
:1046000037818217930709F45CC1D8015496ED9164
:10461000FC9155971182108214968D919C9115975B
:10462000DC018C9190E091838083F80184819581F5
:10463000019695838483268137818217930709F435
:1046400043C1D8015496ED91FC91559714968D91E4
:104650009C911597DC018C91B080A12C9501282BA1
:10466000C90191838083D80114968D919C911597EF
:10467000019615969C938E93149716962D913C91C6
:1046800017978217930709F422C1D8011496ED9168
:10469000FC9115978081843681F08E3609F49DC097
:1046A000813609F072CFD8015496ED91FC9155975F
:1046B000828381E050968C9354CFD8015496ED912B
:1046C000FC9155978283F8018481958101969583A9
:1046D0008483268137818217930709F4FBC0D801B0
:1046E00091961C921E9290971D961C921E921C975A
:1046F0001496ED91FC911597808190E01D969C9306
:104700008E931C97F801848195810196958384830B
:10471000268137818217930709F4DFC0D8011C96E0
:10472000DC901C97C12C1D96DC92CE921C9714969F
:10473000ED91FC9115978081F601E80FF11DCF01F5
:104740001D96FC93EE931C975496ED91FC91559712
:10475000258136812817390718F481E051968C930A
:10476000D8015E96ED91FC915F97CF0101965F961F
:104770009C938E935E973B96EE0FFF1FE00FF11F09
:1047800088E090E0918380834FC0D80152968D914C
:104790009C9153970E94B621F801938B828B0488D9
:1047A000F589E02D12861186D80114968D919C9181
:1047B0001597DC018C9190E092878187F8018481C4
:1047C000958101969583848326813781821793078B
:1047D00009F086CE89E090E089C0D8015496ED9129
:1047E000FC9155978283F801848195810196958388
:1047F0008483268137818217930709F471C0D80119
:1048000014968D919C911597019615969C938E9375
:10481000149716962D913C9117978217930709F0DC
:1048200089CE8BE090E062C0F80184819581019689
:1048300095838483268137818217930709F453C0B7
:10484000D8011F961C921E921E9753961C921E9280
:1048500052971C968D919C911D971496ED91FC9109
:104860001597892B09F0D8CD31971596FC93EE93C7
:10487000149765C0D8011496ED91FC91159760814D
:1048800052968D919C915397CACDF8018481958160
:10489000019695838483268137818217930751F788
:1048A0008EE090E023C08CE090E005C081E090E0D5
:1048B0001DC082E090E0D80113969C938E931297CE
:1048C00018C083E090E012C084E090E0F4CF85E06F
:1048D00090E00CC086E090E0EECF87E090E006C06C
:1048E0008AE090E0E8CF8DE090E0E5CFF801938397
:1048F0008283D80114968D919C91159718962D91CD
:104900003C91199782179307A1F512962D913C912E
:1049100013972D30310569F51F961C921E921E9734
:1049200053961C921E9252971C962D913C911D9766
:10493000232BF9F4019715969C938E9314975E960A
:10494000ED91FC915F97CF01019798CDE058FF4F13
:104950000C94F72DF80184819581019695838483C9
:10496000268137818217930709F00FCF88E090E006
:10497000A2CF0F90DF91CF911F910F91FF90EF90F9
:10498000DF90CF90BF90AF900895CF92DF92EF92DB
:10499000FF92CF93DF93EC01E62FC62ED12CE12CB2
:1049A000F12C39892A899B898C89B701A601485045
:1049B000510961097109403751056105710548F4D4
:1049C0006E2F8FE398E00E94211C3C2D2D2D9E2DF3
:1049D0008F2D398B2A8B9B8B8C8BDF91CF91FF9006
:1049E000EF90DF90CF9008950F931F93CF93DF93B5
:1049F000EB018B01040F151F80E090E0C017D10779
:104A000021F069910E949E21F9CFDF91CF911F91F2
:104A10000F910C94B6214F925F926F927F92AF925A
:104A2000BF92CF92DF92EF92FF920F931F93CF939B
:104A3000DF93CDB7DEB7AD970FB6F894DEBF0FBEEC
:104A4000CDBF2A013B01DC01ED91FC910190F08189
:104A5000E02D19956B017C01570119821A821E867F
:104A60001D86188A1F861C8A1B8A1AA219A21CA2DC
:104A70001BA21DA21FA21EA28FEF9FEF9DA78CA7B6
:104A8000D9A6C8A6FBA6EAA6CE0183969E8B8D8BDF
:104A9000CE0101960E94B72100E010E00415150533
:104AA00050F4B801660D771DCE0101960E94D62103
:104AB0000F5F1F4FF3CF8989F50180838A89818336
:104AC00062E070E080E090E0C701AD960FB6F89428
:104AD000DEBF0FBECDBFDF91CF911F910F91FF9031
:104AE000EF90DF90CF90BF90AF907F906F905F90EE
:104AF0004F9008954F925F926F927F92AF92BF92C4
:104B0000CF92DF92EF92FF920F931F93CF93DF9399
:104B1000CDB7DEB7A6970FB6F894DEBF0FBECDBFF8
:104B20008C01C62ED12CFC0145A856A867A870ACF4
:104B3000730142E050E0B601CE0101960E94642E5E
:104B400049815A814416550648F0B6016E5F7F4F81
:104B5000C3010E94642E69817A8104C0E12CF12C8A
:104B600060E070E0E114F10411F5F801E1ACF2ACA1
:104B700060E070E080E090E00E94EA1329833A83CD
:104B80004B835C836D837E838F839887AE01405F08
:104B90005F4FB701CE0101960E9437198FE0FE01E9
:104BA0007096D80101900D928A95E1F715C0C70162
:104BB0000E94EA1329833A834B835C836D837E834F
:104BC0008F839887F80161AD72ADA801CE0101967F
:104BD0000E94C717882349F2F801E7A8F0ACC1ACDE
:104BE000D2AC60E070E080E090E00E94EA132F8F8A
:104BF00038A349A35AA36BA37CA38DA39EA3AE01A4
:104C00004F5F5F4FB601CE014F960E9437198FE07C
:104C1000FE013196D70101900D928A95E1F7F801D6
:104C200061AD72AD15A29701A801C8010F960E944F
:104C30008707A6960FB6F894DEBF0FBECDBFDF91F3
:104C4000CF911F910F91FF90EF90DF90CF90BF9089
:104C5000AF907F906F905F904F900895CF93DF93C8
:104C6000EC01E881F9810190F081E02D19956BAF9D
:104C70007CAF8DAF9EAFE881F9810190F081E02D8E
:104C8000CE011995FE01E459FF4F60837183828341
:104C9000938360E0CE0106960E947A254C855D855F
:104CA0006E857F8584E099E00E94CD2B8CE0809317
:104CB000B800DF91CF91089590E0FC013197E13188
:104CC000F10508F048C0E157FF4F0C94F72D809193
:104CD00080008F7703C0809180008F7D809380005B
:104CE000089584B58F7702C084B58F7D84BD089503
:104CF0008091B0008F7703C08091B0008F7D80934A
:104D0000B0000895809190008F7707C08091900047
:104D10008F7D03C080919000877F809390000895DD
:104D20008091A0008F7707C08091A0008F7D03C085
:104D30008091A000877F8093A0000895809120013A
:104D40008F7707C0809120018F7D03C08091200163
:104D5000877F809320010895CF93DF9390E0FC013B
:104D6000E650FE4F2491FC01E05CFD4F84918823C6
:104D700049F190E0880F991FFC01E654FD4FA59181
:104D8000B49180569D4FFC01C591D4919FB761119C
:104D900008C0F8948C91209582238C93888182237B
:104DA0000AC0623051F4F8948C91322F30958323ED
:104DB0008C938881822B888304C0F8948C91822BF9
:104DC0008C939FBFDF91CF9108950F931F93CF9343
:104DD000DF931F92CDB7DEB7282F30E0F901EC54F6
:104DE000FE4F8491F901E650FE4F1491F901E05C09
:104DF000FD4F04910023C9F0882321F069830E94AC
:104E00005C266981E02FF0E0EE0FFF1FE056FD4FBA
:104E1000A591B4919FB7F8948C91611103C010953E
:104E2000812301C0812B8C939FBF0F90DF91CF9185
:104E30001F910F910895CF93DF93282F30E0F90150
:104E4000EC54FE4F8491F901E650FE4FD491F901E4
:104E5000E05CFD4FC491CC2391F081110E945C264F
:104E6000EC2FF0E0EE0FFF1FEA57FD4FA591B49134
:104E70002C912D2381E090E021F480E002C080E0BD
:104E800090E0DF91CF910895863308F0865320910A
:104E90007B00982F9870277F922B90937B008770D0
:104EA0002091060290E4299F90011124822B809387
:104EB0007C0080917A00806480937A0080917A00EF
:104EC00086FDFCCF809178002091790090E0922BB4
:104ED00008951F93CF93DF93182FEB0161E00E9499
:104EE000AC26209711F460E004C0CF3FD10539F41F
:104EF00061E0812FDF91CF911F910C94E526E12F86
:104F0000F0E0EC54FE4F449150E0FA013197E1316A
:104F1000F10508F091C0E056FF4F0C94F72D84B5D1
:104F2000806884BDC7BD8DC084B5806284BDC8BDA6
:104F300088C080918000806880938000D093890031
:104F4000C09388007EC08091800080628093800042
:104F5000D0938B00C0938A0074C08091B0008068A9
:104F60008093B000C093B3006CC08091B0008062A9
:104F70008093B000C093B40064C0809190008068BA
:104F800080939000D0939900C09398005AC080916C
:104F90009000806280939000D0939B00C0939A0011
:104FA00050C080919000886080939000D0939D00C5
:104FB000C0939C0046C08091A00080688093A000B0
:104FC0008091A0008F7B8093A000D093A900C09314
:104FD000A80037C08091A00080628093A000D09389
:104FE000AB00C093AA002DC08091A0008860809380
:104FF000A000D093AD00C093AC0023C080912001ED
:10500000806880932001D0932901C093280119C0A2
:1050100080912001806280932001D0932B01C09366
:105020002A010FC080912001886080932001D093D5
:105030002D01C0932C0105C0C038D1050CF058CF0C
:1050400052CFDF91CF911F9108951F920F920FB60B
:105050000F9211242F933F938F939F93AF93BF93FE
:105060008091960890919708A0919808B09199081E
:105070003091950823E0230F2D3720F40196A11DD0
:10508000B11D05C026E8230F0296A11DB11D209376
:1050900095088093960890939708A0939808B093EA
:1050A000990880919A0890919B08A0919C08B091D2
:1050B0009D080196A11DB11D80939A0890939B08AD
:1050C000A0939C08B0939D08BF91AF919F918F9141
:1050D0003F912F910F900FBE0F901F9018952FB7F3
:1050E000F894609196087091970880919808909133
:1050F00099082FBF08953FB7F89480919A0890912E
:105100009B08A0919C08B0919D0826B5A89B05C05E
:105110002F3F19F00196A11DB11D3FBF6627782FC3
:10512000892F9A2F620F711D811D911D42E0660F1C
:10513000771F881F991F4A95D1F70895CF92DF9264
:10514000EF92FF92CF93DF936B017C010E947B284B
:10515000EB01C114D104E104F10479F00E947B2831
:105160006C1B7D0B683E7340A0F381E0C81AD10828
:10517000E108F108C851DC4FECCFDF91CF91FF90EF
:10518000EF90DF90CF9008950197009739F0880F46
:10519000991F880F991F02970197F1F70895789446
:1051A00084B5826084BD84B5816084BD85B582602C
:1051B00085BD85B5816085BDEEE6F0E080818160CA
:1051C0008083E1E8F0E010828081826080838081CA
:1051D00081608083E0E8F0E0808181608083E1EBA2
:1051E000F0E0808184608083E0EBF0E0808181608A
:1051F0008083E1E9F0E0808182608083808181604A
:105200008083E0E9F0E0808181608083E1EAF0E082
:10521000808182608083808181608083E0EAF0E029
:10522000808181608083E1E2F1E08081826080831F
:10523000808181608083E0E2F1E080818160808311
:10524000EAE7F0E0808184608083808182608083EF
:105250008081816080838081806880831092C1001A
:105260000895FC0124853585F901E05CFF4F8081BC
:105270009181F901EE5BFF4F20813181821B930BFD
:105280008F7399270895FC0184859585FC01E05C66
:10529000FF4F40815181FC01EE5BFF4F2081318146
:1052A0004217530741F00190F081E02DE80FF91FFC
:1052B000808190E008958FEF9FEF0895FC01848531
:1052C0009585FC01E05CFF4F40815181FC01EE5B64
:1052D000FF4F208131814217530779F0A081B181BE
:1052E000A80FB91F8C91208131812F5F3F4F2F7301
:1052F00033273183208390E008958FEF9FEF089547
:10530000FC0181A1882329F0A489B5898C9186FFAD
:10531000FBCF11A20895CF93DF93FC01268537853B
:10532000D901A05CBF4F8D919C91119701968F730D
:105330009927E901CE5BDF4F488159818417950792
:10534000D9F30D90BC91A02DA20FB31F6C93A6852D
:10535000B785A05CBF4F11969C938E93A689B789A1
:105360002C9181E090E0078C02C0880F991F0A946D
:10537000E2F7282B2C9381E081A30488F589E02DA6
:1053800080818064808381E090E0DF91CF910895F7
:10539000FB01E05CFF4F208131812F5F3F4F2F7376
:1053A0003327DB01AE5BBF4F4D915C91241735076E
:1053B00039F0A081B181A60FB71F8C933183208370
:1053C00008951F920F920FB60F9211240BB60F92F1
:1053D0002F933F934F935F936F937F938F939F93FD
:1053E000AF93BF93EF93FF938091C00082FD07C0FE
:1053F0008091C60062E07BE00E94C82902C08091D3
:10540000C600FF91EF91BF91AF919F918F917F91D6
:105410006F915F914F913F912F910F900BBE0F9025
:105420000FBE0F901F90189508951F920F920FB600
:105430000F9211240BB60F922F933F934F935F93CC
:105440006F937F938F939F93AF93BF93EF93FF934C
:105450008091C80082FD07C08091CE006AE77AE0A3
:105460000E94C82902C08091CE00FF91EF91BF91A8
:10547000AF919F918F917F916F915F914F913F91EC
:105480002F910F900BBE0F900FBE0F901F9018958D
:1054900008951F920F920FB60F9211240BB60F9220
:1054A0002F933F934F935F936F937F938F939F932C
:1054B000AF93BF93EF93FF938091D00082FD07C01D
:1054C0008091D60062EF79E00E94C82902C08091E5
:1054D000D600FF91EF91BF91AF919F918F917F91F6
:1054E0006F915F914F913F912F910F900BBE0F9055
:1054F0000FBE0F901F90189508951F920F920FB630
:105500000F9211240BB60F922F933F934F935F93FB
:105510006F937F938F939F93AF93BF93EF93FF937B
:105520008091300182FD07C0809136016AE679E002
:105530000E94C82902C080913601FF91EF91BF916E
:10554000AF919F918F917F916F915F914F913F911B
:105550002F910F900BBE0F900FBE0F901F901895BC
:1055600084E099E00E943129892B11F00E94ED0816
:1055700082EE98E00E943129892B11F00E94142AB2
:1055800080EC98E00E943129892B11F00E94482A72
:105590008EE998E00E943129892B11F00C947C2A25
:1055A00008951F920F920FB60F9211240BB60F920F
:1055B0002F933F938F939F93EF93FF932091FE0A36
:1055C0003091FF0A8091000B9091010B2817390749
:1055D00031F48091C1008F7D8093C10014C0E091AF
:1055E000000BF091010BE254F54F20818091000BEC
:1055F0009091010B01968F7399279093010B8093E3
:10560000000B2093C600FF91EF919F918F913F91E6
:105610002F910F900BBE0F900FBE0F901F901895FB
:105620001F920F920FB60F9211240BB60F922F9369
:105630003F938F939F93EF93FF932091760A30913E
:10564000770A8091780A9091790A2817390731F4FE
:105650008091C9008F7D8093C90014C0E091780AC1
:10566000F091790AEA5CF54F20818091780A909157
:10567000790A01968F7399279093790A8093780A13
:105680002093CE00FF91EF919F918F913F912F91A9
:105690000F900BBE0F900FBE0F901F9018951F928A
:1056A0000F920FB60F9211240BB60F922F933F93C8
:1056B0008F939F93EF93FF932091EE093091EF0921
:1056C0008091F0099091F1092817390731F4809100
:1056D000D1008F7D8093D10014C0E091F009F0914A
:1056E000F109E255F64F20818091F0099091F1097E
:1056F00001968F7399279093F1098093F009209375
:10570000D600FF91EF919F918F913F912F910F9034
:105710000BBE0F900FBE0F901F9018951F920F9207
:105720000FB60F9211240BB60F922F933F938F93C6
:105730009F93EF93FF9320916609309167098091C1
:105740006809909169092817390731F4809131016E
:105750008F7D8093310114C0E0916809F09169094F
:10576000EA5DF64F20818091680990916909019660
:105770008F73992790936909809368092093360164
:10578000FF91EF919F918F913F912F910F900BBEC1
:105790000F900FBE0F901F901895CF92DF92EF924F
:1057A000FF92CF93DF93EC016A017B01411581EEFB
:1057B000580761057105F9F0EC89FD8981E090E0F9
:1057C00008A002C0880F991F0A94E2F7808360E066
:1057D00079E08DE390E0A70196010E94D52D21503C
:1057E0003109410951095695479537952795211556
:1057F00080E1380798F0EC89FD89108260E874E850
:105800008EE190E0A70196010E94D52D215031092B
:10581000410951095695479537952795E889F989A2
:105820003083EA89FB89208319A2EE89FF894081B0
:1058300081E090E09C010C8C02C0220F331F0A947F
:10584000E2F7422B4083EE89FF8940819C010D8C59
:1058500002C0220F331F0A94E2F7422B4083EE89E5
:10586000FF8940819C010E8C02C0220F331F0A94D5
:10587000E2F7422B4083EE89FF8920810F8C02C022
:10588000880F991F0A94E2F7809582238083DF9125
:10589000CF91FF90EF90DF90CF900895CF9310922B
:1058A00007091092060988EE93E0A0E0B0E080932B
:1058B000080990930909A0930A09B0930B092BE6F4
:1058C00034E0309305092093040942E05BE05093F3
:1058D0001109409310094EEB5AE05093130940937D
:1058E000120945EC50E0509315094093140944EC1B
:1058F00050E0509317094093160940EC50E0509344
:1059000019094093180941EC50E050931B0940934A
:105910001A0942EC50E050931D0940931C0946ECD3
:1059200050E050931F0940931E09C4E0C093200922
:10593000F3E0F0932109E7E0E093220975E070932A
:10594000230961E0609324091092E5081092E408AD
:105950008093E6089093E708A093E808B093E908DD
:105960003093E3082093E2084AE75AE05093EF08A7
:105970004093EE0846E35AE05093F1084093F00854
:105980004DEC50E05093F3084093F2084CEC50E09B
:105990005093F5084093F40848EC50E05093F70812
:1059A0004093F60849EC50E05093F9084093F8080A
:1059B0004AEC50E05093FB084093FA084EEC50E05C
:1059C0005093FD084093FC08C093FE08F093FF0835
:1059D000E093000970930109609302091092C308D3
:1059E0001092C2088093C4089093C508A093C6087B
:1059F000B093C7083093C1082093C00842EF59E024
:105A00005093CD084093CC084EEA59E05093CF080C
:105A10004093CE0845ED50E05093D1084093D00814
:105A200044ED50E05093D3084093D20840ED50E04D
:105A30005093D5084093D40841ED50E05093D708D7
:105A40004093D60842ED50E05093D9084093D808CF
:105A500046ED50E05093DB084093DA08C093DC0831
:105A6000F093DD08E093DE087093DF086093E008B0
:105A70001092A1081092A0088093A2089093A30806
:105A8000A093A408B093A50830939F0820939E0884
:105A90008AE699E09093AB088093AA0886E299E0A1
:105AA0009093AD088093AC0885E391E09093AF08A4
:105AB0008093AE0884E391E09093B1088093B0089E
:105AC00080E391E09093B3088093B20881E391E082
:105AD0009093B5088093B40882E391E09093B7085F
