:100000000C94B2000C94DA000C94DA000C94DA0030
:100010000C94DA000C94DA000C94DA000C94DA00F8
:100020000C94DA000C94DA000C94DA000C94DA00E8
:100030000C94DA000C94DA000C94DA000C94DA00D8
:100040000C94860B0C94DA000C94030D0C94460D62
:100050000C94DA000C94DA000C94DA000C94DA00B8
:100060000C9405050C94DA00100213021B02230203
:100070002E02330249024E02540259025D0263020B
:10008000710289029C02A102BE02BE02BE02BE0231
:10009000BE02BE02BE02BE02BE02BE02BE02BE0260
:1000A000BE02BE02BE02BE02BE02BE02BE02BE0250
:1000B000BE02BE02BE02BE02BE02BE02BE02BE0240
:1000C000BE02BE02BE02BE02B902BD06D206E906EB
:1000D000050729074407630764081E089E084808A7
:1000E000A206A507B3086008AB06C606DD06F9063A
:1000F0001707380757071D097D0892089E089606BE
:100100009907BE0800000007000201000003040672
:1001100000000000000000000102040810204080E0
:100120000102040810200102040810200404040441
:100130000404040402020202020203030303030391
:100140000000000023002600290000000000250018
:1001500028002B0000000000240027002A00CE0306
:10016000450A020E11241FBECFEFD8E0DEBFCDBF7F
:1001700011E0A0E0B1E0E2E9FDE102C005900D92DE
:10018000AE33B107D9F713E0AEE3B1E001C01D9281
:10019000A73FB107E1F711E0C4E6D1E004C0229720
:1001A000FE010E94A40ECE35D107C9F70E940103BB
:1001B0000C94C70E0C940000DC011296ED91FC919A
:1001C00013978189882311F085E6089580E00895CA
:1001D000DC011296ED91FC91139780890895DC0162
:1001E0001296ED91FC911397848995890895DC010D
:1001F00014968D919C911597DC01ED91FC910480F2
:10020000F581E02D09940895FC01828193810C947D
:100210003206FC0182819381FC01758B648B0C9406
:100220003206EF92FF920F931F93CF93DF931F92AB
:10023000CDB7DEB78C01DC01ED91FC910190F0812E
:10024000E02D0995811145C0D801ED91FC91028006
:10025000F381E02DC801099581113BC0E12CF12CFF
:10026000F80184819581DC01ED91FC910480F58198
:10027000E02D09951816190654F5F8018481958129
:10028000DC01ED91FC910680F781E02D09958983D1
:10029000BE016F5F7F4FF801828193810E945106FA
:1002A000FFEFEF1AFF0AD801ED91FC910190F08168
:1002B000E02DC801099581110AC0D801ED91FC918A
:1002C0000280F381E02DC8010995882349F2C70116
:1002D00002C080E090E00F90DF91CF911F910F91CD
:1002E000FF90EF9008950F931F93CF93DF93EC014E
:1002F00000E010E08C819D81DC01ED91FC91048097
:10030000F581E02D099518161906B4F5CE010E9465
:100310001101080F191FE881F9810280F381E02D96
:10032000CE010995E881F981882351F0AA81BB812A
:1003300054966D917C9155970088F189E02D12C0FB
:100340000190F081E02DCE010995882399F2E88192
:10035000F981AA81BB8154966D917C915597068451
:10036000F785E02DCE010995E881F9810480F581BA
:10037000E02DCE010995BECFC801DF91CF911F912D
:100380000F9108956DE574E08BE792E00E943B0ABF
:1003900064E874E08BE792E00E94400A8CE080936E
:1003A000B80040E052EC61E070E089ED92E00E941C
:1003B000810D88E290E0909372018093710183E84F
:1003C00093E090937401809373018CE691E0909395
:1003D0005F0180935E018AE491E00E94320680E230
:1003E00090E090930502809304028BEA93E090934F
:1003F0000702809306020895CF92DF92EF92FF9258
:100400000F931F93CF93DF93E901488150E041336D
:10041000510508F0B3C0FA01EC5CFF4F0C94A20E3A
:100420000E94DC0B02C00E94D00B688379838A8310
:100430009B8384E0A7C089819A81009709F4A1C0B9
:100440000E94250C9EC069817A816115710509F4AD
:1004500098C080E090E00E94FF0B93C041E250E022
:1004600060E070E011C08091F3039091F4034DB708
:100470005EB7009719F4475F534002C0481B590B01
:10048000662757FD6095762F488359836A837B835F
:10049000D0CF6A8189810E94720A73C089810E94CB
:1004A000E10A888381E06EC06A8189810E94AB0A7B
:1004B00068C089810E940A0B10C06A8170E089813E
:1004C0000E94270B5EC02F5F3F4F8B819C81820F64
:1004D000931F9C838B8389819A819983888382E08F
:1004E00051C02F5F3F4F8B819C81820F931F9C8354
:1004F0008B83C980DA80EB80FC808601000F111F9E
:10050000000F111FA801B701CE010E94A80EC8015B
:100510003AC02F5F3F4F8B819C81820F931F9C833A
:100520008B83C980DA80EB80FC80A601B701CE0105
:100530000E94A80EC60127C0DC01ED91FC9140810C
:1005400014C0F980FC0100811181D801FC926F2D4B
:100550008BE792E00E94280AF801408160E070E099
:100560008AE792E00E9454094F2D50E060E070E06D
:100570008BCF4AE250E060E070E086CF8FEF9FEFD4
:1005800002C080E090E0DF91CF911F910F91FF902A
:10059000EF90DF90CF900895CF93DF93EC01CB01E4
:1005A0006B817C812A81243691F46115710579F083
:1005B0002F8138854D815E810E94FC0197FF05C027
:1005C0008EE68A831C821B8202C09C838B83DF9110
:1005D000CF910895E0913E01F0913F010484F585AB
:1005E000E02D8EE391E0099580910B02882341F084
:1005F00067E771E08FEF91E00E94CC0210920B024E
:1006000008950E94300C0E94C201CDE3DDE00E94FB
:10061000EA022097E1F30E943D0DF9CF0F931F935B
:10062000CF93DF93EC018B01E881F9816F5F7F4FFE
:100630000280F381E02D41E050E00995E881F981E5
:100640000280F381E02D41E050E0B801CE01DF915E
:10065000CF911F910F910994EF92FF920F931F93E7
:10066000CF93DF93CDB7DEB762970FB6F894DEBFB6
:100670000FBECDBF8C018BE0FB01DE011196019016
:100680000D928A95E1F71B861A86E12CF12C2C81BC
:100690003D818A859B85E216F30668F4E885F98535
:1006A000EE0DFF1D60810E9438099B878A878FEFBE
:1006B000E81AF80AECCF0E9450099B878A874CE71A
:1006C0005CE76CE770E04C875D876E877F87D801B9
:1006D000ED91FC910280F381E02D43E050E0BE01FA
:1006E000645F7F4FC8010995BE016F5F7F4FC801EE
:1006F0000E940E038B818A8BD801ED91FC910280C0
:10070000F381E02D41E050E0BE016E5E7F4FC801F5
:1007100009958B818436F9F48C819D81998B888B26
:10072000BE01605F7F4FC8010E940E034C815D8156
:100730004115510551F0D801ED91FC9168857985FD
:100740000280F381E02DC8010995BE01665F7F4FED
:10075000C8010E940E0362960FB6F894DEBF0FBE6A
:10076000CDBFDF91CF911F910F91FF90EF90089532
:100770000F931F93CF93DF938B01FC01C681D78129
:100780006A817B81C8010E94CC02B801888199816D
:10079000DF91CF911F910F910C942C030F931F9316
:1007A000CF93DF93109200021092FF01109201028A
:1007B000109203021092020210920502109204029B
:1007C00010920702109206020FEF1FEF109309021A
:1007D000009308028AE08093FA01C9E7D1E080E83B
:1007E00090E09093FC018093FB018AE791E0909365
:1007F000FE018093FD0160E070E08AE792E00E94D4
:1008000051098883682F8BE792E00E94280AD093D1
:100810007801C093770110926D0110926C011092D3
:100820006E011092700110926F011092720110927D
:10083000710110927401109273011093760100936C
:100840007501AAE4B1E01C9210924B01109257017D
:1008500010925601109259011092580110925D01A8
:1008600010925C0110925F0110925E0110926B0178
:1008700010926A01E6E4F1E089ED92E091838083D1
:1008800027E731E03093490120934801B0934101BB
:10089000A093400190934301809342018BE091E04B
:1008A00090933F0180933E01F0934501E093440112
:1008B000DF91CF911F910F9108950F931F93CF93C5
:1008C000DF938C0181E080930B02CBEAD3E0CE0171
:1008D0008B5A93408017910734F48BE792E00E9483
:1008E00060098993F4CFC80117FF02C080E090E04F
:1008F000909303028093020284E680930102DF91C9
:10090000CF911F910F91089560910202709103029F
:1009100080910A02811117C080910B02882359F03F
:10092000E0917B02F0917C020190F081E02D6FEF6D
:100930008BE792E009948BE792E00E94DF0981E067
:1009400080930A020895AB015527609106027091C9
:1009500007028BE792E00E94B20910920A02089502
:100960001092790281E0809377021092760261E022
:1009700082E10E94AB0A61E083E10E94AB0AE9EBED
:10098000F0E080818E7F808380818D7F808388E40A
:100990008093B80085E48093BC000895880F80930D
:1009A000BA000895613298F420917902243089F4D4
:1009B00060932E02FC0180E392E0DC012A2F281BC9
:1009C000261718F421912D93F9CF80E0089581E046
:1009D000089582E0089590937302809372020895BF
:1009E0009093750280937402089585ED8093BC0006
:1009F0008091BC0084FDFCCF10927902089585ECB3
:100A00008093BC001092790208951F920F920FB646
:100A10000F9211242F933F934F935F936F937F9384
:100A20008F939F93AF93BF93EF93FF938091B90000
:100A3000887F803609F49CC068F5883209F45BC071
:100A400090F4803109F454C038F4882309F4F5C0D7
:100A5000883009F44DC0F5C0883109F44CC08032AB
:100A600009F45DC0EEC0803409F468C048F48033F6
:100A700009F455C0883309F0E4C080930C02A8C083
:100A8000803509F44FC0883509F45DC0883409F019
:100A9000D8C0D5C0883909F4C6C0A8F4883709F48D
:100AA00067C038F4883609F463C0803709F460C041
:100AB000C8C0883809F4B7C0803909F45FC08038ED
:100AC00009F0BFC05BC0803B09F485C038F4803AB0
:100AD00009F466C0883A09F47EC0B3C0803C09F4CA
:100AE000A6C0883C09F4A3C0883B09F489C0A9C00A
:100AF0008091780210C09091510280915002981715
:100B000070F5E091510281E08E0F80935102F0E088
:100B1000EE5AFD4F80818093BB0085EC85C08093A9
:100B20000C028DC0E091510281E08E0F8093510242
:100B30008091BB00F0E0EE5AFD4F8083909151020E
:100B4000809150026DC0E091510281E08E0F809340
:100B500051028091BB00F0E0EE5AFD4F80838091FE
:100B6000770281116CC081E08093760284EA60C0D4
:100B700083E08093790210920D02CFCF80910D0215
:100B8000803208F050C0E0910D0281E08E0F80931A
:100B90000D028091BB00F0E0E25FFD4F8083BDCF8E
:100BA00080910D02803230F4E0910D02F0E0E25FBE
:100BB000FD4F10820E94F50460910D0270E0E091FB
:100BC0007202F09173028EE092E0099510920D028C
:100BD0000E94FF0436C084E08093790210922F02B5
:100BE00010922E02E0917402F091750209958091A5
:100BF0002E02811105C081E080932E0210923002F6
:100C0000E0912F0281E08E0F80932F02F0E0E05DF3
:100C1000FD4F80818093BB0090912F0280912E0226
:100C2000981708F47ACF85E88093BC000AC085EC59
:100C30008093BC001092790204C010920C020E94B2
:100C4000F504FF91EF91BF91AF919F918F917F91AB
:100C50006F915F914F913F912F910F900FBE0F9029
:100C60001F901895FC01A489B58912961C921297C1
:100C700014961C921E9213978FEF9FEF1A969C93D7
:100C80008E931997138A128A108A118A17861686EC
:100C900011A210A28CE090E093838283178E168EAF
:100CA0000895AF92BF92CF92DF92EF92FF920F938F
:100CB0001F93CF93DF931F92CDB7DEB78C016115E1
:100CC000710581F4CE010196D80115969C938E93FF
:100CD000149717969C938E93169719969C938E93C0
:100CE000189707C0FC01758364836F5F7F4F77831C
:100CF0006683D80114962D913C91159716968D9187
:100D00009C9117972817390709F08AC16BC28E3654
:100D100009F402C2813609F0D3C1D8015496ED918D
:100D2000FC915597828381E050968C93F8018481E1
:100D30009581019695838483268137818217930755
:100D400009F42AC2D8011496ED91FC91159780817F
:100D50008C3709F0B5C1D80114968D919C911597E7
:100D6000019615969C938E93149716962D913C910F
:100D700017978217930709F412C2D8011496ED91C0
:100D8000FC91159780818C3709F09AC1F801848114
:100D900095810196958384832681378182179307F5
:100DA00009F400C2D8011496ED91FC911597808149
:100DB0008C3709F085C150961C92F8018481958189
:100DC000019695838483268137818217930709F4DE
:100DD000F1C1D8015496ED91FC9155971182108282
:100DE00014968D919C911597DC018C9190E09183E4
:100DF0008083F8018481958101969583848326817F
:100E000037818217930709F4D8C1D8015496ED9120
:100E1000FC91559714968D919C911597DC018C91BE
:100E2000B080A12C9501282BC90191838083D80122
:100E300014968D919C911597019615969C938E937F
:100E4000149716962D913C9117978217930709F4E2
:100E5000B7C1D8011496ED91FC9115978081843625
:100E600009F055CFD8015496ED91FC9155978283A6
:100E7000F801848195810196958384832681378149
:100E80008217930709F49FC1D80191961C921E9274
:100E900090971D961C921E921C971496ED91FC91B2
:100EA0001597808190E01D969C938E931C97F80176
:100EB0008481958101969583848326813781821769
:100EC000930709F483C1D8011C96DC901C97C12CB0
:100ED0001D96DC92CE921C971496ED91FC9115977D
:100EE0008081F601E80FF11DCF011D96FC93EE9372
:100EF0001C975496ED91FC915597258136812817C2
:100F0000390718F481E051968C93D8015E96ED91E3
:100F1000FC915F97CF0101965F969C938E935E97AD
:100F20003B96EE0FFF1FE00FF11F88E090E09183EA
:100F30008083F8018481958101969583848326813D
:100F400037818217930709F447C1D8011F961C9275
:100F50001E921E9753961C921E9252971C968D912C
:100F60009C911D97892B09F45DC1D8011496ED91D0
:100F7000FC911597608180E090E00E943809F801AB
:100F8000938B828B0488F589E02D0780F085E02D16
:100F9000D8011E968D919C911F979C012F5F3F4F0A
:100FA0001F963C932E931E9714962D913C91159766
:100FB000D9012C91E80FF91F2083F8012685378588
:100FC000848595852817390709F0D8C0068CF78DD8
:100FD000E02DCF010197D8015F969C938E935E9789
:100FE0003A96EE0FFF1FE00FF11F8081918113965B
:100FF0009C938E931297D8011296ED91FC911397C2
:10100000EF30F10508F415C1F8018481958101964E
:1010100095838483268137818217930709F4E2C080
:10102000D8011296ED91FC9113973197EE30F105AE
:1010300008F0B2C0EB59FF4F0C94A20ED8015496A1
:10104000ED91FC915597F184E12CF286E18614969E
:101050008D919C911597DC018C919701280F311D82
:10106000C90132872187D80152962D913C9153971F
:101070008217930749F481E050968C9350971E96FF
:101080008D919C911F9719C081E0F801818B4ECE04
:10109000D8011C968D919C911D975496ED91FC91D1
:1010A0005597258136812817390718F421E0519684
:1010B0002C9321E0D80150962C939483838336CED1
:1010C000F80113821282C8C0D80152968D919C916A
:1010D00053970E945009F801938B828B0488F589FD
:1010E000E02D12861186D80114968D919C9115974A
:1010F000DC018C9190E092878187F8018481958151
:10110000019695838483268137818217930709F09E
:1011100095CF89E090E063C0D8015496ED91FC91A1
:1011200055978283F8018481958101969583848304
:10113000268137818217930709F44BC0D801149692
:101140008D919C911597019615969C938E9314976B
:1011500016962D913C9117978217930709F098CF17
:101160008BE090E03CC0D8011496ED91FC9115976E
:10117000608152968D919C915397FFCEF8018481A6
:101180009581019695838483268137818217930701
:1011900051F78EE090E023C08CE090E005C081E044
:1011A00090E01DC082E090E0D80113969C938E934E
:1011B000129718C083E090E012C084E090E0F4CF72
:1011C00085E090E00CC086E090E0EECF87E090E014
:1011D00006C08AE090E0E8CF8DE090E0E5CFF8012E
:1011E00093838283D80114962D913C91159718967C
:1011F0008D919C9119972817390771F512968D9149
:101200009C9113970D9741F51F961C921E921E9765
:1012100053961C921E9252971C968D919C911D97ED
:10122000892BD1F45E96ED91FC915F97CF010197E8
:10123000D3CEED58FF4F0C94A20EF8018481958116
:10124000019695838483268137818217930709F05D
:101250003BCF88E090E0A8CF0F90DF91CF911F9116
:101260000F91FF90EF90DF90CF90BF90AF900895D7
:101270008627682F62956827062E669566956025F5
:10128000062E669560256770082E892F669507944F
:101290006795902D86270694679590258627089553
:1012A0000895CB010C94B10ECB01642F0C94B90EB0
:1012B0008091AE0290E02091AF02821B91090895C7
:1012C0002091AF028091AE02281750F4E22FF0E097
:1012D000E055FD4F808190E02F5F2093AF0208958D
:1012E0008FEF9FEF0895E091AF028091AE02E81773
:1012F00030F4F0E0E055FD4F808190E008958FEFED
:101300009FEF08950895E0918702F0918802309749
:10131000E1F03091AF022091AE023217B0F040E020
:10132000242F30E02617370754F4DC01A20FB31F37
:101330005C91D901A055BD4F5C934F5FF1CF1092E6
:10134000AF026093AE02CB0109940895E091890247
:10135000F0918A02309729F010928D0210928C023F
:1013600009940895CF92DF92EF92FF920F931F930B
:10137000CF93DF937C01CB018A0120918B02222342
:1013800089F0EB016B01C40ED51ECC15DD0569F0AB
:101390006991D701ED91FC910190F081E02DC70199
:1013A0000995F3CF642F0E94D204C801DF91CF9139
:1013B0001F910F91FF90EF90DF90CF900895CF9302
:1013C000DF931F92CDB7DEB7698320918B02222372
:1013D000D1F020918C02203240F021E030E0FC017D
:1013E0003383228380E090E015C080918D02E82F46
:1013F000F0E0E257FD4F998190838F5F80938D02DB
:1014000080938C0205C061E0CE0101960E94D20457
:1014100081E090E00F90DF91CF910895FC0113825D
:10142000128248EE53E060E070E0448355836683A7
:10143000778381E291E09183808308951092AF02D7
:101440001092AE0210928D0210928C020C94B00495
:10145000CF93DF93EC01862F0E94CE0486EA99E0B9
:101460000E94F00483E899E00E94EB04CE01DF9132
:10147000CF910C941E0A709388026093870208959E
:1014800070938A026093890208958BE792E00C942E
:101490000E0A833081F028F4813099F08230A1F077
:1014A00008958630A9F08730B9F08430D1F4809166
:1014B00080008F7D03C0809180008F7780938000B3
:1014C000089584B58F7702C084B58F7D84BD08955B
:1014D0008091B0008F7703C08091B0008F7D8093A2
:1014E000B0000895CF93DF9390E0FC01E85EFE4FDB
:1014F0002491FC01E45DFE4F8491882349F190E042
:10150000880F991FFC01EC5AFE4FA591B491865BA0
:101510009E4FFC01C591D4919FB7611108C0F8940A
:101520008C91209582238C93888182230AC062301B
:1015300051F4F8948C91322F309583238C938881C9
:10154000822B888304C0F8948C91822B8C939FBF4C
:10155000DF91CF9108950F931F93CF93DF931F9245
:10156000CDB7DEB7282F30E0F901EC5FFE4F849154
:10157000F901E85EFE4F1491F901E45DFE4F04911C
:101580000023C9F0882321F069830E94490A6981F8
:10159000E02FF0E0EE0FFF1FE65BFE4FA591B49148
:1015A0009FB7F8948C91611103C01095812301C0FD
:1015B000812B8C939FBF0F90DF91CF911F910F9143
:1015C0000895CF93DF93282F30E0F901EC5FFE4FB1
:1015D0008491F901E85EFE4FD491F901E45DFE4F7C
:1015E000C491CC2391F081110E94490AEC2FF0E0C4
:1015F000EE0FFF1FE05CFE4FA591B4912C912D23BF
:1016000081E090E021F480E002C080E090E0DF9192
:10161000CF9108958E3008F08E508770209106018A
:1016200090E4299F90011124822B80937C0080916B
:101630007A00806480937A0080917A0086FDFCCFE6
:10164000809178002091790090E0922B08951F936B
:10165000CF93DF93182FEB0161E00E94720A20976D
:1016600011F460E004C0CF3FD10539F461E0812F6F
:10167000DF91CF911F910C94AB0AE12FF0E0EC5F6A
:10168000FE4FE491E330F9F048F4E130B9F0E23094
:10169000A1F584B5806284BDC8BD34C0E630E9F0F0
:1016A000E73019F1E43049F5809180008062809341
:1016B0008000D0938B00C0938A0024C084B58068DA
:1016C00084BDC7BD1FC0809180008068809380006A
:1016D000D0938900C093880015C08091B0008068C5
:1016E0008093B000C093B3000DC08091B0008062C1
:1016F0008093B000C093B40005C0C038D1050CF091
:10170000B5CFAFCFDF91CF911F9108951F920F9268
:101710000FB60F9211242F933F938F939F93AF9304
:10172000BF938091D1029091D202A091D302B09147
:10173000D4023091D00223E0230F2D3720F40196FC
:10174000A11DB11D05C026E8230F0296A11DB11DE4
:101750002093D0028093D1029093D202A093D3021F
:10176000B093D4028091D5029091D602A091D70275
:10177000B091D8020196A11DB11D8093D50290931E
:10178000D602A093D702B093D802BF91AF919F9198
:101790008F913F912F910F900FBE0F901F90189532
:1017A0002FB7F8946091D1027091D2028091D30248
:1017B0009091D4022FBF08953FB7F8948091D5023D
:1017C0009091D602A091D702B091D80226B5A89BDD
:1017D00005C02F3F19F00196A11DB11D3FBF66271F
:1017E000782F892F9A2F620F711D811D911D42E064
:1017F000660F771F881F991F4A95D1F70895CF92DA
:10180000DF92EF92FF92CF93DF936B017C010E94F6
:10181000DC0BEB01C114D104E104F10479F00E9466
:10182000DC0B6C1B7D0B683E7340A0F381E0C81A93
:10183000D108E108F108C851DC4FECCFDF91CF911E
:10184000FF90EF90DF90CF9008950197009739F0C7
:10185000880F991F880F991F02970197F1F7089534
:10186000789484B5826084BD84B5816084BD85B57B
:10187000826085BD85B5816085BDEEE6F0E0808142
:1018800081608083E1E8F0E0108280818260808363
:10189000808181608083E0E8F0E0808181608083E6
:1018A000E1EBF0E0808184608083E0EBF0E0808118
:1018B00081608083EAE7F0E08081846080838081BA
:1018C0008260808380818160808380818068808362
:1018D0001092C1000895FC0124853585F901E05C72
:1018E000FF4F80819181F901EE5BFF4F20813181B3
:1018F000821B930B8F7399270895FC01848595852E
:10190000FC01E05CFF4F40815181FC01EE5BFF4F29
:10191000208131814217530741F00190F081E02D81
:10192000E80FF91F808190E008958FEF9FEF0895F1
:10193000FC0184859585FC01E05CFF4F408151816D
:10194000FC01EE5BFF4F208131814217530779F094
:10195000A081B181A80FB91F8C91208131812F5FA7
:101960003F4F2F7333273183208390E008958FEF0B
:101970009FEF0895FC0181A1882329F0A489B589EE
:101980008C9186FFFBCF11A20895CF93DF93FC01CA
:1019900026853785D901A05CBF4F8D919C91119709
:1019A00001968F739927E901CE5BDF4F48815981FA
:1019B00084179507D9F30D90BC91A02DA20FB31FEA
:1019C0006C93A685B785A05CBF4F11969C938E93B0
:1019D000A689B7892C9181E090E0078C02C0880F1E
:1019E000991F0A94E2F7282B2C9381E081A30488A5
:1019F000F589E02D80818064808381E090E0DF9133
:101A0000CF91089508951F920F920FB60F9211244F
:101A10002F933F934F938F939F93EF93FF938091D7
:101A2000C00082FD1CC04091C60080917F03909150
:101A3000800301968F73992720918103309182034F
:101A40008217930771F0E0917F03F0918003E15CCE
:101A5000FC4F40839093800380937F0302C080916A
:101A6000C600FF91EF919F918F914F913F912F91E0
:101A70000F900FBE0F901F90189589ED92E00E9475
:101A80006B0C892B11F00C94020D08951F920F928C
:101A90000FB60F9211242F933F938F939F93EF9341
:101AA000FF9320913B0330913C0380913D03909143
:101AB0003E032817390731F48091C1008F7D809350
:101AC000C10014C0E0913D03F0913E03E550FD4F8D
:101AD000208180913D0390913E0301968F73992759
:101AE00090933E0380933D032093C600FF91EF91B6
:101AF0009F918F913F912F910F900FBE0F901F904C
:101B00001895CF92DF92EF92FF92CF93DF93EC0183
:101B10006A017B01411581EE580761057105F9F0F5
:101B2000EC89FD8981E090E008A002C0880F991F30
:101B30000A94E2F7808360E079E08DE390E0A7010A
:101B400096010E94800E2150310941095109569594
:101B5000479537952795211580E1380798F0EC894E
:101B6000FD89108260E874E88EE190E0A70196019B
:101B70000E94800E2150310941095109569547951F
:101B800037952795E889F9893083EA89FB8920838D
:101B900019A2EE89FF89408181E090E09C010C8CC4
:101BA00002C0220F331F0A94E2F7422B4083EE89D2
:101BB000FF8940819C010D8C02C0220F331F0A94C3
:101BC000E2F7422B4083EE89FF8940819C010E8C15
:101BD00002C0220F331F0A94E2F7422B4083EE89A2
:101BE000FF8920810F8C02C0880F991F0A94E2F7A9
:101BF000809582238083DF91CF91FF90EF90DF90DB
:101C0000CF9008951092DC021092DB0288EE93E0F0
:101C1000A0E0B0E08093DD029093DE02A093DF02AB
:101C2000B093E00281E391E09093DA028093D902CD
:101C30008FE393E09093E6028093E5028BEF92E0CE
:101C40009093E8028093E70285EC90E09093EA029B
:101C50008093E90284EC90E09093EC028093EB0295
:101C600080EC90E09093EE028093ED0281EC90E0A6
:101C70009093F0028093EF0282EC90E09093F20256
:101C80008093F10286EC90E09093F4028093F3024B
:101C900084E08093F50283E08093F60287E08093EE
:101CA000F70285E08093F80281E08093F9020895BD
:101CB000CF92DF92EF92FF920F931F93CF93DF9318
:101CC0006C017A01EB01E60EF71E00E010E0CE1584
:101CD000DF0561F06991D601ED91FC910190F081F1
:101CE000E02DC6010995080F191FF1CFC801DF913A
:101CF000CF911F910F91FF90EF90DF90CF900895BB
:101D0000A1E21A2EAA1BBB1BFD010DC0AA1FBB1FFF
:101D1000EE1FFF1FA217B307E407F50720F0A21B71
:101D2000B30BE40BF50B661F771F881F991F1A94DE
:101D300069F760957095809590959B01AC01BD0108
:101D4000CF010895EE0FFF1F0590F491E02D099447
:101D5000FB01DC0102C001900D9241505040D8F7C8
:101D60000895F999FECF92BD81BDF89A992780B563
:101D70000895262FF999FECF1FBA92BD81BD20BDCF
:101D80000FB6F894FA9AF99A0FBE01960895F8944E
:021D9000FFCF83
:101D92000000F70320000100000000E800DC00045E
:101DA200010901EF00F7007301B80303010000000D
:101DB20000DF09B2095809600973098209000000AD
:0E1DC20000C50C580E6B0C980C7D0CBA0C0072
:00000001FF
