:020000040000FA
:100000006810002049020000630200006502000041
:1000100000000000000000000000000000000000E0
:100020000000000000000000000000006702000067
:100030000000000000000000690200006B020000E8
:100040006D0200006D0200006D0200006D020000F4
:100050006D020000000000006D0200006D02000053
:100060006D0200006D0200006D0200006D020000D4
:100070006D0200006D0200006D0200006D020000C4
:100080006D0200006D0200006D0200006D020000B4
:100090006D0200006D0200006D0200006D020000A4
:1000A0006D0200006D020000000000000000000072
:1000B0000000000000000000000000000000000040
:1000C00000F002F800F040F80CA030C808382418FE
:1000D0002D18A246671EAB4654465D46AC4201D180
:1000E00000F032F87E460F3E0FCCB6460126334272
:1000F00000D0FB1AA246AB4633431847F00200007B
:1001000010030000103A02D378C878C1FAD8520719
:1001100001D330C830C101D504680C6070470000BD
:100120000023002400250026103A01D378C1FBD813
:10013000520700D330C100D50B6070471FB5C046D1
:10014000C0461FBD10B510BD00F01FF91146FFF7E6
:10015000F5FF00F012F800F037F903B4FFF7F2FFF3
:1001600003BC00F03BF90000002100E0491C7D22A7
:10017000D20042438A42F9D87047FF24F5340F2059
:1001800040052F498861886058E02E4805210907FD
:10019000072212028918486400234DE0012040051F
:1001A0002749C8602046FFF7DFFF012040052449AA
:1001B00088604000C8602046FFF7D6FF0120800518
:1001C0001F4988604000C8602046FFF7CDFF01202E
:1001D000C0051B4988604000C8602046FFF7C4FF87
:1001E000012000061649886025E0012040051449D9
:1001F000C8602046FFF7B8FF01204005104988601D
:100200004000C8602046FFF7AFFF012080050C4981
:1002100088604000C8602046FFF7A6FF0120C005A7
:10022000074988604000C8602046FFF79DFF012015
:10023000000603498860D8E7052BAFD3A5E7000087
:10024000000500500C00030003210C4802680A431B
:1002500002600B4802680A4302600A4880470A4865
:100260000047FEE7FEE7FEE7FEE7FEE7FEE70000E9
:1002700006480749074A084B70470000240500401C
:100280005405004041030000C10000006800002048
:1002900068100020680800206808002032483349B0
:1002A000086070473248008CC0B2012812D1304833
:1002B000808C0007000F00280CD12D48806AF021A7
:1002C0000840402806D12A48C06A0840002801D1C9
:1002D000012070470020FCE72548008CC0B20128AF
:1002E0002CD12348808C0007000F002826D12048FD
:1002F000806AF0210840002806D11D48C06A0840E5
:10030000002801D1012070471948806AF021084077
:10031000102806D11648C06A0840002801D10120E3
:10032000F1E71348806AF0210840302806D11048D0
:10033000C06A0840002801D10120E4E70020E2E77C
:1003400010B5FFF7C9FF002805D00A480A494860E0
:10035000C8130A498861FFF7A5FF002802D00120D1
:100360000749886010BD00000024F4000000002050
:10037000C00F00F0DFFF07C000050040006C004028
:1003800000060040704770477047754600F022F83D
:10039000AE46050069465346C008C000854618B001
:1003A00020B5FFF765FF60BC00274908B646002668
:1003B000C0C5C0C5C0C5C0C5C0C5C0C5C0C5C0C515
:1003C000403D49008D4670470446C046C046204621
:1003D000FFF7C3FE004870470400002001491820C1
:1003E000ABBEFEE726000200704700000C040000D0
:1003F00000000020040000000401000010040000C0
:100400000400002064100000200100000024F4001B
:0400000500000249AC
:00000001FF
